{"src/contracts/Shop.sol":{"Shop":{"abi":[{"inputs":[{"internalType":"uint256","name":"_fee","type":"uint256"}],"stateMutability":"nonpayable","type":"constructor"},{"anonymous":false,"inputs":[{"indexed":false,"internalType":"uint256","name":"id","type":"uint256"},{"indexed":true,"internalType":"address","name":"buyer","type":"address"},{"indexed":true,"internalType":"address","name":"seller","type":"address"},{"indexed":false,"internalType":"uint256","name":"price","type":"uint256"},{"indexed":false,"internalType":"uint256","name":"timestamp","type":"uint256"}],"name":"Sale","type":"event"},{"inputs":[{"internalType":"uint256","name":"pid","type":"uint256"},{"internalType":"uint256","name":"id","type":"uint256"}],"name":"cancelOrder","outputs":[{"internalType":"bool","name":"","type":"bool"}],"stateMutability":"nonpayable","type":"function"},{"inputs":[{"internalType":"uint256[]","name":"ids","type":"uint256[]"},{"internalType":"uint256[]","name":"qtys","type":"uint256[]"},{"internalType":"string","name":"destination","type":"string"},{"internalType":"string","name":"phone","type":"string"}],"name":"createOrder","outputs":[{"internalType":"bool","name":"","type":"bool"}],"stateMutability":"payable","type":"function"},{"inputs":[{"internalType":"string","name":"sku","type":"string"},{"internalType":"string","name":"name","type":"string"},{"internalType":"string","name":"description","type":"string"},{"internalType":"string","name":"imageURL","type":"string"},{"internalType":"uint256","name":"price","type":"uint256"},{"internalType":"uint256","name":"stock","type":"uint256"}],"name":"createProduct","outputs":[{"internalType":"bool","name":"","type":"bool"}],"stateMutability":"payable","type":"function"},{"inputs":[{"internalType":"uint256","name":"id","type":"uint256"}],"name":"deleteProduct","outputs":[{"internalType":"bool","name":"","type":"bool"}],"stateMutability":"nonpayable","type":"function"},{"inputs":[{"internalType":"uint256","name":"pid","type":"uint256"},{"internalType":"uint256","name":"id","type":"uint256"}],"name":"deliverOrder","outputs":[{"internalType":"bool","name":"","type":"bool"}],"stateMutability":"nonpayable","type":"function"},{"inputs":[],"name":"fee","outputs":[{"internalType":"uint256","name":"","type":"uint256"}],"stateMutability":"view","type":"function"},{"inputs":[{"internalType":"uint256","name":"pid","type":"uint256"}],"name":"getBuyers","outputs":[{"components":[{"internalType":"address","name":"buyer","type":"address"},{"internalType":"uint256","name":"price","type":"uint256"},{"internalType":"uint256","name":"qty","type":"uint256"},{"internalType":"uint256","name":"timestamp","type":"uint256"}],"internalType":"struct Shop.BuyerStruct[]","name":"buyers","type":"tuple[]"}],"stateMutability":"view","type":"function"},{"inputs":[{"internalType":"uint256","name":"pid","type":"uint256"},{"internalType":"uint256","name":"id","type":"uint256"}],"name":"getOrder","outputs":[{"components":[{"internalType":"uint256","name":"pid","type":"uint256"},{"internalType":"uint256","name":"id","type":"uint256"},{"internalType":"string","name":"sku","type":"string"},{"internalType":"string","name":"name","type":"string"},{"internalType":"string","name":"imageURL","type":"string"},{"internalType":"address","name":"buyer","type":"address"},{"internalType":"address","name":"seller","type":"address"},{"internalType":"uint256","name":"qty","type":"uint256"},{"internalType":"uint256","name":"total","type":"uint256"},{"internalType":"uint256","name":"timestamp","type":"uint256"},{"internalType":"string","name":"destination","type":"string"},{"internalType":"string","name":"phone","type":"string"},{"internalType":"enum Shop.OrderEnum","name":"status","type":"uint8"}],"internalType":"struct Shop.OrderStruct","name":"","type":"tuple"}],"stateMutability":"view","type":"function"},{"inputs":[],"name":"getOrders","outputs":[{"components":[{"internalType":"uint256","name":"pid","type":"uint256"},{"internalType":"uint256","name":"id","type":"uint256"},{"internalType":"string","name":"sku","type":"string"},{"internalType":"string","name":"name","type":"string"},{"internalType":"string","name":"imageURL","type":"string"},{"internalType":"address","name":"buyer","type":"address"},{"internalType":"address","name":"seller","type":"address"},{"internalType":"uint256","name":"qty","type":"uint256"},{"internalType":"uint256","name":"total","type":"uint256"},{"internalType":"uint256","name":"timestamp","type":"uint256"},{"internalType":"string","name":"destination","type":"string"},{"internalType":"string","name":"phone","type":"string"},{"internalType":"enum Shop.OrderEnum","name":"status","type":"uint8"}],"internalType":"struct Shop.OrderStruct[]","name":"props","type":"tuple[]"}],"stateMutability":"view","type":"function"},{"inputs":[{"internalType":"uint256","name":"id","type":"uint256"}],"name":"getProduct","outputs":[{"components":[{"internalType":"uint256","name":"id","type":"uint256"},{"internalType":"string","name":"sku","type":"string"},{"internalType":"address","name":"seller","type":"address"},{"internalType":"string","name":"name","type":"string"},{"internalType":"string","name":"imageURL","type":"string"},{"internalType":"string","name":"description","type":"string"},{"internalType":"uint256","name":"price","type":"uint256"},{"internalType":"uint256","name":"timestamp","type":"uint256"},{"internalType":"bool","name":"deleted","type":"bool"},{"internalType":"uint256","name":"stock","type":"uint256"}],"internalType":"struct Shop.ProductStruct","name":"","type":"tuple"}],"stateMutability":"view","type":"function"},{"inputs":[],"name":"getProducts","outputs":[{"components":[{"internalType":"uint256","name":"id","type":"uint256"},{"internalType":"string","name":"sku","type":"string"},{"internalType":"address","name":"seller","type":"address"},{"internalType":"string","name":"name","type":"string"},{"internalType":"string","name":"imageURL","type":"string"},{"internalType":"string","name":"description","type":"string"},{"internalType":"uint256","name":"price","type":"uint256"},{"internalType":"uint256","name":"timestamp","type":"uint256"},{"internalType":"bool","name":"deleted","type":"bool"},{"internalType":"uint256","name":"stock","type":"uint256"}],"internalType":"struct Shop.ProductStruct[]","name":"","type":"tuple[]"}],"stateMutability":"view","type":"function"},{"inputs":[{"internalType":"uint256","name":"","type":"uint256"},{"internalType":"uint256","name":"","type":"uint256"}],"name":"orderExist","outputs":[{"internalType":"bool","name":"","type":"bool"}],"stateMutability":"view","type":"function"},{"inputs":[],"name":"owner","outputs":[{"internalType":"address","name":"","type":"address"}],"stateMutability":"view","type":"function"},{"inputs":[{"internalType":"uint256","name":"","type":"uint256"}],"name":"productExist","outputs":[{"internalType":"bool","name":"","type":"bool"}],"stateMutability":"view","type":"function"},{"inputs":[],"name":"stats","outputs":[{"internalType":"uint256","name":"products","type":"uint256"},{"internalType":"uint256","name":"orders","type":"uint256"},{"internalType":"uint256","name":"sellers","type":"uint256"},{"internalType":"uint256","name":"sales","type":"uint256"},{"internalType":"uint256","name":"paid","type":"uint256"},{"internalType":"uint256","name":"balance","type":"uint256"}],"stateMutability":"view","type":"function"},{"inputs":[{"internalType":"address","name":"","type":"address"}],"name":"statsOf","outputs":[{"internalType":"uint256","name":"products","type":"uint256"},{"internalType":"uint256","name":"orders","type":"uint256"},{"internalType":"uint256","name":"sellers","type":"uint256"},{"internalType":"uint256","name":"sales","type":"uint256"},{"internalType":"uint256","name":"paid","type":"uint256"},{"internalType":"uint256","name":"balance","type":"uint256"}],"stateMutability":"view","type":"function"},{"inputs":[{"internalType":"uint256","name":"id","type":"uint256"},{"internalType":"string","name":"name","type":"string"},{"internalType":"string","name":"description","type":"string"},{"internalType":"string","name":"imageURL","type":"string"},{"internalType":"uint256","name":"price","type":"uint256"},{"internalType":"uint256","name":"stock","type":"uint256"}],"name":"updateProduct","outputs":[{"internalType":"bool","name":"","type":"bool"}],"stateMutability":"nonpayable","type":"function"}],"evm":{"bytecode":{"linkReferences":{},"object":"60806040523480156200001157600080fd5b50604051620040573803806200405783398101604081905262000034916200004f565b600080546001600160a01b0319163317905560075562000069565b6000602082840312156200006257600080fd5b5051919050565b613fde80620000796000396000f3fe6080604052600436106100fe5760003560e01c8063bab8d87211610095578063ddca3f4311610064578063ddca3f4314610351578063e0e83bb314610375578063e6e110ce14610388578063e77a67ea146103a8578063ed90c7b7146103d857600080fd5b8063bab8d872146102d1578063c29b2f20146102f1578063c39e0b2b14610313578063d80528ae1461032657600080fd5b80637feafd20116100d15780637feafd201461021f5780638da5cb5b1461024c578063b6ed063214610284578063b9db15b4146102a457600080fd5b806315cfc405146101035780631f2337a1146101855780632e2dc43e146101d05780635e1a3573146101f2575b600080fd5b34801561010f57600080fd5b5061015361011e3660046136d1565b600b60205260009081526040902080546001820154600283015460038401546004850154600590950154939492939192909186565b604080519687526020870195909552938501929092526060840152608083015260a082015260c0015b60405180910390f35b34801561019157600080fd5b506101c06101a0366004613701565b600e60209081526000928352604080842090915290825290205460ff1681565b604051901515815260200161017c565b3480156101dc57600080fd5b506101e56103f8565b60405161017c91906138ad565b3480156101fe57600080fd5b5061021261020d366004613701565b61085c565b60405161017c919061390f565b34801561022b57600080fd5b5061023f61023a366004613922565b610c4b565b60405161017c919061393b565b34801561025857600080fd5b5060005461026c906001600160a01b031681565b6040516001600160a01b03909116815260200161017c565b34801561029057600080fd5b506101c061029f366004613701565b610d36565b3480156102b057600080fd5b506102c46102bf366004613922565b61135c565b60405161017c9190613a72565b3480156102dd57600080fd5b506101c06102ec366004613b3c565b611680565b3480156102fd57600080fd5b50610306611957565b60405161017c9190613be0565b6101c0610321366004613c35565b611c53565b34801561033257600080fd5b5060015460025460035460045460055460065461015395949392919086565b34801561035d57600080fd5b5061036760075481565b60405190815260200161017c565b6101c0610383366004613d08565b61201c565b34801561039457600080fd5b506101c06103a3366004613701565b612812565b3480156103b457600080fd5b506101c06103c3366004613922565b600d6020526000908152604090205460ff1681565b3480156103e457600080fd5b506101c06103f3366004613922565b612f27565b60025460609067ffffffffffffffff81111561041657610416613a85565b60405190808252806020026020018201604052801561044f57816020015b61043c6135e9565b8152602001906001900390816104345790505b50905060005b6002548110156108585760005b6000828152600a6020526040902054811015610845576000828152600a6020526040902080548290811061049857610498613db5565b90600052602060002090600d0201604051806101a001604052908160008201548152602001600182015481526020016002820180546104d690613dcb565b80601f016020809104026020016040519081016040528092919081815260200182805461050290613dcb565b801561054f5780601f106105245761010080835404028352916020019161054f565b820191906000526020600020905b81548152906001019060200180831161053257829003601f168201915b5050505050815260200160038201805461056890613dcb565b80601f016020809104026020016040519081016040528092919081815260200182805461059490613dcb565b80156105e15780601f106105b6576101008083540402835291602001916105e1565b820191906000526020600020905b8154815290600101906020018083116105c457829003601f168201915b505050505081526020016004820180546105fa90613dcb565b80601f016020809104026020016040519081016040528092919081815260200182805461062690613dcb565b80156106735780601f1061064857610100808354040283529160200191610673565b820191906000526020600020905b81548152906001019060200180831161065657829003601f168201915b505050918352505060058201546001600160a01b03908116602083015260068301541660408201526007820154606082015260088201546080820152600982015460a0820152600a8201805460c0909201916106ce90613dcb565b80601f01602080910402602001604051908101604052809291908181526020018280546106fa90613dcb565b80156107475780601f1061071c57610100808354040283529160200191610747565b820191906000526020600020905b81548152906001019060200180831161072a57829003601f168201915b50505050508152602001600b8201805461076090613dcb565b80601f016020809104026020016040519081016040528092919081815260200182805461078c90613dcb565b80156107d95780601f106107ae576101008083540402835291602001916107d9565b820191906000526020600020905b8154815290600101906020018083116107bc57829003601f168201915b5050509183525050600c82015460209091019060ff16600381111561080057610800613769565b600381111561081157610811613769565b8152505083838151811061082757610827613db5565b6020026020010181905250808061083d90613e1b565b915050610462565b508061085081613e1b565b915050610455565b5090565b6108646135e9565b6000838152600e6020908152604080832085845290915290205460ff166108a65760405162461bcd60e51b815260040161089d90613e34565b60405180910390fd5b6000838152600a602052604090208054839081106108c6576108c6613db5565b90600052602060002090600d0201604051806101a0016040529081600082015481526020016001820154815260200160028201805461090490613dcb565b80601f016020809104026020016040519081016040528092919081815260200182805461093090613dcb565b801561097d5780601f106109525761010080835404028352916020019161097d565b820191906000526020600020905b81548152906001019060200180831161096057829003601f168201915b5050505050815260200160038201805461099690613dcb565b80601f01602080910402602001604051908101604052809291908181526020018280546109c290613dcb565b8015610a0f5780601f106109e457610100808354040283529160200191610a0f565b820191906000526020600020905b8154815290600101906020018083116109f257829003601f168201915b50505050508152602001600482018054610a2890613dcb565b80601f0160208091040260200160405190810160405280929190818152602001828054610a5490613dcb565b8015610aa15780601f10610a7657610100808354040283529160200191610aa1565b820191906000526020600020905b815481529060010190602001808311610a8457829003601f168201915b505050918352505060058201546001600160a01b03908116602083015260068301541660408201526007820154606082015260088201546080820152600982015460a0820152600a8201805460c090920191610afc90613dcb565b80601f0160208091040260200160405190810160405280929190818152602001828054610b2890613dcb565b8015610b755780601f10610b4a57610100808354040283529160200191610b75565b820191906000526020600020905b815481529060010190602001808311610b5857829003601f168201915b50505050508152602001600b82018054610b8e90613dcb565b80601f0160208091040260200160405190810160405280929190818152602001828054610bba90613dcb565b8015610c075780601f10610bdc57610100808354040283529160200191610c07565b820191906000526020600020905b815481529060010190602001808311610bea57829003601f168201915b5050509183525050600c82015460209091019060ff166003811115610c2e57610c2e613769565b6003811115610c3f57610c3f613769565b90525090505b92915050565b6000818152600d602052604090205460609060ff16610ca55760405162461bcd60e51b8152602060048201526016602482015275141c9bd91d58dd08191bd95cc81b9bdd08195e1a5cdd60521b604482015260640161089d565b6000828152600c6020908152604080832080548251818502810185019093528083529193909284015b82821015610d2b576000848152602090819020604080516080810182526004860290920180546001600160a01b03168352600180820154848601526002820154928401929092526003015460608301529083529092019101610cce565b505050509050919050565b6000828152600e6020908152604080832084845290915281205460ff16610d6f5760405162461bcd60e51b815260040161089d90613e34565b6000838152600a60205260408120805484908110610d8f57610d8f613db5565b90600052602060002090600d0201604051806101a00160405290816000820154815260200160018201548152602001600282018054610dcd90613dcb565b80601f0160208091040260200160405190810160405280929190818152602001828054610df990613dcb565b8015610e465780601f10610e1b57610100808354040283529160200191610e46565b820191906000526020600020905b815481529060010190602001808311610e2957829003601f168201915b50505050508152602001600382018054610e5f90613dcb565b80601f0160208091040260200160405190810160405280929190818152602001828054610e8b90613dcb565b8015610ed85780601f10610ead57610100808354040283529160200191610ed8565b820191906000526020600020905b815481529060010190602001808311610ebb57829003601f168201915b50505050508152602001600482018054610ef190613dcb565b80601f0160208091040260200160405190810160405280929190818152602001828054610f1d90613dcb565b8015610f6a5780601f10610f3f57610100808354040283529160200191610f6a565b820191906000526020600020905b815481529060010190602001808311610f4d57829003601f168201915b505050918352505060058201546001600160a01b03908116602083015260068301541660408201526007820154606082015260088201546080820152600982015460a0820152600a8201805460c090920191610fc590613dcb565b80601f0160208091040260200160405190810160405280929190818152602001828054610ff190613dcb565b801561103e5780601f106110135761010080835404028352916020019161103e565b820191906000526020600020905b81548152906001019060200180831161102157829003601f168201915b50505050508152602001600b8201805461105790613dcb565b80601f016020809104026020016040519081016040528092919081815260200182805461108390613dcb565b80156110d05780601f106110a5576101008083540402835291602001916110d0565b820191906000526020600020905b8154815290600101906020018083116110b357829003601f168201915b5050509183525050600c82015460209091019060ff1660038111156110f7576110f7613769565b600381111561110857611108613769565b90525060a08101519091506001600160a01b031633146111605760405162461bcd60e51b8152602060048201526013602482015272556e617574686f72697a656420456e7469747960681b604482015260640161089d565b6002816101800151600381111561117957611179613769565b036111bf5760405162461bcd60e51b815260206004820152601660248201527513dc99195c88185b1c9958591e4818d85b98d95b195960521b604482015260640161089d565b600261018082015260e081015181516008805490919081106111e3576111e3613db5565b90600052602060002090600a020160090160008282546112039190613e5d565b90915550506000848152600a6020526040902080548291908590811061122b5761122b613db5565b90600052602060002090600d0201600082015181600001556020820151816001015560408201518160020190816112629190613ebe565b50606082015160038201906112779082613ebe565b506080820151600482019061128c9082613ebe565b5060a08201516005820180546001600160a01b039283166001600160a01b03199182161790915560c084015160068401805491909316911617905560e0820151600782015561010082015160088201556101208201516009820155610140820151600a8201906112fc9082613ebe565b50610160820151600b8201906113129082613ebe565b50610180820151600c8201805460ff1916600183600381111561133757611337613769565b02179055509050506113528160a00151826101000151612fe6565b5060019392505050565b611364613673565b6000828152600d602052604090205460ff166113b65760405162461bcd60e51b8152602060048201526011602482015270141c9bd91d58dd081b9bdd08199bdd5b99607a1b604482015260640161089d565b600882815481106113c9576113c9613db5565b90600052602060002090600a020160405180610140016040529081600082015481526020016001820180546113fd90613dcb565b80601f016020809104026020016040519081016040528092919081815260200182805461142990613dcb565b80156114765780601f1061144b57610100808354040283529160200191611476565b820191906000526020600020905b81548152906001019060200180831161145957829003601f168201915b505050918352505060028201546001600160a01b031660208201526003820180546040909201916114a690613dcb565b80601f01602080910402602001604051908101604052809291908181526020018280546114d290613dcb565b801561151f5780601f106114f45761010080835404028352916020019161151f565b820191906000526020600020905b81548152906001019060200180831161150257829003601f168201915b5050505050815260200160048201805461153890613dcb565b80601f016020809104026020016040519081016040528092919081815260200182805461156490613dcb565b80156115b15780601f10611586576101008083540402835291602001916115b1565b820191906000526020600020905b81548152906001019060200180831161159457829003601f168201915b505050505081526020016005820180546115ca90613dcb565b80601f01602080910402602001604051908101604052809291908181526020018280546115f690613dcb565b80156116435780601f1061161857610100808354040283529160200191611643565b820191906000526020600020905b81548152906001019060200180831161162657829003601f168201915b50505091835250506006820154602082015260078201546040820152600882015460ff161515606082015260099091015460809091015292915050565b6000336001600160a01b03166008888154811061169f5761169f613db5565b600091825260209091206002600a9092020101546001600160a01b0316146117005760405162461bcd60e51b8152602060048201526014602482015273155b985d5d1a1bdc9a5e994814195c9cdbdb995b60621b604482015260640161089d565b60008651116117485760405162461bcd60e51b81526020600482015260146024820152736e616d652063616e6e6f7420626520656d70747960601b604482015260640161089d565b60008551116117995760405162461bcd60e51b815260206004820152601b60248201527f6465736372697074696f6e2063616e6e6f7420626520656d7074790000000000604482015260640161089d565b600083116117e05760405162461bcd60e51b815260206004820152601460248201527370726963652063616e6e6f74206265207a65726f60601b604482015260640161089d565b600082116118275760405162461bcd60e51b815260206004820152601460248201527373746f636b2063616e6e6f74206265207a65726f60601b604482015260640161089d565b61182f613673565b878152336040820152606081018790526080810185905260a0810186905260c081018490526101208101839052600880548291908a90811061187357611873613db5565b90600052602060002090600a02016000820151816000015560208201518160010190816118a09190613ebe565b5060408201516002820180546001600160a01b0319166001600160a01b03909216919091179055606082015160038201906118db9082613ebe565b50608082015160048201906118f09082613ebe565b5060a082015160058201906119059082613ebe565b5060c0820151600682015560e0820151600782015561010082015160088201805460ff1916911515919091179055610120909101516009909101556119498161304b565b506001979650505050505050565b60606008805480602002602001604051908101604052809291908181526020016000905b82821015611c4a57838290600052602060002090600a020160405180610140016040529081600082015481526020016001820180546119b990613dcb565b80601f01602080910402602001604051908101604052809291908181526020018280546119e590613dcb565b8015611a325780601f10611a0757610100808354040283529160200191611a32565b820191906000526020600020905b815481529060010190602001808311611a1557829003601f168201915b505050918352505060028201546001600160a01b03166020820152600382018054604090920191611a6290613dcb565b80601f0160208091040260200160405190810160405280929190818152602001828054611a8e90613dcb565b8015611adb5780601f10611ab057610100808354040283529160200191611adb565b820191906000526020600020905b815481529060010190602001808311611abe57829003601f168201915b50505050508152602001600482018054611af490613dcb565b80601f0160208091040260200160405190810160405280929190818152602001828054611b2090613dcb565b8015611b6d5780601f10611b4257610100808354040283529160200191611b6d565b820191906000526020600020905b815481529060010190602001808311611b5057829003601f168201915b50505050508152602001600582018054611b8690613dcb565b80601f0160208091040260200160405190810160405280929190818152602001828054611bb290613dcb565b8015611bff5780601f10611bd457610100808354040283529160200191611bff565b820191906000526020600020905b815481529060010190602001808311611be257829003601f168201915b5050509183525050600682015460208083019190915260078301546040830152600883015460ff1615156060830152600990920154608090910152908252600192909201910161197b565b50505050905090565b6000600754341015611c9b5760405162461bcd60e51b8152602060048201526011602482015270125b9cdd59999a58da595b9d08199d5b99607a1b604482015260640161089d565b6000875111611ce25760405162461bcd60e51b8152602060048201526013602482015272736b752063616e6e6f7420626520656d70747960681b604482015260640161089d565b6000865111611d2a5760405162461bcd60e51b81526020600482015260146024820152736e616d652063616e6e6f7420626520656d70747960601b604482015260640161089d565b6000855111611d7b5760405162461bcd60e51b815260206004820152601b60248201527f6465736372697074696f6e2063616e6e6f7420626520656d7074790000000000604482015260640161089d565b6000845111611dcc5760405162461bcd60e51b815260206004820152601960248201527f696d6167652055524c2063616e6e6f7420626520656d70747900000000000000604482015260640161089d565b60008311611e135760405162461bcd60e51b815260206004820152601460248201527370726963652063616e6e6f74206265207a65726f60601b604482015260640161089d565b60008211611e5a5760405162461bcd60e51b815260206004820152601460248201527373746f636b2063616e6e6f74206265207a65726f60601b604482015260640161089d565b600180546000908152600d60209081526040808320805460ff1916909417909355338252600b9052908120805491611e9183613e1b565b909155505060038054906000611ea683613e1b565b9190505550611eb3613673565b60018054906000611ec383613e1b565b90915550815260208101888152336040830152606082018890526080820186905260a0820187905260c0820185905261012082018490524260e0830152600880546001810182556000919091528251600a9091027ff3f7a9fe364faab93b216da50a3214154f22a0a2b415b23a84c8169e8b636ee38101918255915183927ff3f7a9fe364faab93b216da50a3214154f22a0a2b415b23a84c8169e8b636ee40190611f6e9082613ebe565b5060408201516002820180546001600160a01b0319166001600160a01b0390921691909117905560608201516003820190611fa99082613ebe565b5060808201516004820190611fbe9082613ebe565b5060a08201516005820190611fd39082613ebe565b5060c0820151600682015560e0820151600782015561010082015160088201805460ff191691151591909117905561012090910151600990910155506001979650505050505050565b6000612028858561356b565b34101561206d5760405162461bcd60e51b8152602060048201526013602482015272125b9cdd59999a58da595b9d08185b5bdd5b9d606a1b604482015260640161089d565b60008351116120be5760405162461bcd60e51b815260206004820152601b60248201527f64657374696e6174696f6e2063616e6e6f7420626520656d7074790000000000604482015260640161089d565b60008251116121075760405162461bcd60e51b815260206004820152601560248201527470686f6e652063616e6e6f7420626520656d70747960581b604482015260640161089d565b612111858561356b565b60068054600090612123908490613e5d565b90915550600090505b855181101561280657600d600087838151811061214b5761214b613db5565b60209081029190910181015182528101919091526040016000205460ff1680156121cb575084818151811061218257612182613db5565b6020026020010151600887838151811061219e5761219e613db5565b6020026020010151815481106121b6576121b6613db5565b90600052602060002090600a02016009015410155b156127f4578481815181106121e2576121e2613db5565b602002602001015160088783815181106121fe576121fe613db5565b60200260200101518154811061221657612216613db5565b90600052602060002090600a020160090160008282546122369190613f7e565b9091555050336000908152600b6020526040812060010180549161225983613e1b565b90915550506002805490600061226e83613e1b565b919050555061227b6135e9565b600887838151811061228f5761228f613db5565b6020026020010151815481106122a7576122a7613db5565b60009182526020808320600a928302015480855283529081526040909120549082015286516008908890849081106122e1576122e1613db5565b6020026020010151815481106122f9576122f9613db5565b90600052602060002090600a0201600101805461231590613dcb565b80601f016020809104026020016040519081016040528092919081815260200182805461234190613dcb565b801561238e5780601f106123635761010080835404028352916020019161238e565b820191906000526020600020905b81548152906001019060200180831161237157829003601f168201915b505050505060408201523360a082015286516008908890849081106123b5576123b5613db5565b6020026020010151815481106123cd576123cd613db5565b600091825260209091206002600a9092020101546001600160a01b031660c0820152865160089088908490811061240657612406613db5565b60200260200101518154811061241e5761241e613db5565b90600052602060002090600a0201600301805461243a90613dcb565b80601f016020809104026020016040519081016040528092919081815260200182805461246690613dcb565b80156124b35780601f10612488576101008083540402835291602001916124b3565b820191906000526020600020905b81548152906001019060200180831161249657829003601f168201915b5050505050816060018190525060088783815181106124d4576124d4613db5565b6020026020010151815481106124ec576124ec613db5565b90600052602060002090600a0201600401805461250890613dcb565b80601f016020809104026020016040519081016040528092919081815260200182805461253490613dcb565b80156125815780601f1061255657610100808354040283529160200191612581565b820191906000526020600020905b81548152906001019060200180831161256457829003601f168201915b505050505081608001819052508582815181106125a0576125a0613db5565b60200260200101518160e001818152505060088783815181106125c5576125c5613db5565b6020026020010151815481106125dd576125dd613db5565b90600052602060002090600a02016006015486838151811061260157612601613db5565b60200260200101516126139190613f91565b610100820152426101208201526101408101859052610160810184905280516000908152600a60209081526040808320805460018181018355918552938390208551600d909502019384559184015191830191909155820151829190600282019061267e9082613ebe565b50606082015160038201906126939082613ebe565b50608082015160048201906126a89082613ebe565b5060a08201516005820180546001600160a01b039283166001600160a01b03199182161790915560c084015160068401805491909316911617905560e0820151600782015561010082015160088201556101208201516009820155610140820151600a8201906127189082613ebe565b50610160820151600b82019061272e9082613ebe565b50610180820151600c8201805460ff1916600183600381111561275357612753613769565b02179055505081516000908152600e6020908152604080832082860180518552925291829020805460ff1916600117905560c084015160a0850151915161010086015193516001600160a01b03928316955092909116927ff3debaf22196a6ddf52a60fa71058cd7edf5e25bb98f4e96c994a5d4a9b0dd3e926127ea92919042909283526020830191909152604082015260600190565b60405180910390a3505b806127fe81613e1b565b91505061212c565b50600195945050505050565b6000828152600e6020908152604080832084845290915281205460ff1661284b5760405162461bcd60e51b815260040161089d90613e34565b6000838152600a6020526040812080548490811061286b5761286b613db5565b90600052602060002090600d0201604051806101a001604052908160008201548152602001600182015481526020016002820180546128a990613dcb565b80601f01602080910402602001604051908101604052809291908181526020018280546128d590613dcb565b80156129225780601f106128f757610100808354040283529160200191612922565b820191906000526020600020905b81548152906001019060200180831161290557829003601f168201915b5050505050815260200160038201805461293b90613dcb565b80601f016020809104026020016040519081016040528092919081815260200182805461296790613dcb565b80156129b45780601f10612989576101008083540402835291602001916129b4565b820191906000526020600020905b81548152906001019060200180831161299757829003601f168201915b505050505081526020016004820180546129cd90613dcb565b80601f01602080910402602001604051908101604052809291908181526020018280546129f990613dcb565b8015612a465780601f10612a1b57610100808354040283529160200191612a46565b820191906000526020600020905b815481529060010190602001808311612a2957829003601f168201915b505050918352505060058201546001600160a01b03908116602083015260068301541660408201526007820154606082015260088201546080820152600982015460a0820152600a8201805460c090920191612aa190613dcb565b80601f0160208091040260200160405190810160405280929190818152602001828054612acd90613dcb565b8015612b1a5780601f10612aef57610100808354040283529160200191612b1a565b820191906000526020600020905b815481529060010190602001808311612afd57829003601f168201915b50505050508152602001600b82018054612b3390613dcb565b80601f0160208091040260200160405190810160405280929190818152602001828054612b5f90613dcb565b8015612bac5780601f10612b8157610100808354040283529160200191612bac565b820191906000526020600020905b815481529060010190602001808311612b8f57829003601f168201915b5050509183525050600c82015460209091019060ff166003811115612bd357612bd3613769565b6003811115612be457612be4613769565b90525060c08101519091506001600160a01b03163314612c3c5760405162461bcd60e51b8152602060048201526013602482015272556e617574686f72697a656420456e7469747960681b604482015260640161089d565b60018161018001516003811115612c5557612c55613769565b03612ca25760405162461bcd60e51b815260206004820152601860248201527f4f7264657220616c72656164792064656c696576657265640000000000000000604482015260640161089d565b60016101808201526000848152600a60205260409020805482919085908110612ccd57612ccd613db5565b90600052602060002090600d020160008201518160000155602082015181600101556040820151816002019081612d049190613ebe565b5060608201516003820190612d199082613ebe565b5060808201516004820190612d2e9082613ebe565b5060a08201516005820180546001600160a01b039283166001600160a01b03199182161790915560c084015160068401805491909316911617905560e0820151600782015561010082015160088201556101208201516009820155610140820151600a820190612d9e9082613ebe565b50610160820151600b820190612db49082613ebe565b50610180820151600c8201805460ff19166001836003811115612dd957612dd9613769565b0217905550505061010081015160068054600090612df8908490613f7e565b909155505061010081015160c08201516001600160a01b03166000908152600b602052604081206004018054909190612e32908490613e5d565b909155505060c08101516001600160a01b03166000908152600b60205260408120600301805491612e6283613e1b565b909155505060048054906000612e7783613e1b565b9190505550612e8f8160c00151826101000151612fe6565b6000928352600c60209081526040808520815160808101835260a08501516001600160a01b03908116825261010086015182860190815260e0909601519382019384524260608301908152835460018082018655948a52959098209151600490950290910180546001600160a01b03191694909116939093178355925182840155516002820155925160039093019290925550919050565b6000336001600160a01b031660088381548110612f4657612f46613db5565b600091825260209091206002600a9092020101546001600160a01b031614612fa75760405162461bcd60e51b8152602060048201526014602482015273155b985d5d1a1bdc9a5e994814195c9cdbdb995b60621b604482015260640161089d565b600160088381548110612fbc57612fbc613db5565b60009182526020909120600a90910201600801805460ff1916911515919091179055506001919050565b6000826001600160a01b03168260405160006040518083038185875af1925050503d8060008114613033576040519150601f19603f3d011682016040523d82523d6000602084013e613038565b606091505b505090508061304657600080fd5b505050565b60005b81516000908152600a60205260409020548110156135675781516000908152600a6020526040812080548390811061308857613088613db5565b90600052602060002090600d0201604051806101a001604052908160008201548152602001600182015481526020016002820180546130c690613dcb565b80601f01602080910402602001604051908101604052809291908181526020018280546130f290613dcb565b801561313f5780601f106131145761010080835404028352916020019161313f565b820191906000526020600020905b81548152906001019060200180831161312257829003601f168201915b5050505050815260200160038201805461315890613dcb565b80601f016020809104026020016040519081016040528092919081815260200182805461318490613dcb565b80156131d15780601f106131a6576101008083540402835291602001916131d1565b820191906000526020600020905b8154815290600101906020018083116131b457829003601f168201915b505050505081526020016004820180546131ea90613dcb565b80601f016020809104026020016040519081016040528092919081815260200182805461321690613dcb565b80156132635780601f1061323857610100808354040283529160200191613263565b820191906000526020600020905b81548152906001019060200180831161324657829003601f168201915b505050918352505060058201546001600160a01b03908116602083015260068301541660408201526007820154606082015260088201546080820152600982015460a0820152600a8201805460c0909201916132be90613dcb565b80601f01602080910402602001604051908101604052809291908181526020018280546132ea90613dcb565b80156133375780601f1061330c57610100808354040283529160200191613337565b820191906000526020600020905b81548152906001019060200180831161331a57829003601f168201915b50505050508152602001600b8201805461335090613dcb565b80601f016020809104026020016040519081016040528092919081815260200182805461337c90613dcb565b80156133c95780601f1061339e576101008083540402835291602001916133c9565b820191906000526020600020905b8154815290600101906020018083116133ac57829003601f168201915b5050509183525050600c82015460209091019060ff1660038111156133f0576133f0613769565b600381111561340157613401613769565b905250606080850151908201526080808501519082015283516000908152600a60205260409020805491925082918490811061343f5761343f613db5565b90600052602060002090600d0201600082015181600001556020820151816001015560408201518160020190816134769190613ebe565b506060820151600382019061348b9082613ebe565b50608082015160048201906134a09082613ebe565b5060a08201516005820180546001600160a01b039283166001600160a01b03199182161790915560c084015160068401805491909316911617905560e0820151600782015561010082015160088201556101208201516009820155610140820151600a8201906135109082613ebe565b50610160820151600b8201906135269082613ebe565b50610180820151600c8201805460ff1916600183600381111561354b5761354b613769565b021790555090505050808061355f90613e1b565b91505061304e565b5050565b60008060005b84518110156135e15783818151811061358c5761358c613db5565b6020026020010151600882815481106135a7576135a7613db5565b90600052602060002090600a0201600601546135c39190613f91565b6135cd9083613e5d565b9150806135d981613e1b565b915050613571565b509392505050565b604051806101a00160405280600081526020016000815260200160608152602001606081526020016060815260200160006001600160a01b0316815260200160006001600160a01b0316815260200160008152602001600081526020016000815260200160608152602001606081526020016000600381111561366e5761366e613769565b905290565b604051806101400160405280600081526020016060815260200160006001600160a01b031681526020016060815260200160608152602001606081526020016000815260200160008152602001600015158152602001600081525090565b6000602082840312156136e357600080fd5b81356001600160a01b03811681146136fa57600080fd5b9392505050565b6000806040838503121561371457600080fd5b50508035926020909101359150565b6000815180845260005b818110156137495760208185018101518683018201520161372d565b506000602082860101526020601f19601f83011685010191505092915050565b634e487b7160e01b600052602160045260246000fd5b6004811061379d57634e487b7160e01b600052602160045260246000fd5b9052565b60006101a0825184526020830151602085015260408301518160408601526137cb82860182613723565b915050606083015184820360608601526137e58282613723565b915050608083015184820360808601526137ff8282613723565b91505060a083015161381c60a08601826001600160a01b03169052565b5060c083015161383760c08601826001600160a01b03169052565b5060e083810151908501526101008084015190850152610120808401519085015261014080840151858303828701526138708382613723565b92505050610160808401518583038287015261388c8382613723565b92505050610180808401516138a38287018261377f565b5090949350505050565b6000602080830181845280855180835260408601915060408160051b870101925083870160005b8281101561390257603f198886030184526138f08583516137a1565b945092850192908501906001016138d4565b5092979650505050505050565b6020815260006136fa60208301846137a1565b60006020828403121561393457600080fd5b5035919050565b602080825282518282018190526000919060409081850190868401855b8281101561399b57815180516001600160a01b03168552868101518786015285810151868601526060908101519085015260809093019290850190600101613958565b5091979650505050505050565b60006101408251845260208301518160208601526139c882860182613723565b91505060408301516139e560408601826001600160a01b03169052565b50606083015184820360608601526139fd8282613723565b91505060808301518482036080860152613a178282613723565b91505060a083015184820360a0860152613a318282613723565b91505060c083015160c085015260e083015160e085015261010080840151613a5c8287018215159052565b5050610120928301519390920192909252919050565b6020815260006136fa60208301846139a8565b634e487b7160e01b600052604160045260246000fd5b604051601f8201601f1916810167ffffffffffffffff81118282101715613ac457613ac4613a85565b604052919050565b600082601f830112613add57600080fd5b813567ffffffffffffffff811115613af757613af7613a85565b613b0a601f8201601f1916602001613a9b565b818152846020838601011115613b1f57600080fd5b816020850160208301376000918101602001919091529392505050565b60008060008060008060c08789031215613b5557600080fd5b86359550602087013567ffffffffffffffff80821115613b7457600080fd5b613b808a838b01613acc565b96506040890135915080821115613b9657600080fd5b613ba28a838b01613acc565b95506060890135915080821115613bb857600080fd5b50613bc589828a01613acc565b9350506080870135915060a087013590509295509295509295565b6000602080830181845280855180835260408601915060408160051b870101925083870160005b8281101561390257603f19888603018452613c238583516139a8565b94509285019290850190600101613c07565b60008060008060008060c08789031215613c4e57600080fd5b863567ffffffffffffffff80821115613c6657600080fd5b613c728a838b01613acc565b97506020890135915080821115613b7457600080fd5b600082601f830112613c9957600080fd5b8135602067ffffffffffffffff821115613cb557613cb5613a85565b8160051b613cc4828201613a9b565b9283528481018201928281019087851115613cde57600080fd5b83870192505b84831015613cfd57823582529183019190830190613ce4565b979650505050505050565b60008060008060808587031215613d1e57600080fd5b843567ffffffffffffffff80821115613d3657600080fd5b613d4288838901613c88565b95506020870135915080821115613d5857600080fd5b613d6488838901613c88565b94506040870135915080821115613d7a57600080fd5b613d8688838901613acc565b93506060870135915080821115613d9c57600080fd5b50613da987828801613acc565b91505092959194509250565b634e487b7160e01b600052603260045260246000fd5b600181811c90821680613ddf57607f821691505b602082108103613dff57634e487b7160e01b600052602260045260246000fd5b50919050565b634e487b7160e01b600052601160045260246000fd5b600060018201613e2d57613e2d613e05565b5060010190565b6020808252600f908201526e13dc99195c881b9bdd08199bdd5b99608a1b604082015260600190565b80820180821115610c4557610c45613e05565b601f82111561304657600081815260208120601f850160051c81016020861015613e975750805b601f850160051c820191505b81811015613eb657828155600101613ea3565b505050505050565b815167ffffffffffffffff811115613ed857613ed8613a85565b613eec81613ee68454613dcb565b84613e70565b602080601f831160018114613f215760008415613f095750858301515b600019600386901b1c1916600185901b178555613eb6565b600085815260208120601f198616915b82811015613f5057888601518255948401946001909101908401613f31565b5085821015613f6e5787850151600019600388901b60f8161c191681555b5050505050600190811b01905550565b81810381811115610c4557610c45613e05565b8082028115828204841417610c4557610c45613e0556fea2646970667358221220249636a712920f0d763a96a5b41f9df2562dd15671cf35e5ab199c7a2c24657f64736f6c63430008110033","opcodes":"PUSH1 0x80 PUSH1 0x40 MSTORE CALLVALUE DUP1 ISZERO PUSH3 0x11 JUMPI PUSH1 0x0 DUP1 REVERT JUMPDEST POP PUSH1 0x40 MLOAD PUSH3 0x4057 CODESIZE SUB DUP1 PUSH3 0x4057 DUP4 CODECOPY DUP2 ADD PUSH1 0x40 DUP2 SWAP1 MSTORE PUSH3 0x34 SWAP2 PUSH3 0x4F JUMP JUMPDEST PUSH1 0x0 DUP1 SLOAD PUSH1 0x1 PUSH1 0x1 PUSH1 0xA0 SHL SUB NOT AND CALLER OR SWAP1 SSTORE PUSH1 0x7 SSTORE PUSH3 0x69 JUMP JUMPDEST PUSH1 0x0 PUSH1 0x20 DUP3 DUP5 SUB SLT ISZERO PUSH3 0x62 JUMPI PUSH1 0x0 DUP1 REVERT JUMPDEST POP MLOAD SWAP2 SWAP1 POP JUMP JUMPDEST PUSH2 0x3FDE DUP1 PUSH3 0x79 PUSH1 0x0 CODECOPY PUSH1 0x0 RETURN INVALID PUSH1 0x80 PUSH1 0x40 MSTORE PUSH1 0x4 CALLDATASIZE LT PUSH2 0xFE JUMPI PUSH1 0x0 CALLDATALOAD PUSH1 0xE0 SHR DUP1 PUSH4 0xBAB8D872 GT PUSH2 0x95 JUMPI DUP1 PUSH4 0xDDCA3F43 GT PUSH2 0x64 JUMPI DUP1 PUSH4 0xDDCA3F43 EQ PUSH2 0x351 JUMPI DUP1 PUSH4 0xE0E83BB3 EQ PUSH2 0x375 JUMPI DUP1 PUSH4 0xE6E110CE EQ PUSH2 0x388 JUMPI DUP1 PUSH4 0xE77A67EA EQ PUSH2 0x3A8 JUMPI DUP1 PUSH4 0xED90C7B7 EQ PUSH2 0x3D8 JUMPI PUSH1 0x0 DUP1 REVERT JUMPDEST DUP1 PUSH4 0xBAB8D872 EQ PUSH2 0x2D1 JUMPI DUP1 PUSH4 0xC29B2F20 EQ PUSH2 0x2F1 JUMPI DUP1 PUSH4 0xC39E0B2B EQ PUSH2 0x313 JUMPI DUP1 PUSH4 0xD80528AE EQ PUSH2 0x326 JUMPI PUSH1 0x0 DUP1 REVERT JUMPDEST DUP1 PUSH4 0x7FEAFD20 GT PUSH2 0xD1 JUMPI DUP1 PUSH4 0x7FEAFD20 EQ PUSH2 0x21F JUMPI DUP1 PUSH4 0x8DA5CB5B EQ PUSH2 0x24C JUMPI DUP1 PUSH4 0xB6ED0632 EQ PUSH2 0x284 JUMPI DUP1 PUSH4 0xB9DB15B4 EQ PUSH2 0x2A4 JUMPI PUSH1 0x0 DUP1 REVERT JUMPDEST DUP1 PUSH4 0x15CFC405 EQ PUSH2 0x103 JUMPI DUP1 PUSH4 0x1F2337A1 EQ PUSH2 0x185 JUMPI DUP1 PUSH4 0x2E2DC43E EQ PUSH2 0x1D0 JUMPI DUP1 PUSH4 0x5E1A3573 EQ PUSH2 0x1F2 JUMPI JUMPDEST PUSH1 0x0 DUP1 REVERT JUMPDEST CALLVALUE DUP1 ISZERO PUSH2 0x10F JUMPI PUSH1 0x0 DUP1 REVERT JUMPDEST POP PUSH2 0x153 PUSH2 0x11E CALLDATASIZE PUSH1 0x4 PUSH2 0x36D1 JUMP JUMPDEST PUSH1 0xB PUSH1 0x20 MSTORE PUSH1 0x0 SWAP1 DUP2 MSTORE PUSH1 0x40 SWAP1 KECCAK256 DUP1 SLOAD PUSH1 0x1 DUP3 ADD SLOAD PUSH1 0x2 DUP4 ADD SLOAD PUSH1 0x3 DUP5 ADD SLOAD PUSH1 0x4 DUP6 ADD SLOAD PUSH1 0x5 SWAP1 SWAP6 ADD SLOAD SWAP4 SWAP5 SWAP3 SWAP4 SWAP2 SWAP3 SWAP1 SWAP2 DUP7 JUMP JUMPDEST PUSH1 0x40 DUP1 MLOAD SWAP7 DUP8 MSTORE PUSH1 0x20 DUP8 ADD SWAP6 SWAP1 SWAP6 MSTORE SWAP4 DUP6 ADD SWAP3 SWAP1 SWAP3 MSTORE PUSH1 0x60 DUP5 ADD MSTORE PUSH1 0x80 DUP4 ADD MSTORE PUSH1 0xA0 DUP3 ADD MSTORE PUSH1 0xC0 ADD JUMPDEST PUSH1 0x40 MLOAD DUP1 SWAP2 SUB SWAP1 RETURN JUMPDEST CALLVALUE DUP1 ISZERO PUSH2 0x191 JUMPI PUSH1 0x0 DUP1 REVERT JUMPDEST POP PUSH2 0x1C0 PUSH2 0x1A0 CALLDATASIZE PUSH1 0x4 PUSH2 0x3701 JUMP JUMPDEST PUSH1 0xE PUSH1 0x20 SWAP1 DUP2 MSTORE PUSH1 0x0 SWAP3 DUP4 MSTORE PUSH1 0x40 DUP1 DUP5 KECCAK256 SWAP1 SWAP2 MSTORE SWAP1 DUP3 MSTORE SWAP1 KECCAK256 SLOAD PUSH1 0xFF AND DUP2 JUMP JUMPDEST PUSH1 0x40 MLOAD SWAP1 ISZERO ISZERO DUP2 MSTORE PUSH1 0x20 ADD PUSH2 0x17C JUMP JUMPDEST CALLVALUE DUP1 ISZERO PUSH2 0x1DC JUMPI PUSH1 0x0 DUP1 REVERT JUMPDEST POP PUSH2 0x1E5 PUSH2 0x3F8 JUMP JUMPDEST PUSH1 0x40 MLOAD PUSH2 0x17C SWAP2 SWAP1 PUSH2 0x38AD JUMP JUMPDEST CALLVALUE DUP1 ISZERO PUSH2 0x1FE JUMPI PUSH1 0x0 DUP1 REVERT JUMPDEST POP PUSH2 0x212 PUSH2 0x20D CALLDATASIZE PUSH1 0x4 PUSH2 0x3701 JUMP JUMPDEST PUSH2 0x85C JUMP JUMPDEST PUSH1 0x40 MLOAD PUSH2 0x17C SWAP2 SWAP1 PUSH2 0x390F JUMP JUMPDEST CALLVALUE DUP1 ISZERO PUSH2 0x22B JUMPI PUSH1 0x0 DUP1 REVERT JUMPDEST POP PUSH2 0x23F PUSH2 0x23A CALLDATASIZE PUSH1 0x4 PUSH2 0x3922 JUMP JUMPDEST PUSH2 0xC4B JUMP JUMPDEST PUSH1 0x40 MLOAD PUSH2 0x17C SWAP2 SWAP1 PUSH2 0x393B JUMP JUMPDEST CALLVALUE DUP1 ISZERO PUSH2 0x258 JUMPI PUSH1 0x0 DUP1 REVERT JUMPDEST POP PUSH1 0x0 SLOAD PUSH2 0x26C SWAP1 PUSH1 0x1 PUSH1 0x1 PUSH1 0xA0 SHL SUB AND DUP2 JUMP JUMPDEST PUSH1 0x40 MLOAD PUSH1 0x1 PUSH1 0x1 PUSH1 0xA0 SHL SUB SWAP1 SWAP2 AND DUP2 MSTORE PUSH1 0x20 ADD PUSH2 0x17C JUMP JUMPDEST CALLVALUE DUP1 ISZERO PUSH2 0x290 JUMPI PUSH1 0x0 DUP1 REVERT JUMPDEST POP PUSH2 0x1C0 PUSH2 0x29F CALLDATASIZE PUSH1 0x4 PUSH2 0x3701 JUMP JUMPDEST PUSH2 0xD36 JUMP JUMPDEST CALLVALUE DUP1 ISZERO PUSH2 0x2B0 JUMPI PUSH1 0x0 DUP1 REVERT JUMPDEST POP PUSH2 0x2C4 PUSH2 0x2BF CALLDATASIZE PUSH1 0x4 PUSH2 0x3922 JUMP JUMPDEST PUSH2 0x135C JUMP JUMPDEST PUSH1 0x40 MLOAD PUSH2 0x17C SWAP2 SWAP1 PUSH2 0x3A72 JUMP JUMPDEST CALLVALUE DUP1 ISZERO PUSH2 0x2DD JUMPI PUSH1 0x0 DUP1 REVERT JUMPDEST POP PUSH2 0x1C0 PUSH2 0x2EC CALLDATASIZE PUSH1 0x4 PUSH2 0x3B3C JUMP JUMPDEST PUSH2 0x1680 JUMP JUMPDEST CALLVALUE DUP1 ISZERO PUSH2 0x2FD JUMPI PUSH1 0x0 DUP1 REVERT JUMPDEST POP PUSH2 0x306 PUSH2 0x1957 JUMP JUMPDEST PUSH1 0x40 MLOAD PUSH2 0x17C SWAP2 SWAP1 PUSH2 0x3BE0 JUMP JUMPDEST PUSH2 0x1C0 PUSH2 0x321 CALLDATASIZE PUSH1 0x4 PUSH2 0x3C35 JUMP JUMPDEST PUSH2 0x1C53 JUMP JUMPDEST CALLVALUE DUP1 ISZERO PUSH2 0x332 JUMPI PUSH1 0x0 DUP1 REVERT JUMPDEST POP PUSH1 0x1 SLOAD PUSH1 0x2 SLOAD PUSH1 0x3 SLOAD PUSH1 0x4 SLOAD PUSH1 0x5 SLOAD PUSH1 0x6 SLOAD PUSH2 0x153 SWAP6 SWAP5 SWAP4 SWAP3 SWAP2 SWAP1 DUP7 JUMP JUMPDEST CALLVALUE DUP1 ISZERO PUSH2 0x35D JUMPI PUSH1 0x0 DUP1 REVERT JUMPDEST POP PUSH2 0x367 PUSH1 0x7 SLOAD DUP2 JUMP JUMPDEST PUSH1 0x40 MLOAD SWAP1 DUP2 MSTORE PUSH1 0x20 ADD PUSH2 0x17C JUMP JUMPDEST PUSH2 0x1C0 PUSH2 0x383 CALLDATASIZE PUSH1 0x4 PUSH2 0x3D08 JUMP JUMPDEST PUSH2 0x201C JUMP JUMPDEST CALLVALUE DUP1 ISZERO PUSH2 0x394 JUMPI PUSH1 0x0 DUP1 REVERT JUMPDEST POP PUSH2 0x1C0 PUSH2 0x3A3 CALLDATASIZE PUSH1 0x4 PUSH2 0x3701 JUMP JUMPDEST PUSH2 0x2812 JUMP JUMPDEST CALLVALUE DUP1 ISZERO PUSH2 0x3B4 JUMPI PUSH1 0x0 DUP1 REVERT JUMPDEST POP PUSH2 0x1C0 PUSH2 0x3C3 CALLDATASIZE PUSH1 0x4 PUSH2 0x3922 JUMP JUMPDEST PUSH1 0xD PUSH1 0x20 MSTORE PUSH1 0x0 SWAP1 DUP2 MSTORE PUSH1 0x40 SWAP1 KECCAK256 SLOAD PUSH1 0xFF AND DUP2 JUMP JUMPDEST CALLVALUE DUP1 ISZERO PUSH2 0x3E4 JUMPI PUSH1 0x0 DUP1 REVERT JUMPDEST POP PUSH2 0x1C0 PUSH2 0x3F3 CALLDATASIZE PUSH1 0x4 PUSH2 0x3922 JUMP JUMPDEST PUSH2 0x2F27 JUMP JUMPDEST PUSH1 0x2 SLOAD PUSH1 0x60 SWAP1 PUSH8 0xFFFFFFFFFFFFFFFF DUP2 GT ISZERO PUSH2 0x416 JUMPI PUSH2 0x416 PUSH2 0x3A85 JUMP JUMPDEST PUSH1 0x40 MLOAD SWAP1 DUP1 DUP3 MSTORE DUP1 PUSH1 0x20 MUL PUSH1 0x20 ADD DUP3 ADD PUSH1 0x40 MSTORE DUP1 ISZERO PUSH2 0x44F JUMPI DUP2 PUSH1 0x20 ADD JUMPDEST PUSH2 0x43C PUSH2 0x35E9 JUMP JUMPDEST DUP2 MSTORE PUSH1 0x20 ADD SWAP1 PUSH1 0x1 SWAP1 SUB SWAP1 DUP2 PUSH2 0x434 JUMPI SWAP1 POP JUMPDEST POP SWAP1 POP PUSH1 0x0 JUMPDEST PUSH1 0x2 SLOAD DUP2 LT ISZERO PUSH2 0x858 JUMPI PUSH1 0x0 JUMPDEST PUSH1 0x0 DUP3 DUP2 MSTORE PUSH1 0xA PUSH1 0x20 MSTORE PUSH1 0x40 SWAP1 KECCAK256 SLOAD DUP2 LT ISZERO PUSH2 0x845 JUMPI PUSH1 0x0 DUP3 DUP2 MSTORE PUSH1 0xA PUSH1 0x20 MSTORE PUSH1 0x40 SWAP1 KECCAK256 DUP1 SLOAD DUP3 SWAP1 DUP2 LT PUSH2 0x498 JUMPI PUSH2 0x498 PUSH2 0x3DB5 JUMP JUMPDEST SWAP1 PUSH1 0x0 MSTORE PUSH1 0x20 PUSH1 0x0 KECCAK256 SWAP1 PUSH1 0xD MUL ADD PUSH1 0x40 MLOAD DUP1 PUSH2 0x1A0 ADD PUSH1 0x40 MSTORE SWAP1 DUP2 PUSH1 0x0 DUP3 ADD SLOAD DUP2 MSTORE PUSH1 0x20 ADD PUSH1 0x1 DUP3 ADD SLOAD DUP2 MSTORE PUSH1 0x20 ADD PUSH1 0x2 DUP3 ADD DUP1 SLOAD PUSH2 0x4D6 SWAP1 PUSH2 0x3DCB JUMP JUMPDEST DUP1 PUSH1 0x1F ADD PUSH1 0x20 DUP1 SWAP2 DIV MUL PUSH1 0x20 ADD PUSH1 0x40 MLOAD SWAP1 DUP2 ADD PUSH1 0x40 MSTORE DUP1 SWAP3 SWAP2 SWAP1 DUP2 DUP2 MSTORE PUSH1 0x20 ADD DUP3 DUP1 SLOAD PUSH2 0x502 SWAP1 PUSH2 0x3DCB JUMP JUMPDEST DUP1 ISZERO PUSH2 0x54F JUMPI DUP1 PUSH1 0x1F LT PUSH2 0x524 JUMPI PUSH2 0x100 DUP1 DUP4 SLOAD DIV MUL DUP4 MSTORE SWAP2 PUSH1 0x20 ADD SWAP2 PUSH2 0x54F JUMP JUMPDEST DUP3 ADD SWAP2 SWAP1 PUSH1 0x0 MSTORE PUSH1 0x20 PUSH1 0x0 KECCAK256 SWAP1 JUMPDEST DUP2 SLOAD DUP2 MSTORE SWAP1 PUSH1 0x1 ADD SWAP1 PUSH1 0x20 ADD DUP1 DUP4 GT PUSH2 0x532 JUMPI DUP3 SWAP1 SUB PUSH1 0x1F AND DUP3 ADD SWAP2 JUMPDEST POP POP POP POP POP DUP2 MSTORE PUSH1 0x20 ADD PUSH1 0x3 DUP3 ADD DUP1 SLOAD PUSH2 0x568 SWAP1 PUSH2 0x3DCB JUMP JUMPDEST DUP1 PUSH1 0x1F ADD PUSH1 0x20 DUP1 SWAP2 DIV MUL PUSH1 0x20 ADD PUSH1 0x40 MLOAD SWAP1 DUP2 ADD PUSH1 0x40 MSTORE DUP1 SWAP3 SWAP2 SWAP1 DUP2 DUP2 MSTORE PUSH1 0x20 ADD DUP3 DUP1 SLOAD PUSH2 0x594 SWAP1 PUSH2 0x3DCB JUMP JUMPDEST DUP1 ISZERO PUSH2 0x5E1 JUMPI DUP1 PUSH1 0x1F LT PUSH2 0x5B6 JUMPI PUSH2 0x100 DUP1 DUP4 SLOAD DIV MUL DUP4 MSTORE SWAP2 PUSH1 0x20 ADD SWAP2 PUSH2 0x5E1 JUMP JUMPDEST DUP3 ADD SWAP2 SWAP1 PUSH1 0x0 MSTORE PUSH1 0x20 PUSH1 0x0 KECCAK256 SWAP1 JUMPDEST DUP2 SLOAD DUP2 MSTORE SWAP1 PUSH1 0x1 ADD SWAP1 PUSH1 0x20 ADD DUP1 DUP4 GT PUSH2 0x5C4 JUMPI DUP3 SWAP1 SUB PUSH1 0x1F AND DUP3 ADD SWAP2 JUMPDEST POP POP POP POP POP DUP2 MSTORE PUSH1 0x20 ADD PUSH1 0x4 DUP3 ADD DUP1 SLOAD PUSH2 0x5FA SWAP1 PUSH2 0x3DCB JUMP JUMPDEST DUP1 PUSH1 0x1F ADD PUSH1 0x20 DUP1 SWAP2 DIV MUL PUSH1 0x20 ADD PUSH1 0x40 MLOAD SWAP1 DUP2 ADD PUSH1 0x40 MSTORE DUP1 SWAP3 SWAP2 SWAP1 DUP2 DUP2 MSTORE PUSH1 0x20 ADD DUP3 DUP1 SLOAD PUSH2 0x626 SWAP1 PUSH2 0x3DCB JUMP JUMPDEST DUP1 ISZERO PUSH2 0x673 JUMPI DUP1 PUSH1 0x1F LT PUSH2 0x648 JUMPI PUSH2 0x100 DUP1 DUP4 SLOAD DIV MUL DUP4 MSTORE SWAP2 PUSH1 0x20 ADD SWAP2 PUSH2 0x673 JUMP JUMPDEST DUP3 ADD SWAP2 SWAP1 PUSH1 0x0 MSTORE PUSH1 0x20 PUSH1 0x0 KECCAK256 SWAP1 JUMPDEST DUP2 SLOAD DUP2 MSTORE SWAP1 PUSH1 0x1 ADD SWAP1 PUSH1 0x20 ADD DUP1 DUP4 GT PUSH2 0x656 JUMPI DUP3 SWAP1 SUB PUSH1 0x1F AND DUP3 ADD SWAP2 JUMPDEST POP POP POP SWAP2 DUP4 MSTORE POP POP PUSH1 0x5 DUP3 ADD SLOAD PUSH1 0x1 PUSH1 0x1 PUSH1 0xA0 SHL SUB SWAP1 DUP2 AND PUSH1 0x20 DUP4 ADD MSTORE PUSH1 0x6 DUP4 ADD SLOAD AND PUSH1 0x40 DUP3 ADD MSTORE PUSH1 0x7 DUP3 ADD SLOAD PUSH1 0x60 DUP3 ADD MSTORE PUSH1 0x8 DUP3 ADD SLOAD PUSH1 0x80 DUP3 ADD MSTORE PUSH1 0x9 DUP3 ADD SLOAD PUSH1 0xA0 DUP3 ADD MSTORE PUSH1 0xA DUP3 ADD DUP1 SLOAD PUSH1 0xC0 SWAP1 SWAP3 ADD SWAP2 PUSH2 0x6CE SWAP1 PUSH2 0x3DCB JUMP JUMPDEST DUP1 PUSH1 0x1F ADD PUSH1 0x20 DUP1 SWAP2 DIV MUL PUSH1 0x20 ADD PUSH1 0x40 MLOAD SWAP1 DUP2 ADD PUSH1 0x40 MSTORE DUP1 SWAP3 SWAP2 SWAP1 DUP2 DUP2 MSTORE PUSH1 0x20 ADD DUP3 DUP1 SLOAD PUSH2 0x6FA SWAP1 PUSH2 0x3DCB JUMP JUMPDEST DUP1 ISZERO PUSH2 0x747 JUMPI DUP1 PUSH1 0x1F LT PUSH2 0x71C JUMPI PUSH2 0x100 DUP1 DUP4 SLOAD DIV MUL DUP4 MSTORE SWAP2 PUSH1 0x20 ADD SWAP2 PUSH2 0x747 JUMP JUMPDEST DUP3 ADD SWAP2 SWAP1 PUSH1 0x0 MSTORE PUSH1 0x20 PUSH1 0x0 KECCAK256 SWAP1 JUMPDEST DUP2 SLOAD DUP2 MSTORE SWAP1 PUSH1 0x1 ADD SWAP1 PUSH1 0x20 ADD DUP1 DUP4 GT PUSH2 0x72A JUMPI DUP3 SWAP1 SUB PUSH1 0x1F AND DUP3 ADD SWAP2 JUMPDEST POP POP POP POP POP DUP2 MSTORE PUSH1 0x20 ADD PUSH1 0xB DUP3 ADD DUP1 SLOAD PUSH2 0x760 SWAP1 PUSH2 0x3DCB JUMP JUMPDEST DUP1 PUSH1 0x1F ADD PUSH1 0x20 DUP1 SWAP2 DIV MUL PUSH1 0x20 ADD PUSH1 0x40 MLOAD SWAP1 DUP2 ADD PUSH1 0x40 MSTORE DUP1 SWAP3 SWAP2 SWAP1 DUP2 DUP2 MSTORE PUSH1 0x20 ADD DUP3 DUP1 SLOAD PUSH2 0x78C SWAP1 PUSH2 0x3DCB JUMP JUMPDEST DUP1 ISZERO PUSH2 0x7D9 JUMPI DUP1 PUSH1 0x1F LT PUSH2 0x7AE JUMPI PUSH2 0x100 DUP1 DUP4 SLOAD DIV MUL DUP4 MSTORE SWAP2 PUSH1 0x20 ADD SWAP2 PUSH2 0x7D9 JUMP JUMPDEST DUP3 ADD SWAP2 SWAP1 PUSH1 0x0 MSTORE PUSH1 0x20 PUSH1 0x0 KECCAK256 SWAP1 JUMPDEST DUP2 SLOAD DUP2 MSTORE SWAP1 PUSH1 0x1 ADD SWAP1 PUSH1 0x20 ADD DUP1 DUP4 GT PUSH2 0x7BC JUMPI DUP3 SWAP1 SUB PUSH1 0x1F AND DUP3 ADD SWAP2 JUMPDEST POP POP POP SWAP2 DUP4 MSTORE POP POP PUSH1 0xC DUP3 ADD SLOAD PUSH1 0x20 SWAP1 SWAP2 ADD SWAP1 PUSH1 0xFF AND PUSH1 0x3 DUP2 GT ISZERO PUSH2 0x800 JUMPI PUSH2 0x800 PUSH2 0x3769 JUMP JUMPDEST PUSH1 0x3 DUP2 GT ISZERO PUSH2 0x811 JUMPI PUSH2 0x811 PUSH2 0x3769 JUMP JUMPDEST DUP2 MSTORE POP POP DUP4 DUP4 DUP2 MLOAD DUP2 LT PUSH2 0x827 JUMPI PUSH2 0x827 PUSH2 0x3DB5 JUMP JUMPDEST PUSH1 0x20 MUL PUSH1 0x20 ADD ADD DUP2 SWAP1 MSTORE POP DUP1 DUP1 PUSH2 0x83D SWAP1 PUSH2 0x3E1B JUMP JUMPDEST SWAP2 POP POP PUSH2 0x462 JUMP JUMPDEST POP DUP1 PUSH2 0x850 DUP2 PUSH2 0x3E1B JUMP JUMPDEST SWAP2 POP POP PUSH2 0x455 JUMP JUMPDEST POP SWAP1 JUMP JUMPDEST PUSH2 0x864 PUSH2 0x35E9 JUMP JUMPDEST PUSH1 0x0 DUP4 DUP2 MSTORE PUSH1 0xE PUSH1 0x20 SWAP1 DUP2 MSTORE PUSH1 0x40 DUP1 DUP4 KECCAK256 DUP6 DUP5 MSTORE SWAP1 SWAP2 MSTORE SWAP1 KECCAK256 SLOAD PUSH1 0xFF AND PUSH2 0x8A6 JUMPI PUSH1 0x40 MLOAD PUSH3 0x461BCD PUSH1 0xE5 SHL DUP2 MSTORE PUSH1 0x4 ADD PUSH2 0x89D SWAP1 PUSH2 0x3E34 JUMP JUMPDEST PUSH1 0x40 MLOAD DUP1 SWAP2 SUB SWAP1 REVERT JUMPDEST PUSH1 0x0 DUP4 DUP2 MSTORE PUSH1 0xA PUSH1 0x20 MSTORE PUSH1 0x40 SWAP1 KECCAK256 DUP1 SLOAD DUP4 SWAP1 DUP2 LT PUSH2 0x8C6 JUMPI PUSH2 0x8C6 PUSH2 0x3DB5 JUMP JUMPDEST SWAP1 PUSH1 0x0 MSTORE PUSH1 0x20 PUSH1 0x0 KECCAK256 SWAP1 PUSH1 0xD MUL ADD PUSH1 0x40 MLOAD DUP1 PUSH2 0x1A0 ADD PUSH1 0x40 MSTORE SWAP1 DUP2 PUSH1 0x0 DUP3 ADD SLOAD DUP2 MSTORE PUSH1 0x20 ADD PUSH1 0x1 DUP3 ADD SLOAD DUP2 MSTORE PUSH1 0x20 ADD PUSH1 0x2 DUP3 ADD DUP1 SLOAD PUSH2 0x904 SWAP1 PUSH2 0x3DCB JUMP JUMPDEST DUP1 PUSH1 0x1F ADD PUSH1 0x20 DUP1 SWAP2 DIV MUL PUSH1 0x20 ADD PUSH1 0x40 MLOAD SWAP1 DUP2 ADD PUSH1 0x40 MSTORE DUP1 SWAP3 SWAP2 SWAP1 DUP2 DUP2 MSTORE PUSH1 0x20 ADD DUP3 DUP1 SLOAD PUSH2 0x930 SWAP1 PUSH2 0x3DCB JUMP JUMPDEST DUP1 ISZERO PUSH2 0x97D JUMPI DUP1 PUSH1 0x1F LT PUSH2 0x952 JUMPI PUSH2 0x100 DUP1 DUP4 SLOAD DIV MUL DUP4 MSTORE SWAP2 PUSH1 0x20 ADD SWAP2 PUSH2 0x97D JUMP JUMPDEST DUP3 ADD SWAP2 SWAP1 PUSH1 0x0 MSTORE PUSH1 0x20 PUSH1 0x0 KECCAK256 SWAP1 JUMPDEST DUP2 SLOAD DUP2 MSTORE SWAP1 PUSH1 0x1 ADD SWAP1 PUSH1 0x20 ADD DUP1 DUP4 GT PUSH2 0x960 JUMPI DUP3 SWAP1 SUB PUSH1 0x1F AND DUP3 ADD SWAP2 JUMPDEST POP POP POP POP POP DUP2 MSTORE PUSH1 0x20 ADD PUSH1 0x3 DUP3 ADD DUP1 SLOAD PUSH2 0x996 SWAP1 PUSH2 0x3DCB JUMP JUMPDEST DUP1 PUSH1 0x1F ADD PUSH1 0x20 DUP1 SWAP2 DIV MUL PUSH1 0x20 ADD PUSH1 0x40 MLOAD SWAP1 DUP2 ADD PUSH1 0x40 MSTORE DUP1 SWAP3 SWAP2 SWAP1 DUP2 DUP2 MSTORE PUSH1 0x20 ADD DUP3 DUP1 SLOAD PUSH2 0x9C2 SWAP1 PUSH2 0x3DCB JUMP JUMPDEST DUP1 ISZERO PUSH2 0xA0F JUMPI DUP1 PUSH1 0x1F LT PUSH2 0x9E4 JUMPI PUSH2 0x100 DUP1 DUP4 SLOAD DIV MUL DUP4 MSTORE SWAP2 PUSH1 0x20 ADD SWAP2 PUSH2 0xA0F JUMP JUMPDEST DUP3 ADD SWAP2 SWAP1 PUSH1 0x0 MSTORE PUSH1 0x20 PUSH1 0x0 KECCAK256 SWAP1 JUMPDEST DUP2 SLOAD DUP2 MSTORE SWAP1 PUSH1 0x1 ADD SWAP1 PUSH1 0x20 ADD DUP1 DUP4 GT PUSH2 0x9F2 JUMPI DUP3 SWAP1 SUB PUSH1 0x1F AND DUP3 ADD SWAP2 JUMPDEST POP POP POP POP POP DUP2 MSTORE PUSH1 0x20 ADD PUSH1 0x4 DUP3 ADD DUP1 SLOAD PUSH2 0xA28 SWAP1 PUSH2 0x3DCB JUMP JUMPDEST DUP1 PUSH1 0x1F ADD PUSH1 0x20 DUP1 SWAP2 DIV MUL PUSH1 0x20 ADD PUSH1 0x40 MLOAD SWAP1 DUP2 ADD PUSH1 0x40 MSTORE DUP1 SWAP3 SWAP2 SWAP1 DUP2 DUP2 MSTORE PUSH1 0x20 ADD DUP3 DUP1 SLOAD PUSH2 0xA54 SWAP1 PUSH2 0x3DCB JUMP JUMPDEST DUP1 ISZERO PUSH2 0xAA1 JUMPI DUP1 PUSH1 0x1F LT PUSH2 0xA76 JUMPI PUSH2 0x100 DUP1 DUP4 SLOAD DIV MUL DUP4 MSTORE SWAP2 PUSH1 0x20 ADD SWAP2 PUSH2 0xAA1 JUMP JUMPDEST DUP3 ADD SWAP2 SWAP1 PUSH1 0x0 MSTORE PUSH1 0x20 PUSH1 0x0 KECCAK256 SWAP1 JUMPDEST DUP2 SLOAD DUP2 MSTORE SWAP1 PUSH1 0x1 ADD SWAP1 PUSH1 0x20 ADD DUP1 DUP4 GT PUSH2 0xA84 JUMPI DUP3 SWAP1 SUB PUSH1 0x1F AND DUP3 ADD SWAP2 JUMPDEST POP POP POP SWAP2 DUP4 MSTORE POP POP PUSH1 0x5 DUP3 ADD SLOAD PUSH1 0x1 PUSH1 0x1 PUSH1 0xA0 SHL SUB SWAP1 DUP2 AND PUSH1 0x20 DUP4 ADD MSTORE PUSH1 0x6 DUP4 ADD SLOAD AND PUSH1 0x40 DUP3 ADD MSTORE PUSH1 0x7 DUP3 ADD SLOAD PUSH1 0x60 DUP3 ADD MSTORE PUSH1 0x8 DUP3 ADD SLOAD PUSH1 0x80 DUP3 ADD MSTORE PUSH1 0x9 DUP3 ADD SLOAD PUSH1 0xA0 DUP3 ADD MSTORE PUSH1 0xA DUP3 ADD DUP1 SLOAD PUSH1 0xC0 SWAP1 SWAP3 ADD SWAP2 PUSH2 0xAFC SWAP1 PUSH2 0x3DCB JUMP JUMPDEST DUP1 PUSH1 0x1F ADD PUSH1 0x20 DUP1 SWAP2 DIV MUL PUSH1 0x20 ADD PUSH1 0x40 MLOAD SWAP1 DUP2 ADD PUSH1 0x40 MSTORE DUP1 SWAP3 SWAP2 SWAP1 DUP2 DUP2 MSTORE PUSH1 0x20 ADD DUP3 DUP1 SLOAD PUSH2 0xB28 SWAP1 PUSH2 0x3DCB JUMP JUMPDEST DUP1 ISZERO PUSH2 0xB75 JUMPI DUP1 PUSH1 0x1F LT PUSH2 0xB4A JUMPI PUSH2 0x100 DUP1 DUP4 SLOAD DIV MUL DUP4 MSTORE SWAP2 PUSH1 0x20 ADD SWAP2 PUSH2 0xB75 JUMP JUMPDEST DUP3 ADD SWAP2 SWAP1 PUSH1 0x0 MSTORE PUSH1 0x20 PUSH1 0x0 KECCAK256 SWAP1 JUMPDEST DUP2 SLOAD DUP2 MSTORE SWAP1 PUSH1 0x1 ADD SWAP1 PUSH1 0x20 ADD DUP1 DUP4 GT PUSH2 0xB58 JUMPI DUP3 SWAP1 SUB PUSH1 0x1F AND DUP3 ADD SWAP2 JUMPDEST POP POP POP POP POP DUP2 MSTORE PUSH1 0x20 ADD PUSH1 0xB DUP3 ADD DUP1 SLOAD PUSH2 0xB8E SWAP1 PUSH2 0x3DCB JUMP JUMPDEST DUP1 PUSH1 0x1F ADD PUSH1 0x20 DUP1 SWAP2 DIV MUL PUSH1 0x20 ADD PUSH1 0x40 MLOAD SWAP1 DUP2 ADD PUSH1 0x40 MSTORE DUP1 SWAP3 SWAP2 SWAP1 DUP2 DUP2 MSTORE PUSH1 0x20 ADD DUP3 DUP1 SLOAD PUSH2 0xBBA SWAP1 PUSH2 0x3DCB JUMP JUMPDEST DUP1 ISZERO PUSH2 0xC07 JUMPI DUP1 PUSH1 0x1F LT PUSH2 0xBDC JUMPI PUSH2 0x100 DUP1 DUP4 SLOAD DIV MUL DUP4 MSTORE SWAP2 PUSH1 0x20 ADD SWAP2 PUSH2 0xC07 JUMP JUMPDEST DUP3 ADD SWAP2 SWAP1 PUSH1 0x0 MSTORE PUSH1 0x20 PUSH1 0x0 KECCAK256 SWAP1 JUMPDEST DUP2 SLOAD DUP2 MSTORE SWAP1 PUSH1 0x1 ADD SWAP1 PUSH1 0x20 ADD DUP1 DUP4 GT PUSH2 0xBEA JUMPI DUP3 SWAP1 SUB PUSH1 0x1F AND DUP3 ADD SWAP2 JUMPDEST POP POP POP SWAP2 DUP4 MSTORE POP POP PUSH1 0xC DUP3 ADD SLOAD PUSH1 0x20 SWAP1 SWAP2 ADD SWAP1 PUSH1 0xFF AND PUSH1 0x3 DUP2 GT ISZERO PUSH2 0xC2E JUMPI PUSH2 0xC2E PUSH2 0x3769 JUMP JUMPDEST PUSH1 0x3 DUP2 GT ISZERO PUSH2 0xC3F JUMPI PUSH2 0xC3F PUSH2 0x3769 JUMP JUMPDEST SWAP1 MSTORE POP SWAP1 POP JUMPDEST SWAP3 SWAP2 POP POP JUMP JUMPDEST PUSH1 0x0 DUP2 DUP2 MSTORE PUSH1 0xD PUSH1 0x20 MSTORE PUSH1 0x40 SWAP1 KECCAK256 SLOAD PUSH1 0x60 SWAP1 PUSH1 0xFF AND PUSH2 0xCA5 JUMPI PUSH1 0x40 MLOAD PUSH3 0x461BCD PUSH1 0xE5 SHL DUP2 MSTORE PUSH1 0x20 PUSH1 0x4 DUP3 ADD MSTORE PUSH1 0x16 PUSH1 0x24 DUP3 ADD MSTORE PUSH22 0x141C9BD91D58DD08191BD95CC81B9BDD08195E1A5CDD PUSH1 0x52 SHL PUSH1 0x44 DUP3 ADD MSTORE PUSH1 0x64 ADD PUSH2 0x89D JUMP JUMPDEST PUSH1 0x0 DUP3 DUP2 MSTORE PUSH1 0xC PUSH1 0x20 SWAP1 DUP2 MSTORE PUSH1 0x40 DUP1 DUP4 KECCAK256 DUP1 SLOAD DUP3 MLOAD DUP2 DUP6 MUL DUP2 ADD DUP6 ADD SWAP1 SWAP4 MSTORE DUP1 DUP4 MSTORE SWAP2 SWAP4 SWAP1 SWAP3 DUP5 ADD JUMPDEST DUP3 DUP3 LT ISZERO PUSH2 0xD2B JUMPI PUSH1 0x0 DUP5 DUP2 MSTORE PUSH1 0x20 SWAP1 DUP2 SWAP1 KECCAK256 PUSH1 0x40 DUP1 MLOAD PUSH1 0x80 DUP2 ADD DUP3 MSTORE PUSH1 0x4 DUP7 MUL SWAP1 SWAP3 ADD DUP1 SLOAD PUSH1 0x1 PUSH1 0x1 PUSH1 0xA0 SHL SUB AND DUP4 MSTORE PUSH1 0x1 DUP1 DUP3 ADD SLOAD DUP5 DUP7 ADD MSTORE PUSH1 0x2 DUP3 ADD SLOAD SWAP3 DUP5 ADD SWAP3 SWAP1 SWAP3 MSTORE PUSH1 0x3 ADD SLOAD PUSH1 0x60 DUP4 ADD MSTORE SWAP1 DUP4 MSTORE SWAP1 SWAP3 ADD SWAP2 ADD PUSH2 0xCCE JUMP JUMPDEST POP POP POP POP SWAP1 POP SWAP2 SWAP1 POP JUMP JUMPDEST PUSH1 0x0 DUP3 DUP2 MSTORE PUSH1 0xE PUSH1 0x20 SWAP1 DUP2 MSTORE PUSH1 0x40 DUP1 DUP4 KECCAK256 DUP5 DUP5 MSTORE SWAP1 SWAP2 MSTORE DUP2 KECCAK256 SLOAD PUSH1 0xFF AND PUSH2 0xD6F JUMPI PUSH1 0x40 MLOAD PUSH3 0x461BCD PUSH1 0xE5 SHL DUP2 MSTORE PUSH1 0x4 ADD PUSH2 0x89D SWAP1 PUSH2 0x3E34 JUMP JUMPDEST PUSH1 0x0 DUP4 DUP2 MSTORE PUSH1 0xA PUSH1 0x20 MSTORE PUSH1 0x40 DUP2 KECCAK256 DUP1 SLOAD DUP5 SWAP1 DUP2 LT PUSH2 0xD8F JUMPI PUSH2 0xD8F PUSH2 0x3DB5 JUMP JUMPDEST SWAP1 PUSH1 0x0 MSTORE PUSH1 0x20 PUSH1 0x0 KECCAK256 SWAP1 PUSH1 0xD MUL ADD PUSH1 0x40 MLOAD DUP1 PUSH2 0x1A0 ADD PUSH1 0x40 MSTORE SWAP1 DUP2 PUSH1 0x0 DUP3 ADD SLOAD DUP2 MSTORE PUSH1 0x20 ADD PUSH1 0x1 DUP3 ADD SLOAD DUP2 MSTORE PUSH1 0x20 ADD PUSH1 0x2 DUP3 ADD DUP1 SLOAD PUSH2 0xDCD SWAP1 PUSH2 0x3DCB JUMP JUMPDEST DUP1 PUSH1 0x1F ADD PUSH1 0x20 DUP1 SWAP2 DIV MUL PUSH1 0x20 ADD PUSH1 0x40 MLOAD SWAP1 DUP2 ADD PUSH1 0x40 MSTORE DUP1 SWAP3 SWAP2 SWAP1 DUP2 DUP2 MSTORE PUSH1 0x20 ADD DUP3 DUP1 SLOAD PUSH2 0xDF9 SWAP1 PUSH2 0x3DCB JUMP JUMPDEST DUP1 ISZERO PUSH2 0xE46 JUMPI DUP1 PUSH1 0x1F LT PUSH2 0xE1B JUMPI PUSH2 0x100 DUP1 DUP4 SLOAD DIV MUL DUP4 MSTORE SWAP2 PUSH1 0x20 ADD SWAP2 PUSH2 0xE46 JUMP JUMPDEST DUP3 ADD SWAP2 SWAP1 PUSH1 0x0 MSTORE PUSH1 0x20 PUSH1 0x0 KECCAK256 SWAP1 JUMPDEST DUP2 SLOAD DUP2 MSTORE SWAP1 PUSH1 0x1 ADD SWAP1 PUSH1 0x20 ADD DUP1 DUP4 GT PUSH2 0xE29 JUMPI DUP3 SWAP1 SUB PUSH1 0x1F AND DUP3 ADD SWAP2 JUMPDEST POP POP POP POP POP DUP2 MSTORE PUSH1 0x20 ADD PUSH1 0x3 DUP3 ADD DUP1 SLOAD PUSH2 0xE5F SWAP1 PUSH2 0x3DCB JUMP JUMPDEST DUP1 PUSH1 0x1F ADD PUSH1 0x20 DUP1 SWAP2 DIV MUL PUSH1 0x20 ADD PUSH1 0x40 MLOAD SWAP1 DUP2 ADD PUSH1 0x40 MSTORE DUP1 SWAP3 SWAP2 SWAP1 DUP2 DUP2 MSTORE PUSH1 0x20 ADD DUP3 DUP1 SLOAD PUSH2 0xE8B SWAP1 PUSH2 0x3DCB JUMP JUMPDEST DUP1 ISZERO PUSH2 0xED8 JUMPI DUP1 PUSH1 0x1F LT PUSH2 0xEAD JUMPI PUSH2 0x100 DUP1 DUP4 SLOAD DIV MUL DUP4 MSTORE SWAP2 PUSH1 0x20 ADD SWAP2 PUSH2 0xED8 JUMP JUMPDEST DUP3 ADD SWAP2 SWAP1 PUSH1 0x0 MSTORE PUSH1 0x20 PUSH1 0x0 KECCAK256 SWAP1 JUMPDEST DUP2 SLOAD DUP2 MSTORE SWAP1 PUSH1 0x1 ADD SWAP1 PUSH1 0x20 ADD DUP1 DUP4 GT PUSH2 0xEBB JUMPI DUP3 SWAP1 SUB PUSH1 0x1F AND DUP3 ADD SWAP2 JUMPDEST POP POP POP POP POP DUP2 MSTORE PUSH1 0x20 ADD PUSH1 0x4 DUP3 ADD DUP1 SLOAD PUSH2 0xEF1 SWAP1 PUSH2 0x3DCB JUMP JUMPDEST DUP1 PUSH1 0x1F ADD PUSH1 0x20 DUP1 SWAP2 DIV MUL PUSH1 0x20 ADD PUSH1 0x40 MLOAD SWAP1 DUP2 ADD PUSH1 0x40 MSTORE DUP1 SWAP3 SWAP2 SWAP1 DUP2 DUP2 MSTORE PUSH1 0x20 ADD DUP3 DUP1 SLOAD PUSH2 0xF1D SWAP1 PUSH2 0x3DCB JUMP JUMPDEST DUP1 ISZERO PUSH2 0xF6A JUMPI DUP1 PUSH1 0x1F LT PUSH2 0xF3F JUMPI PUSH2 0x100 DUP1 DUP4 SLOAD DIV MUL DUP4 MSTORE SWAP2 PUSH1 0x20 ADD SWAP2 PUSH2 0xF6A JUMP JUMPDEST DUP3 ADD SWAP2 SWAP1 PUSH1 0x0 MSTORE PUSH1 0x20 PUSH1 0x0 KECCAK256 SWAP1 JUMPDEST DUP2 SLOAD DUP2 MSTORE SWAP1 PUSH1 0x1 ADD SWAP1 PUSH1 0x20 ADD DUP1 DUP4 GT PUSH2 0xF4D JUMPI DUP3 SWAP1 SUB PUSH1 0x1F AND DUP3 ADD SWAP2 JUMPDEST POP POP POP SWAP2 DUP4 MSTORE POP POP PUSH1 0x5 DUP3 ADD SLOAD PUSH1 0x1 PUSH1 0x1 PUSH1 0xA0 SHL SUB SWAP1 DUP2 AND PUSH1 0x20 DUP4 ADD MSTORE PUSH1 0x6 DUP4 ADD SLOAD AND PUSH1 0x40 DUP3 ADD MSTORE PUSH1 0x7 DUP3 ADD SLOAD PUSH1 0x60 DUP3 ADD MSTORE PUSH1 0x8 DUP3 ADD SLOAD PUSH1 0x80 DUP3 ADD MSTORE PUSH1 0x9 DUP3 ADD SLOAD PUSH1 0xA0 DUP3 ADD MSTORE PUSH1 0xA DUP3 ADD DUP1 SLOAD PUSH1 0xC0 SWAP1 SWAP3 ADD SWAP2 PUSH2 0xFC5 SWAP1 PUSH2 0x3DCB JUMP JUMPDEST DUP1 PUSH1 0x1F ADD PUSH1 0x20 DUP1 SWAP2 DIV MUL PUSH1 0x20 ADD PUSH1 0x40 MLOAD SWAP1 DUP2 ADD PUSH1 0x40 MSTORE DUP1 SWAP3 SWAP2 SWAP1 DUP2 DUP2 MSTORE PUSH1 0x20 ADD DUP3 DUP1 SLOAD PUSH2 0xFF1 SWAP1 PUSH2 0x3DCB JUMP JUMPDEST DUP1 ISZERO PUSH2 0x103E JUMPI DUP1 PUSH1 0x1F LT PUSH2 0x1013 JUMPI PUSH2 0x100 DUP1 DUP4 SLOAD DIV MUL DUP4 MSTORE SWAP2 PUSH1 0x20 ADD SWAP2 PUSH2 0x103E JUMP JUMPDEST DUP3 ADD SWAP2 SWAP1 PUSH1 0x0 MSTORE PUSH1 0x20 PUSH1 0x0 KECCAK256 SWAP1 JUMPDEST DUP2 SLOAD DUP2 MSTORE SWAP1 PUSH1 0x1 ADD SWAP1 PUSH1 0x20 ADD DUP1 DUP4 GT PUSH2 0x1021 JUMPI DUP3 SWAP1 SUB PUSH1 0x1F AND DUP3 ADD SWAP2 JUMPDEST POP POP POP POP POP DUP2 MSTORE PUSH1 0x20 ADD PUSH1 0xB DUP3 ADD DUP1 SLOAD PUSH2 0x1057 SWAP1 PUSH2 0x3DCB JUMP JUMPDEST DUP1 PUSH1 0x1F ADD PUSH1 0x20 DUP1 SWAP2 DIV MUL PUSH1 0x20 ADD PUSH1 0x40 MLOAD SWAP1 DUP2 ADD PUSH1 0x40 MSTORE DUP1 SWAP3 SWAP2 SWAP1 DUP2 DUP2 MSTORE PUSH1 0x20 ADD DUP3 DUP1 SLOAD PUSH2 0x1083 SWAP1 PUSH2 0x3DCB JUMP JUMPDEST DUP1 ISZERO PUSH2 0x10D0 JUMPI DUP1 PUSH1 0x1F LT PUSH2 0x10A5 JUMPI PUSH2 0x100 DUP1 DUP4 SLOAD DIV MUL DUP4 MSTORE SWAP2 PUSH1 0x20 ADD SWAP2 PUSH2 0x10D0 JUMP JUMPDEST DUP3 ADD SWAP2 SWAP1 PUSH1 0x0 MSTORE PUSH1 0x20 PUSH1 0x0 KECCAK256 SWAP1 JUMPDEST DUP2 SLOAD DUP2 MSTORE SWAP1 PUSH1 0x1 ADD SWAP1 PUSH1 0x20 ADD DUP1 DUP4 GT PUSH2 0x10B3 JUMPI DUP3 SWAP1 SUB PUSH1 0x1F AND DUP3 ADD SWAP2 JUMPDEST POP POP POP SWAP2 DUP4 MSTORE POP POP PUSH1 0xC DUP3 ADD SLOAD PUSH1 0x20 SWAP1 SWAP2 ADD SWAP1 PUSH1 0xFF AND PUSH1 0x3 DUP2 GT ISZERO PUSH2 0x10F7 JUMPI PUSH2 0x10F7 PUSH2 0x3769 JUMP JUMPDEST PUSH1 0x3 DUP2 GT ISZERO PUSH2 0x1108 JUMPI PUSH2 0x1108 PUSH2 0x3769 JUMP JUMPDEST SWAP1 MSTORE POP PUSH1 0xA0 DUP2 ADD MLOAD SWAP1 SWAP2 POP PUSH1 0x1 PUSH1 0x1 PUSH1 0xA0 SHL SUB AND CALLER EQ PUSH2 0x1160 JUMPI PUSH1 0x40 MLOAD PUSH3 0x461BCD PUSH1 0xE5 SHL DUP2 MSTORE PUSH1 0x20 PUSH1 0x4 DUP3 ADD MSTORE PUSH1 0x13 PUSH1 0x24 DUP3 ADD MSTORE PUSH19 0x556E617574686F72697A656420456E74697479 PUSH1 0x68 SHL PUSH1 0x44 DUP3 ADD MSTORE PUSH1 0x64 ADD PUSH2 0x89D JUMP JUMPDEST PUSH1 0x2 DUP2 PUSH2 0x180 ADD MLOAD PUSH1 0x3 DUP2 GT ISZERO PUSH2 0x1179 JUMPI PUSH2 0x1179 PUSH2 0x3769 JUMP JUMPDEST SUB PUSH2 0x11BF JUMPI PUSH1 0x40 MLOAD PUSH3 0x461BCD PUSH1 0xE5 SHL DUP2 MSTORE PUSH1 0x20 PUSH1 0x4 DUP3 ADD MSTORE PUSH1 0x16 PUSH1 0x24 DUP3 ADD MSTORE PUSH22 0x13DC99195C88185B1C9958591E4818D85B98D95B1959 PUSH1 0x52 SHL PUSH1 0x44 DUP3 ADD MSTORE PUSH1 0x64 ADD PUSH2 0x89D JUMP JUMPDEST PUSH1 0x2 PUSH2 0x180 DUP3 ADD MSTORE PUSH1 0xE0 DUP2 ADD MLOAD DUP2 MLOAD PUSH1 0x8 DUP1 SLOAD SWAP1 SWAP2 SWAP1 DUP2 LT PUSH2 0x11E3 JUMPI PUSH2 0x11E3 PUSH2 0x3DB5 JUMP JUMPDEST SWAP1 PUSH1 0x0 MSTORE PUSH1 0x20 PUSH1 0x0 KECCAK256 SWAP1 PUSH1 0xA MUL ADD PUSH1 0x9 ADD PUSH1 0x0 DUP3 DUP3 SLOAD PUSH2 0x1203 SWAP2 SWAP1 PUSH2 0x3E5D JUMP JUMPDEST SWAP1 SWAP2 SSTORE POP POP PUSH1 0x0 DUP5 DUP2 MSTORE PUSH1 0xA PUSH1 0x20 MSTORE PUSH1 0x40 SWAP1 KECCAK256 DUP1 SLOAD DUP3 SWAP2 SWAP1 DUP6 SWAP1 DUP2 LT PUSH2 0x122B JUMPI PUSH2 0x122B PUSH2 0x3DB5 JUMP JUMPDEST SWAP1 PUSH1 0x0 MSTORE PUSH1 0x20 PUSH1 0x0 KECCAK256 SWAP1 PUSH1 0xD MUL ADD PUSH1 0x0 DUP3 ADD MLOAD DUP2 PUSH1 0x0 ADD SSTORE PUSH1 0x20 DUP3 ADD MLOAD DUP2 PUSH1 0x1 ADD SSTORE PUSH1 0x40 DUP3 ADD MLOAD DUP2 PUSH1 0x2 ADD SWAP1 DUP2 PUSH2 0x1262 SWAP2 SWAP1 PUSH2 0x3EBE JUMP JUMPDEST POP PUSH1 0x60 DUP3 ADD MLOAD PUSH1 0x3 DUP3 ADD SWAP1 PUSH2 0x1277 SWAP1 DUP3 PUSH2 0x3EBE JUMP JUMPDEST POP PUSH1 0x80 DUP3 ADD MLOAD PUSH1 0x4 DUP3 ADD SWAP1 PUSH2 0x128C SWAP1 DUP3 PUSH2 0x3EBE JUMP JUMPDEST POP PUSH1 0xA0 DUP3 ADD MLOAD PUSH1 0x5 DUP3 ADD DUP1 SLOAD PUSH1 0x1 PUSH1 0x1 PUSH1 0xA0 SHL SUB SWAP3 DUP4 AND PUSH1 0x1 PUSH1 0x1 PUSH1 0xA0 SHL SUB NOT SWAP2 DUP3 AND OR SWAP1 SWAP2 SSTORE PUSH1 0xC0 DUP5 ADD MLOAD PUSH1 0x6 DUP5 ADD DUP1 SLOAD SWAP2 SWAP1 SWAP4 AND SWAP2 AND OR SWAP1 SSTORE PUSH1 0xE0 DUP3 ADD MLOAD PUSH1 0x7 DUP3 ADD SSTORE PUSH2 0x100 DUP3 ADD MLOAD PUSH1 0x8 DUP3 ADD SSTORE PUSH2 0x120 DUP3 ADD MLOAD PUSH1 0x9 DUP3 ADD SSTORE PUSH2 0x140 DUP3 ADD MLOAD PUSH1 0xA DUP3 ADD SWAP1 PUSH2 0x12FC SWAP1 DUP3 PUSH2 0x3EBE JUMP JUMPDEST POP PUSH2 0x160 DUP3 ADD MLOAD PUSH1 0xB DUP3 ADD SWAP1 PUSH2 0x1312 SWAP1 DUP3 PUSH2 0x3EBE JUMP JUMPDEST POP PUSH2 0x180 DUP3 ADD MLOAD PUSH1 0xC DUP3 ADD DUP1 SLOAD PUSH1 0xFF NOT AND PUSH1 0x1 DUP4 PUSH1 0x3 DUP2 GT ISZERO PUSH2 0x1337 JUMPI PUSH2 0x1337 PUSH2 0x3769 JUMP JUMPDEST MUL OR SWAP1 SSTORE POP SWAP1 POP POP PUSH2 0x1352 DUP2 PUSH1 0xA0 ADD MLOAD DUP3 PUSH2 0x100 ADD MLOAD PUSH2 0x2FE6 JUMP JUMPDEST POP PUSH1 0x1 SWAP4 SWAP3 POP POP POP JUMP JUMPDEST PUSH2 0x1364 PUSH2 0x3673 JUMP JUMPDEST PUSH1 0x0 DUP3 DUP2 MSTORE PUSH1 0xD PUSH1 0x20 MSTORE PUSH1 0x40 SWAP1 KECCAK256 SLOAD PUSH1 0xFF AND PUSH2 0x13B6 JUMPI PUSH1 0x40 MLOAD PUSH3 0x461BCD PUSH1 0xE5 SHL DUP2 MSTORE PUSH1 0x20 PUSH1 0x4 DUP3 ADD MSTORE PUSH1 0x11 PUSH1 0x24 DUP3 ADD MSTORE PUSH17 0x141C9BD91D58DD081B9BDD08199BDD5B99 PUSH1 0x7A SHL PUSH1 0x44 DUP3 ADD MSTORE PUSH1 0x64 ADD PUSH2 0x89D JUMP JUMPDEST PUSH1 0x8 DUP3 DUP2 SLOAD DUP2 LT PUSH2 0x13C9 JUMPI PUSH2 0x13C9 PUSH2 0x3DB5 JUMP JUMPDEST SWAP1 PUSH1 0x0 MSTORE PUSH1 0x20 PUSH1 0x0 KECCAK256 SWAP1 PUSH1 0xA MUL ADD PUSH1 0x40 MLOAD DUP1 PUSH2 0x140 ADD PUSH1 0x40 MSTORE SWAP1 DUP2 PUSH1 0x0 DUP3 ADD SLOAD DUP2 MSTORE PUSH1 0x20 ADD PUSH1 0x1 DUP3 ADD DUP1 SLOAD PUSH2 0x13FD SWAP1 PUSH2 0x3DCB JUMP JUMPDEST DUP1 PUSH1 0x1F ADD PUSH1 0x20 DUP1 SWAP2 DIV MUL PUSH1 0x20 ADD PUSH1 0x40 MLOAD SWAP1 DUP2 ADD PUSH1 0x40 MSTORE DUP1 SWAP3 SWAP2 SWAP1 DUP2 DUP2 MSTORE PUSH1 0x20 ADD DUP3 DUP1 SLOAD PUSH2 0x1429 SWAP1 PUSH2 0x3DCB JUMP JUMPDEST DUP1 ISZERO PUSH2 0x1476 JUMPI DUP1 PUSH1 0x1F LT PUSH2 0x144B JUMPI PUSH2 0x100 DUP1 DUP4 SLOAD DIV MUL DUP4 MSTORE SWAP2 PUSH1 0x20 ADD SWAP2 PUSH2 0x1476 JUMP JUMPDEST DUP3 ADD SWAP2 SWAP1 PUSH1 0x0 MSTORE PUSH1 0x20 PUSH1 0x0 KECCAK256 SWAP1 JUMPDEST DUP2 SLOAD DUP2 MSTORE SWAP1 PUSH1 0x1 ADD SWAP1 PUSH1 0x20 ADD DUP1 DUP4 GT PUSH2 0x1459 JUMPI DUP3 SWAP1 SUB PUSH1 0x1F AND DUP3 ADD SWAP2 JUMPDEST POP POP POP SWAP2 DUP4 MSTORE POP POP PUSH1 0x2 DUP3 ADD SLOAD PUSH1 0x1 PUSH1 0x1 PUSH1 0xA0 SHL SUB AND PUSH1 0x20 DUP3 ADD MSTORE PUSH1 0x3 DUP3 ADD DUP1 SLOAD PUSH1 0x40 SWAP1 SWAP3 ADD SWAP2 PUSH2 0x14A6 SWAP1 PUSH2 0x3DCB JUMP JUMPDEST DUP1 PUSH1 0x1F ADD PUSH1 0x20 DUP1 SWAP2 DIV MUL PUSH1 0x20 ADD PUSH1 0x40 MLOAD SWAP1 DUP2 ADD PUSH1 0x40 MSTORE DUP1 SWAP3 SWAP2 SWAP1 DUP2 DUP2 MSTORE PUSH1 0x20 ADD DUP3 DUP1 SLOAD PUSH2 0x14D2 SWAP1 PUSH2 0x3DCB JUMP JUMPDEST DUP1 ISZERO PUSH2 0x151F JUMPI DUP1 PUSH1 0x1F LT PUSH2 0x14F4 JUMPI PUSH2 0x100 DUP1 DUP4 SLOAD DIV MUL DUP4 MSTORE SWAP2 PUSH1 0x20 ADD SWAP2 PUSH2 0x151F JUMP JUMPDEST DUP3 ADD SWAP2 SWAP1 PUSH1 0x0 MSTORE PUSH1 0x20 PUSH1 0x0 KECCAK256 SWAP1 JUMPDEST DUP2 SLOAD DUP2 MSTORE SWAP1 PUSH1 0x1 ADD SWAP1 PUSH1 0x20 ADD DUP1 DUP4 GT PUSH2 0x1502 JUMPI DUP3 SWAP1 SUB PUSH1 0x1F AND DUP3 ADD SWAP2 JUMPDEST POP POP POP POP POP DUP2 MSTORE PUSH1 0x20 ADD PUSH1 0x4 DUP3 ADD DUP1 SLOAD PUSH2 0x1538 SWAP1 PUSH2 0x3DCB JUMP JUMPDEST DUP1 PUSH1 0x1F ADD PUSH1 0x20 DUP1 SWAP2 DIV MUL PUSH1 0x20 ADD PUSH1 0x40 MLOAD SWAP1 DUP2 ADD PUSH1 0x40 MSTORE DUP1 SWAP3 SWAP2 SWAP1 DUP2 DUP2 MSTORE PUSH1 0x20 ADD DUP3 DUP1 SLOAD PUSH2 0x1564 SWAP1 PUSH2 0x3DCB JUMP JUMPDEST DUP1 ISZERO PUSH2 0x15B1 JUMPI DUP1 PUSH1 0x1F LT PUSH2 0x1586 JUMPI PUSH2 0x100 DUP1 DUP4 SLOAD DIV MUL DUP4 MSTORE SWAP2 PUSH1 0x20 ADD SWAP2 PUSH2 0x15B1 JUMP JUMPDEST DUP3 ADD SWAP2 SWAP1 PUSH1 0x0 MSTORE PUSH1 0x20 PUSH1 0x0 KECCAK256 SWAP1 JUMPDEST DUP2 SLOAD DUP2 MSTORE SWAP1 PUSH1 0x1 ADD SWAP1 PUSH1 0x20 ADD DUP1 DUP4 GT PUSH2 0x1594 JUMPI DUP3 SWAP1 SUB PUSH1 0x1F AND DUP3 ADD SWAP2 JUMPDEST POP POP POP POP POP DUP2 MSTORE PUSH1 0x20 ADD PUSH1 0x5 DUP3 ADD DUP1 SLOAD PUSH2 0x15CA SWAP1 PUSH2 0x3DCB JUMP JUMPDEST DUP1 PUSH1 0x1F ADD PUSH1 0x20 DUP1 SWAP2 DIV MUL PUSH1 0x20 ADD PUSH1 0x40 MLOAD SWAP1 DUP2 ADD PUSH1 0x40 MSTORE DUP1 SWAP3 SWAP2 SWAP1 DUP2 DUP2 MSTORE PUSH1 0x20 ADD DUP3 DUP1 SLOAD PUSH2 0x15F6 SWAP1 PUSH2 0x3DCB JUMP JUMPDEST DUP1 ISZERO PUSH2 0x1643 JUMPI DUP1 PUSH1 0x1F LT PUSH2 0x1618 JUMPI PUSH2 0x100 DUP1 DUP4 SLOAD DIV MUL DUP4 MSTORE SWAP2 PUSH1 0x20 ADD SWAP2 PUSH2 0x1643 JUMP JUMPDEST DUP3 ADD SWAP2 SWAP1 PUSH1 0x0 MSTORE PUSH1 0x20 PUSH1 0x0 KECCAK256 SWAP1 JUMPDEST DUP2 SLOAD DUP2 MSTORE SWAP1 PUSH1 0x1 ADD SWAP1 PUSH1 0x20 ADD DUP1 DUP4 GT PUSH2 0x1626 JUMPI DUP3 SWAP1 SUB PUSH1 0x1F AND DUP3 ADD SWAP2 JUMPDEST POP POP POP SWAP2 DUP4 MSTORE POP POP PUSH1 0x6 DUP3 ADD SLOAD PUSH1 0x20 DUP3 ADD MSTORE PUSH1 0x7 DUP3 ADD SLOAD PUSH1 0x40 DUP3 ADD MSTORE PUSH1 0x8 DUP3 ADD SLOAD PUSH1 0xFF AND ISZERO ISZERO PUSH1 0x60 DUP3 ADD MSTORE PUSH1 0x9 SWAP1 SWAP2 ADD SLOAD PUSH1 0x80 SWAP1 SWAP2 ADD MSTORE SWAP3 SWAP2 POP POP JUMP JUMPDEST PUSH1 0x0 CALLER PUSH1 0x1 PUSH1 0x1 PUSH1 0xA0 SHL SUB AND PUSH1 0x8 DUP9 DUP2 SLOAD DUP2 LT PUSH2 0x169F JUMPI PUSH2 0x169F PUSH2 0x3DB5 JUMP JUMPDEST PUSH1 0x0 SWAP2 DUP3 MSTORE PUSH1 0x20 SWAP1 SWAP2 KECCAK256 PUSH1 0x2 PUSH1 0xA SWAP1 SWAP3 MUL ADD ADD SLOAD PUSH1 0x1 PUSH1 0x1 PUSH1 0xA0 SHL SUB AND EQ PUSH2 0x1700 JUMPI PUSH1 0x40 MLOAD PUSH3 0x461BCD PUSH1 0xE5 SHL DUP2 MSTORE PUSH1 0x20 PUSH1 0x4 DUP3 ADD MSTORE PUSH1 0x14 PUSH1 0x24 DUP3 ADD MSTORE PUSH20 0x155B985D5D1A1BDC9A5E994814195C9CDBDB995B PUSH1 0x62 SHL PUSH1 0x44 DUP3 ADD MSTORE PUSH1 0x64 ADD PUSH2 0x89D JUMP JUMPDEST PUSH1 0x0 DUP7 MLOAD GT PUSH2 0x1748 JUMPI PUSH1 0x40 MLOAD PUSH3 0x461BCD PUSH1 0xE5 SHL DUP2 MSTORE PUSH1 0x20 PUSH1 0x4 DUP3 ADD MSTORE PUSH1 0x14 PUSH1 0x24 DUP3 ADD MSTORE PUSH20 0x6E616D652063616E6E6F7420626520656D707479 PUSH1 0x60 SHL PUSH1 0x44 DUP3 ADD MSTORE PUSH1 0x64 ADD PUSH2 0x89D JUMP JUMPDEST PUSH1 0x0 DUP6 MLOAD GT PUSH2 0x1799 JUMPI PUSH1 0x40 MLOAD PUSH3 0x461BCD PUSH1 0xE5 SHL DUP2 MSTORE PUSH1 0x20 PUSH1 0x4 DUP3 ADD MSTORE PUSH1 0x1B PUSH1 0x24 DUP3 ADD MSTORE PUSH32 0x6465736372697074696F6E2063616E6E6F7420626520656D7074790000000000 PUSH1 0x44 DUP3 ADD MSTORE PUSH1 0x64 ADD PUSH2 0x89D JUMP JUMPDEST PUSH1 0x0 DUP4 GT PUSH2 0x17E0 JUMPI PUSH1 0x40 MLOAD PUSH3 0x461BCD PUSH1 0xE5 SHL DUP2 MSTORE PUSH1 0x20 PUSH1 0x4 DUP3 ADD MSTORE PUSH1 0x14 PUSH1 0x24 DUP3 ADD MSTORE PUSH20 0x70726963652063616E6E6F74206265207A65726F PUSH1 0x60 SHL PUSH1 0x44 DUP3 ADD MSTORE PUSH1 0x64 ADD PUSH2 0x89D JUMP JUMPDEST PUSH1 0x0 DUP3 GT PUSH2 0x1827 JUMPI PUSH1 0x40 MLOAD PUSH3 0x461BCD PUSH1 0xE5 SHL DUP2 MSTORE PUSH1 0x20 PUSH1 0x4 DUP3 ADD MSTORE PUSH1 0x14 PUSH1 0x24 DUP3 ADD MSTORE PUSH20 0x73746F636B2063616E6E6F74206265207A65726F PUSH1 0x60 SHL PUSH1 0x44 DUP3 ADD MSTORE PUSH1 0x64 ADD PUSH2 0x89D JUMP JUMPDEST PUSH2 0x182F PUSH2 0x3673 JUMP JUMPDEST DUP8 DUP2 MSTORE CALLER PUSH1 0x40 DUP3 ADD MSTORE PUSH1 0x60 DUP2 ADD DUP8 SWAP1 MSTORE PUSH1 0x80 DUP2 ADD DUP6 SWAP1 MSTORE PUSH1 0xA0 DUP2 ADD DUP7 SWAP1 MSTORE PUSH1 0xC0 DUP2 ADD DUP5 SWAP1 MSTORE PUSH2 0x120 DUP2 ADD DUP4 SWAP1 MSTORE PUSH1 0x8 DUP1 SLOAD DUP3 SWAP2 SWAP1 DUP11 SWAP1 DUP2 LT PUSH2 0x1873 JUMPI PUSH2 0x1873 PUSH2 0x3DB5 JUMP JUMPDEST SWAP1 PUSH1 0x0 MSTORE PUSH1 0x20 PUSH1 0x0 KECCAK256 SWAP1 PUSH1 0xA MUL ADD PUSH1 0x0 DUP3 ADD MLOAD DUP2 PUSH1 0x0 ADD SSTORE PUSH1 0x20 DUP3 ADD MLOAD DUP2 PUSH1 0x1 ADD SWAP1 DUP2 PUSH2 0x18A0 SWAP2 SWAP1 PUSH2 0x3EBE JUMP JUMPDEST POP PUSH1 0x40 DUP3 ADD MLOAD PUSH1 0x2 DUP3 ADD DUP1 SLOAD PUSH1 0x1 PUSH1 0x1 PUSH1 0xA0 SHL SUB NOT AND PUSH1 0x1 PUSH1 0x1 PUSH1 0xA0 SHL SUB SWAP1 SWAP3 AND SWAP2 SWAP1 SWAP2 OR SWAP1 SSTORE PUSH1 0x60 DUP3 ADD MLOAD PUSH1 0x3 DUP3 ADD SWAP1 PUSH2 0x18DB SWAP1 DUP3 PUSH2 0x3EBE JUMP JUMPDEST POP PUSH1 0x80 DUP3 ADD MLOAD PUSH1 0x4 DUP3 ADD SWAP1 PUSH2 0x18F0 SWAP1 DUP3 PUSH2 0x3EBE JUMP JUMPDEST POP PUSH1 0xA0 DUP3 ADD MLOAD PUSH1 0x5 DUP3 ADD SWAP1 PUSH2 0x1905 SWAP1 DUP3 PUSH2 0x3EBE JUMP JUMPDEST POP PUSH1 0xC0 DUP3 ADD MLOAD PUSH1 0x6 DUP3 ADD SSTORE PUSH1 0xE0 DUP3 ADD MLOAD PUSH1 0x7 DUP3 ADD SSTORE PUSH2 0x100 DUP3 ADD MLOAD PUSH1 0x8 DUP3 ADD DUP1 SLOAD PUSH1 0xFF NOT AND SWAP2 ISZERO ISZERO SWAP2 SWAP1 SWAP2 OR SWAP1 SSTORE PUSH2 0x120 SWAP1 SWAP2 ADD MLOAD PUSH1 0x9 SWAP1 SWAP2 ADD SSTORE PUSH2 0x1949 DUP2 PUSH2 0x304B JUMP JUMPDEST POP PUSH1 0x1 SWAP8 SWAP7 POP POP POP POP POP POP POP JUMP JUMPDEST PUSH1 0x60 PUSH1 0x8 DUP1 SLOAD DUP1 PUSH1 0x20 MUL PUSH1 0x20 ADD PUSH1 0x40 MLOAD SWAP1 DUP2 ADD PUSH1 0x40 MSTORE DUP1 SWAP3 SWAP2 SWAP1 DUP2 DUP2 MSTORE PUSH1 0x20 ADD PUSH1 0x0 SWAP1 JUMPDEST DUP3 DUP3 LT ISZERO PUSH2 0x1C4A JUMPI DUP4 DUP3 SWAP1 PUSH1 0x0 MSTORE PUSH1 0x20 PUSH1 0x0 KECCAK256 SWAP1 PUSH1 0xA MUL ADD PUSH1 0x40 MLOAD DUP1 PUSH2 0x140 ADD PUSH1 0x40 MSTORE SWAP1 DUP2 PUSH1 0x0 DUP3 ADD SLOAD DUP2 MSTORE PUSH1 0x20 ADD PUSH1 0x1 DUP3 ADD DUP1 SLOAD PUSH2 0x19B9 SWAP1 PUSH2 0x3DCB JUMP JUMPDEST DUP1 PUSH1 0x1F ADD PUSH1 0x20 DUP1 SWAP2 DIV MUL PUSH1 0x20 ADD PUSH1 0x40 MLOAD SWAP1 DUP2 ADD PUSH1 0x40 MSTORE DUP1 SWAP3 SWAP2 SWAP1 DUP2 DUP2 MSTORE PUSH1 0x20 ADD DUP3 DUP1 SLOAD PUSH2 0x19E5 SWAP1 PUSH2 0x3DCB JUMP JUMPDEST DUP1 ISZERO PUSH2 0x1A32 JUMPI DUP1 PUSH1 0x1F LT PUSH2 0x1A07 JUMPI PUSH2 0x100 DUP1 DUP4 SLOAD DIV MUL DUP4 MSTORE SWAP2 PUSH1 0x20 ADD SWAP2 PUSH2 0x1A32 JUMP JUMPDEST DUP3 ADD SWAP2 SWAP1 PUSH1 0x0 MSTORE PUSH1 0x20 PUSH1 0x0 KECCAK256 SWAP1 JUMPDEST DUP2 SLOAD DUP2 MSTORE SWAP1 PUSH1 0x1 ADD SWAP1 PUSH1 0x20 ADD DUP1 DUP4 GT PUSH2 0x1A15 JUMPI DUP3 SWAP1 SUB PUSH1 0x1F AND DUP3 ADD SWAP2 JUMPDEST POP POP POP SWAP2 DUP4 MSTORE POP POP PUSH1 0x2 DUP3 ADD SLOAD PUSH1 0x1 PUSH1 0x1 PUSH1 0xA0 SHL SUB AND PUSH1 0x20 DUP3 ADD MSTORE PUSH1 0x3 DUP3 ADD DUP1 SLOAD PUSH1 0x40 SWAP1 SWAP3 ADD SWAP2 PUSH2 0x1A62 SWAP1 PUSH2 0x3DCB JUMP JUMPDEST DUP1 PUSH1 0x1F ADD PUSH1 0x20 DUP1 SWAP2 DIV MUL PUSH1 0x20 ADD PUSH1 0x40 MLOAD SWAP1 DUP2 ADD PUSH1 0x40 MSTORE DUP1 SWAP3 SWAP2 SWAP1 DUP2 DUP2 MSTORE PUSH1 0x20 ADD DUP3 DUP1 SLOAD PUSH2 0x1A8E SWAP1 PUSH2 0x3DCB JUMP JUMPDEST DUP1 ISZERO PUSH2 0x1ADB JUMPI DUP1 PUSH1 0x1F LT PUSH2 0x1AB0 JUMPI PUSH2 0x100 DUP1 DUP4 SLOAD DIV MUL DUP4 MSTORE SWAP2 PUSH1 0x20 ADD SWAP2 PUSH2 0x1ADB JUMP JUMPDEST DUP3 ADD SWAP2 SWAP1 PUSH1 0x0 MSTORE PUSH1 0x20 PUSH1 0x0 KECCAK256 SWAP1 JUMPDEST DUP2 SLOAD DUP2 MSTORE SWAP1 PUSH1 0x1 ADD SWAP1 PUSH1 0x20 ADD DUP1 DUP4 GT PUSH2 0x1ABE JUMPI DUP3 SWAP1 SUB PUSH1 0x1F AND DUP3 ADD SWAP2 JUMPDEST POP POP POP POP POP DUP2 MSTORE PUSH1 0x20 ADD PUSH1 0x4 DUP3 ADD DUP1 SLOAD PUSH2 0x1AF4 SWAP1 PUSH2 0x3DCB JUMP JUMPDEST DUP1 PUSH1 0x1F ADD PUSH1 0x20 DUP1 SWAP2 DIV MUL PUSH1 0x20 ADD PUSH1 0x40 MLOAD SWAP1 DUP2 ADD PUSH1 0x40 MSTORE DUP1 SWAP3 SWAP2 SWAP1 DUP2 DUP2 MSTORE PUSH1 0x20 ADD DUP3 DUP1 SLOAD PUSH2 0x1B20 SWAP1 PUSH2 0x3DCB JUMP JUMPDEST DUP1 ISZERO PUSH2 0x1B6D JUMPI DUP1 PUSH1 0x1F LT PUSH2 0x1B42 JUMPI PUSH2 0x100 DUP1 DUP4 SLOAD DIV MUL DUP4 MSTORE SWAP2 PUSH1 0x20 ADD SWAP2 PUSH2 0x1B6D JUMP JUMPDEST DUP3 ADD SWAP2 SWAP1 PUSH1 0x0 MSTORE PUSH1 0x20 PUSH1 0x0 KECCAK256 SWAP1 JUMPDEST DUP2 SLOAD DUP2 MSTORE SWAP1 PUSH1 0x1 ADD SWAP1 PUSH1 0x20 ADD DUP1 DUP4 GT PUSH2 0x1B50 JUMPI DUP3 SWAP1 SUB PUSH1 0x1F AND DUP3 ADD SWAP2 JUMPDEST POP POP POP POP POP DUP2 MSTORE PUSH1 0x20 ADD PUSH1 0x5 DUP3 ADD DUP1 SLOAD PUSH2 0x1B86 SWAP1 PUSH2 0x3DCB JUMP JUMPDEST DUP1 PUSH1 0x1F ADD PUSH1 0x20 DUP1 SWAP2 DIV MUL PUSH1 0x20 ADD PUSH1 0x40 MLOAD SWAP1 DUP2 ADD PUSH1 0x40 MSTORE DUP1 SWAP3 SWAP2 SWAP1 DUP2 DUP2 MSTORE PUSH1 0x20 ADD DUP3 DUP1 SLOAD PUSH2 0x1BB2 SWAP1 PUSH2 0x3DCB JUMP JUMPDEST DUP1 ISZERO PUSH2 0x1BFF JUMPI DUP1 PUSH1 0x1F LT PUSH2 0x1BD4 JUMPI PUSH2 0x100 DUP1 DUP4 SLOAD DIV MUL DUP4 MSTORE SWAP2 PUSH1 0x20 ADD SWAP2 PUSH2 0x1BFF JUMP JUMPDEST DUP3 ADD SWAP2 SWAP1 PUSH1 0x0 MSTORE PUSH1 0x20 PUSH1 0x0 KECCAK256 SWAP1 JUMPDEST DUP2 SLOAD DUP2 MSTORE SWAP1 PUSH1 0x1 ADD SWAP1 PUSH1 0x20 ADD DUP1 DUP4 GT PUSH2 0x1BE2 JUMPI DUP3 SWAP1 SUB PUSH1 0x1F AND DUP3 ADD SWAP2 JUMPDEST POP POP POP SWAP2 DUP4 MSTORE POP POP PUSH1 0x6 DUP3 ADD SLOAD PUSH1 0x20 DUP1 DUP4 ADD SWAP2 SWAP1 SWAP2 MSTORE PUSH1 0x7 DUP4 ADD SLOAD PUSH1 0x40 DUP4 ADD MSTORE PUSH1 0x8 DUP4 ADD SLOAD PUSH1 0xFF AND ISZERO ISZERO PUSH1 0x60 DUP4 ADD MSTORE PUSH1 0x9 SWAP1 SWAP3 ADD SLOAD PUSH1 0x80 SWAP1 SWAP2 ADD MSTORE SWAP1 DUP3 MSTORE PUSH1 0x1 SWAP3 SWAP1 SWAP3 ADD SWAP2 ADD PUSH2 0x197B JUMP JUMPDEST POP POP POP POP SWAP1 POP SWAP1 JUMP JUMPDEST PUSH1 0x0 PUSH1 0x7 SLOAD CALLVALUE LT ISZERO PUSH2 0x1C9B JUMPI PUSH1 0x40 MLOAD PUSH3 0x461BCD PUSH1 0xE5 SHL DUP2 MSTORE PUSH1 0x20 PUSH1 0x4 DUP3 ADD MSTORE PUSH1 0x11 PUSH1 0x24 DUP3 ADD MSTORE PUSH17 0x125B9CDD59999A58DA595B9D08199D5B99 PUSH1 0x7A SHL PUSH1 0x44 DUP3 ADD MSTORE PUSH1 0x64 ADD PUSH2 0x89D JUMP JUMPDEST PUSH1 0x0 DUP8 MLOAD GT PUSH2 0x1CE2 JUMPI PUSH1 0x40 MLOAD PUSH3 0x461BCD PUSH1 0xE5 SHL DUP2 MSTORE PUSH1 0x20 PUSH1 0x4 DUP3 ADD MSTORE PUSH1 0x13 PUSH1 0x24 DUP3 ADD MSTORE PUSH19 0x736B752063616E6E6F7420626520656D707479 PUSH1 0x68 SHL PUSH1 0x44 DUP3 ADD MSTORE PUSH1 0x64 ADD PUSH2 0x89D JUMP JUMPDEST PUSH1 0x0 DUP7 MLOAD GT PUSH2 0x1D2A JUMPI PUSH1 0x40 MLOAD PUSH3 0x461BCD PUSH1 0xE5 SHL DUP2 MSTORE PUSH1 0x20 PUSH1 0x4 DUP3 ADD MSTORE PUSH1 0x14 PUSH1 0x24 DUP3 ADD MSTORE PUSH20 0x6E616D652063616E6E6F7420626520656D707479 PUSH1 0x60 SHL PUSH1 0x44 DUP3 ADD MSTORE PUSH1 0x64 ADD PUSH2 0x89D JUMP JUMPDEST PUSH1 0x0 DUP6 MLOAD GT PUSH2 0x1D7B JUMPI PUSH1 0x40 MLOAD PUSH3 0x461BCD PUSH1 0xE5 SHL DUP2 MSTORE PUSH1 0x20 PUSH1 0x4 DUP3 ADD MSTORE PUSH1 0x1B PUSH1 0x24 DUP3 ADD MSTORE PUSH32 0x6465736372697074696F6E2063616E6E6F7420626520656D7074790000000000 PUSH1 0x44 DUP3 ADD MSTORE PUSH1 0x64 ADD PUSH2 0x89D JUMP JUMPDEST PUSH1 0x0 DUP5 MLOAD GT PUSH2 0x1DCC JUMPI PUSH1 0x40 MLOAD PUSH3 0x461BCD PUSH1 0xE5 SHL DUP2 MSTORE PUSH1 0x20 PUSH1 0x4 DUP3 ADD MSTORE PUSH1 0x19 PUSH1 0x24 DUP3 ADD MSTORE PUSH32 0x696D6167652055524C2063616E6E6F7420626520656D70747900000000000000 PUSH1 0x44 DUP3 ADD MSTORE PUSH1 0x64 ADD PUSH2 0x89D JUMP JUMPDEST PUSH1 0x0 DUP4 GT PUSH2 0x1E13 JUMPI PUSH1 0x40 MLOAD PUSH3 0x461BCD PUSH1 0xE5 SHL DUP2 MSTORE PUSH1 0x20 PUSH1 0x4 DUP3 ADD MSTORE PUSH1 0x14 PUSH1 0x24 DUP3 ADD MSTORE PUSH20 0x70726963652063616E6E6F74206265207A65726F PUSH1 0x60 SHL PUSH1 0x44 DUP3 ADD MSTORE PUSH1 0x64 ADD PUSH2 0x89D JUMP JUMPDEST PUSH1 0x0 DUP3 GT PUSH2 0x1E5A JUMPI PUSH1 0x40 MLOAD PUSH3 0x461BCD PUSH1 0xE5 SHL DUP2 MSTORE PUSH1 0x20 PUSH1 0x4 DUP3 ADD MSTORE PUSH1 0x14 PUSH1 0x24 DUP3 ADD MSTORE PUSH20 0x73746F636B2063616E6E6F74206265207A65726F PUSH1 0x60 SHL PUSH1 0x44 DUP3 ADD MSTORE PUSH1 0x64 ADD PUSH2 0x89D JUMP JUMPDEST PUSH1 0x1 DUP1 SLOAD PUSH1 0x0 SWAP1 DUP2 MSTORE PUSH1 0xD PUSH1 0x20 SWAP1 DUP2 MSTORE PUSH1 0x40 DUP1 DUP4 KECCAK256 DUP1 SLOAD PUSH1 0xFF NOT AND SWAP1 SWAP5 OR SWAP1 SWAP4 SSTORE CALLER DUP3 MSTORE PUSH1 0xB SWAP1 MSTORE SWAP1 DUP2 KECCAK256 DUP1 SLOAD SWAP2 PUSH2 0x1E91 DUP4 PUSH2 0x3E1B JUMP JUMPDEST SWAP1 SWAP2 SSTORE POP POP PUSH1 0x3 DUP1 SLOAD SWAP1 PUSH1 0x0 PUSH2 0x1EA6 DUP4 PUSH2 0x3E1B JUMP JUMPDEST SWAP2 SWAP1 POP SSTORE POP PUSH2 0x1EB3 PUSH2 0x3673 JUMP JUMPDEST PUSH1 0x1 DUP1 SLOAD SWAP1 PUSH1 0x0 PUSH2 0x1EC3 DUP4 PUSH2 0x3E1B JUMP JUMPDEST SWAP1 SWAP2 SSTORE POP DUP2 MSTORE PUSH1 0x20 DUP2 ADD DUP9 DUP2 MSTORE CALLER PUSH1 0x40 DUP4 ADD MSTORE PUSH1 0x60 DUP3 ADD DUP9 SWAP1 MSTORE PUSH1 0x80 DUP3 ADD DUP7 SWAP1 MSTORE PUSH1 0xA0 DUP3 ADD DUP8 SWAP1 MSTORE PUSH1 0xC0 DUP3 ADD DUP6 SWAP1 MSTORE PUSH2 0x120 DUP3 ADD DUP5 SWAP1 MSTORE TIMESTAMP PUSH1 0xE0 DUP4 ADD MSTORE PUSH1 0x8 DUP1 SLOAD PUSH1 0x1 DUP2 ADD DUP3 SSTORE PUSH1 0x0 SWAP2 SWAP1 SWAP2 MSTORE DUP3 MLOAD PUSH1 0xA SWAP1 SWAP2 MUL PUSH32 0xF3F7A9FE364FAAB93B216DA50A3214154F22A0A2B415B23A84C8169E8B636EE3 DUP2 ADD SWAP2 DUP3 SSTORE SWAP2 MLOAD DUP4 SWAP3 PUSH32 0xF3F7A9FE364FAAB93B216DA50A3214154F22A0A2B415B23A84C8169E8B636EE4 ADD SWAP1 PUSH2 0x1F6E SWAP1 DUP3 PUSH2 0x3EBE JUMP JUMPDEST POP PUSH1 0x40 DUP3 ADD MLOAD PUSH1 0x2 DUP3 ADD DUP1 SLOAD PUSH1 0x1 PUSH1 0x1 PUSH1 0xA0 SHL SUB NOT AND PUSH1 0x1 PUSH1 0x1 PUSH1 0xA0 SHL SUB SWAP1 SWAP3 AND SWAP2 SWAP1 SWAP2 OR SWAP1 SSTORE PUSH1 0x60 DUP3 ADD MLOAD PUSH1 0x3 DUP3 ADD SWAP1 PUSH2 0x1FA9 SWAP1 DUP3 PUSH2 0x3EBE JUMP JUMPDEST POP PUSH1 0x80 DUP3 ADD MLOAD PUSH1 0x4 DUP3 ADD SWAP1 PUSH2 0x1FBE SWAP1 DUP3 PUSH2 0x3EBE JUMP JUMPDEST POP PUSH1 0xA0 DUP3 ADD MLOAD PUSH1 0x5 DUP3 ADD SWAP1 PUSH2 0x1FD3 SWAP1 DUP3 PUSH2 0x3EBE JUMP JUMPDEST POP PUSH1 0xC0 DUP3 ADD MLOAD PUSH1 0x6 DUP3 ADD SSTORE PUSH1 0xE0 DUP3 ADD MLOAD PUSH1 0x7 DUP3 ADD SSTORE PUSH2 0x100 DUP3 ADD MLOAD PUSH1 0x8 DUP3 ADD DUP1 SLOAD PUSH1 0xFF NOT AND SWAP2 ISZERO ISZERO SWAP2 SWAP1 SWAP2 OR SWAP1 SSTORE PUSH2 0x120 SWAP1 SWAP2 ADD MLOAD PUSH1 0x9 SWAP1 SWAP2 ADD SSTORE POP PUSH1 0x1 SWAP8 SWAP7 POP POP POP POP POP POP POP JUMP JUMPDEST PUSH1 0x0 PUSH2 0x2028 DUP6 DUP6 PUSH2 0x356B JUMP JUMPDEST CALLVALUE LT ISZERO PUSH2 0x206D JUMPI PUSH1 0x40 MLOAD PUSH3 0x461BCD PUSH1 0xE5 SHL DUP2 MSTORE PUSH1 0x20 PUSH1 0x4 DUP3 ADD MSTORE PUSH1 0x13 PUSH1 0x24 DUP3 ADD MSTORE PUSH19 0x125B9CDD59999A58DA595B9D08185B5BDD5B9D PUSH1 0x6A SHL PUSH1 0x44 DUP3 ADD MSTORE PUSH1 0x64 ADD PUSH2 0x89D JUMP JUMPDEST PUSH1 0x0 DUP4 MLOAD GT PUSH2 0x20BE JUMPI PUSH1 0x40 MLOAD PUSH3 0x461BCD PUSH1 0xE5 SHL DUP2 MSTORE PUSH1 0x20 PUSH1 0x4 DUP3 ADD MSTORE PUSH1 0x1B PUSH1 0x24 DUP3 ADD MSTORE PUSH32 0x64657374696E6174696F6E2063616E6E6F7420626520656D7074790000000000 PUSH1 0x44 DUP3 ADD MSTORE PUSH1 0x64 ADD PUSH2 0x89D JUMP JUMPDEST PUSH1 0x0 DUP3 MLOAD GT PUSH2 0x2107 JUMPI PUSH1 0x40 MLOAD PUSH3 0x461BCD PUSH1 0xE5 SHL DUP2 MSTORE PUSH1 0x20 PUSH1 0x4 DUP3 ADD MSTORE PUSH1 0x15 PUSH1 0x24 DUP3 ADD MSTORE PUSH21 0x70686F6E652063616E6E6F7420626520656D707479 PUSH1 0x58 SHL PUSH1 0x44 DUP3 ADD MSTORE PUSH1 0x64 ADD PUSH2 0x89D JUMP JUMPDEST PUSH2 0x2111 DUP6 DUP6 PUSH2 0x356B JUMP JUMPDEST PUSH1 0x6 DUP1 SLOAD PUSH1 0x0 SWAP1 PUSH2 0x2123 SWAP1 DUP5 SWAP1 PUSH2 0x3E5D JUMP JUMPDEST SWAP1 SWAP2 SSTORE POP PUSH1 0x0 SWAP1 POP JUMPDEST DUP6 MLOAD DUP2 LT ISZERO PUSH2 0x2806 JUMPI PUSH1 0xD PUSH1 0x0 DUP8 DUP4 DUP2 MLOAD DUP2 LT PUSH2 0x214B JUMPI PUSH2 0x214B PUSH2 0x3DB5 JUMP JUMPDEST PUSH1 0x20 SWAP1 DUP2 MUL SWAP2 SWAP1 SWAP2 ADD DUP2 ADD MLOAD DUP3 MSTORE DUP2 ADD SWAP2 SWAP1 SWAP2 MSTORE PUSH1 0x40 ADD PUSH1 0x0 KECCAK256 SLOAD PUSH1 0xFF AND DUP1 ISZERO PUSH2 0x21CB JUMPI POP DUP5 DUP2 DUP2 MLOAD DUP2 LT PUSH2 0x2182 JUMPI PUSH2 0x2182 PUSH2 0x3DB5 JUMP JUMPDEST PUSH1 0x20 MUL PUSH1 0x20 ADD ADD MLOAD PUSH1 0x8 DUP8 DUP4 DUP2 MLOAD DUP2 LT PUSH2 0x219E JUMPI PUSH2 0x219E PUSH2 0x3DB5 JUMP JUMPDEST PUSH1 0x20 MUL PUSH1 0x20 ADD ADD MLOAD DUP2 SLOAD DUP2 LT PUSH2 0x21B6 JUMPI PUSH2 0x21B6 PUSH2 0x3DB5 JUMP JUMPDEST SWAP1 PUSH1 0x0 MSTORE PUSH1 0x20 PUSH1 0x0 KECCAK256 SWAP1 PUSH1 0xA MUL ADD PUSH1 0x9 ADD SLOAD LT ISZERO JUMPDEST ISZERO PUSH2 0x27F4 JUMPI DUP5 DUP2 DUP2 MLOAD DUP2 LT PUSH2 0x21E2 JUMPI PUSH2 0x21E2 PUSH2 0x3DB5 JUMP JUMPDEST PUSH1 0x20 MUL PUSH1 0x20 ADD ADD MLOAD PUSH1 0x8 DUP8 DUP4 DUP2 MLOAD DUP2 LT PUSH2 0x21FE JUMPI PUSH2 0x21FE PUSH2 0x3DB5 JUMP JUMPDEST PUSH1 0x20 MUL PUSH1 0x20 ADD ADD MLOAD DUP2 SLOAD DUP2 LT PUSH2 0x2216 JUMPI PUSH2 0x2216 PUSH2 0x3DB5 JUMP JUMPDEST SWAP1 PUSH1 0x0 MSTORE PUSH1 0x20 PUSH1 0x0 KECCAK256 SWAP1 PUSH1 0xA MUL ADD PUSH1 0x9 ADD PUSH1 0x0 DUP3 DUP3 SLOAD PUSH2 0x2236 SWAP2 SWAP1 PUSH2 0x3F7E JUMP JUMPDEST SWAP1 SWAP2 SSTORE POP POP CALLER PUSH1 0x0 SWAP1 DUP2 MSTORE PUSH1 0xB PUSH1 0x20 MSTORE PUSH1 0x40 DUP2 KECCAK256 PUSH1 0x1 ADD DUP1 SLOAD SWAP2 PUSH2 0x2259 DUP4 PUSH2 0x3E1B JUMP JUMPDEST SWAP1 SWAP2 SSTORE POP POP PUSH1 0x2 DUP1 SLOAD SWAP1 PUSH1 0x0 PUSH2 0x226E DUP4 PUSH2 0x3E1B JUMP JUMPDEST SWAP2 SWAP1 POP SSTORE POP PUSH2 0x227B PUSH2 0x35E9 JUMP JUMPDEST PUSH1 0x8 DUP8 DUP4 DUP2 MLOAD DUP2 LT PUSH2 0x228F JUMPI PUSH2 0x228F PUSH2 0x3DB5 JUMP JUMPDEST PUSH1 0x20 MUL PUSH1 0x20 ADD ADD MLOAD DUP2 SLOAD DUP2 LT PUSH2 0x22A7 JUMPI PUSH2 0x22A7 PUSH2 0x3DB5 JUMP JUMPDEST PUSH1 0x0 SWAP2 DUP3 MSTORE PUSH1 0x20 DUP1 DUP4 KECCAK256 PUSH1 0xA SWAP3 DUP4 MUL ADD SLOAD DUP1 DUP6 MSTORE DUP4 MSTORE SWAP1 DUP2 MSTORE PUSH1 0x40 SWAP1 SWAP2 KECCAK256 SLOAD SWAP1 DUP3 ADD MSTORE DUP7 MLOAD PUSH1 0x8 SWAP1 DUP9 SWAP1 DUP5 SWAP1 DUP2 LT PUSH2 0x22E1 JUMPI PUSH2 0x22E1 PUSH2 0x3DB5 JUMP JUMPDEST PUSH1 0x20 MUL PUSH1 0x20 ADD ADD MLOAD DUP2 SLOAD DUP2 LT PUSH2 0x22F9 JUMPI PUSH2 0x22F9 PUSH2 0x3DB5 JUMP JUMPDEST SWAP1 PUSH1 0x0 MSTORE PUSH1 0x20 PUSH1 0x0 KECCAK256 SWAP1 PUSH1 0xA MUL ADD PUSH1 0x1 ADD DUP1 SLOAD PUSH2 0x2315 SWAP1 PUSH2 0x3DCB JUMP JUMPDEST DUP1 PUSH1 0x1F ADD PUSH1 0x20 DUP1 SWAP2 DIV MUL PUSH1 0x20 ADD PUSH1 0x40 MLOAD SWAP1 DUP2 ADD PUSH1 0x40 MSTORE DUP1 SWAP3 SWAP2 SWAP1 DUP2 DUP2 MSTORE PUSH1 0x20 ADD DUP3 DUP1 SLOAD PUSH2 0x2341 SWAP1 PUSH2 0x3DCB JUMP JUMPDEST DUP1 ISZERO PUSH2 0x238E JUMPI DUP1 PUSH1 0x1F LT PUSH2 0x2363 JUMPI PUSH2 0x100 DUP1 DUP4 SLOAD DIV MUL DUP4 MSTORE SWAP2 PUSH1 0x20 ADD SWAP2 PUSH2 0x238E JUMP JUMPDEST DUP3 ADD SWAP2 SWAP1 PUSH1 0x0 MSTORE PUSH1 0x20 PUSH1 0x0 KECCAK256 SWAP1 JUMPDEST DUP2 SLOAD DUP2 MSTORE SWAP1 PUSH1 0x1 ADD SWAP1 PUSH1 0x20 ADD DUP1 DUP4 GT PUSH2 0x2371 JUMPI DUP3 SWAP1 SUB PUSH1 0x1F AND DUP3 ADD SWAP2 JUMPDEST POP POP POP POP POP PUSH1 0x40 DUP3 ADD MSTORE CALLER PUSH1 0xA0 DUP3 ADD MSTORE DUP7 MLOAD PUSH1 0x8 SWAP1 DUP9 SWAP1 DUP5 SWAP1 DUP2 LT PUSH2 0x23B5 JUMPI PUSH2 0x23B5 PUSH2 0x3DB5 JUMP JUMPDEST PUSH1 0x20 MUL PUSH1 0x20 ADD ADD MLOAD DUP2 SLOAD DUP2 LT PUSH2 0x23CD JUMPI PUSH2 0x23CD PUSH2 0x3DB5 JUMP JUMPDEST PUSH1 0x0 SWAP2 DUP3 MSTORE PUSH1 0x20 SWAP1 SWAP2 KECCAK256 PUSH1 0x2 PUSH1 0xA SWAP1 SWAP3 MUL ADD ADD SLOAD PUSH1 0x1 PUSH1 0x1 PUSH1 0xA0 SHL SUB AND PUSH1 0xC0 DUP3 ADD MSTORE DUP7 MLOAD PUSH1 0x8 SWAP1 DUP9 SWAP1 DUP5 SWAP1 DUP2 LT PUSH2 0x2406 JUMPI PUSH2 0x2406 PUSH2 0x3DB5 JUMP JUMPDEST PUSH1 0x20 MUL PUSH1 0x20 ADD ADD MLOAD DUP2 SLOAD DUP2 LT PUSH2 0x241E JUMPI PUSH2 0x241E PUSH2 0x3DB5 JUMP JUMPDEST SWAP1 PUSH1 0x0 MSTORE PUSH1 0x20 PUSH1 0x0 KECCAK256 SWAP1 PUSH1 0xA MUL ADD PUSH1 0x3 ADD DUP1 SLOAD PUSH2 0x243A SWAP1 PUSH2 0x3DCB JUMP JUMPDEST DUP1 PUSH1 0x1F ADD PUSH1 0x20 DUP1 SWAP2 DIV MUL PUSH1 0x20 ADD PUSH1 0x40 MLOAD SWAP1 DUP2 ADD PUSH1 0x40 MSTORE DUP1 SWAP3 SWAP2 SWAP1 DUP2 DUP2 MSTORE PUSH1 0x20 ADD DUP3 DUP1 SLOAD PUSH2 0x2466 SWAP1 PUSH2 0x3DCB JUMP JUMPDEST DUP1 ISZERO PUSH2 0x24B3 JUMPI DUP1 PUSH1 0x1F LT PUSH2 0x2488 JUMPI PUSH2 0x100 DUP1 DUP4 SLOAD DIV MUL DUP4 MSTORE SWAP2 PUSH1 0x20 ADD SWAP2 PUSH2 0x24B3 JUMP JUMPDEST DUP3 ADD SWAP2 SWAP1 PUSH1 0x0 MSTORE PUSH1 0x20 PUSH1 0x0 KECCAK256 SWAP1 JUMPDEST DUP2 SLOAD DUP2 MSTORE SWAP1 PUSH1 0x1 ADD SWAP1 PUSH1 0x20 ADD DUP1 DUP4 GT PUSH2 0x2496 JUMPI DUP3 SWAP1 SUB PUSH1 0x1F AND DUP3 ADD SWAP2 JUMPDEST POP POP POP POP POP DUP2 PUSH1 0x60 ADD DUP2 SWAP1 MSTORE POP PUSH1 0x8 DUP8 DUP4 DUP2 MLOAD DUP2 LT PUSH2 0x24D4 JUMPI PUSH2 0x24D4 PUSH2 0x3DB5 JUMP JUMPDEST PUSH1 0x20 MUL PUSH1 0x20 ADD ADD MLOAD DUP2 SLOAD DUP2 LT PUSH2 0x24EC JUMPI PUSH2 0x24EC PUSH2 0x3DB5 JUMP JUMPDEST SWAP1 PUSH1 0x0 MSTORE PUSH1 0x20 PUSH1 0x0 KECCAK256 SWAP1 PUSH1 0xA MUL ADD PUSH1 0x4 ADD DUP1 SLOAD PUSH2 0x2508 SWAP1 PUSH2 0x3DCB JUMP JUMPDEST DUP1 PUSH1 0x1F ADD PUSH1 0x20 DUP1 SWAP2 DIV MUL PUSH1 0x20 ADD PUSH1 0x40 MLOAD SWAP1 DUP2 ADD PUSH1 0x40 MSTORE DUP1 SWAP3 SWAP2 SWAP1 DUP2 DUP2 MSTORE PUSH1 0x20 ADD DUP3 DUP1 SLOAD PUSH2 0x2534 SWAP1 PUSH2 0x3DCB JUMP JUMPDEST DUP1 ISZERO PUSH2 0x2581 JUMPI DUP1 PUSH1 0x1F LT PUSH2 0x2556 JUMPI PUSH2 0x100 DUP1 DUP4 SLOAD DIV MUL DUP4 MSTORE SWAP2 PUSH1 0x20 ADD SWAP2 PUSH2 0x2581 JUMP JUMPDEST DUP3 ADD SWAP2 SWAP1 PUSH1 0x0 MSTORE PUSH1 0x20 PUSH1 0x0 KECCAK256 SWAP1 JUMPDEST DUP2 SLOAD DUP2 MSTORE SWAP1 PUSH1 0x1 ADD SWAP1 PUSH1 0x20 ADD DUP1 DUP4 GT PUSH2 0x2564 JUMPI DUP3 SWAP1 SUB PUSH1 0x1F AND DUP3 ADD SWAP2 JUMPDEST POP POP POP POP POP DUP2 PUSH1 0x80 ADD DUP2 SWAP1 MSTORE POP DUP6 DUP3 DUP2 MLOAD DUP2 LT PUSH2 0x25A0 JUMPI PUSH2 0x25A0 PUSH2 0x3DB5 JUMP JUMPDEST PUSH1 0x20 MUL PUSH1 0x20 ADD ADD MLOAD DUP2 PUSH1 0xE0 ADD DUP2 DUP2 MSTORE POP POP PUSH1 0x8 DUP8 DUP4 DUP2 MLOAD DUP2 LT PUSH2 0x25C5 JUMPI PUSH2 0x25C5 PUSH2 0x3DB5 JUMP JUMPDEST PUSH1 0x20 MUL PUSH1 0x20 ADD ADD MLOAD DUP2 SLOAD DUP2 LT PUSH2 0x25DD JUMPI PUSH2 0x25DD PUSH2 0x3DB5 JUMP JUMPDEST SWAP1 PUSH1 0x0 MSTORE PUSH1 0x20 PUSH1 0x0 KECCAK256 SWAP1 PUSH1 0xA MUL ADD PUSH1 0x6 ADD SLOAD DUP7 DUP4 DUP2 MLOAD DUP2 LT PUSH2 0x2601 JUMPI PUSH2 0x2601 PUSH2 0x3DB5 JUMP JUMPDEST PUSH1 0x20 MUL PUSH1 0x20 ADD ADD MLOAD PUSH2 0x2613 SWAP2 SWAP1 PUSH2 0x3F91 JUMP JUMPDEST PUSH2 0x100 DUP3 ADD MSTORE TIMESTAMP PUSH2 0x120 DUP3 ADD MSTORE PUSH2 0x140 DUP2 ADD DUP6 SWAP1 MSTORE PUSH2 0x160 DUP2 ADD DUP5 SWAP1 MSTORE DUP1 MLOAD PUSH1 0x0 SWAP1 DUP2 MSTORE PUSH1 0xA PUSH1 0x20 SWAP1 DUP2 MSTORE PUSH1 0x40 DUP1 DUP4 KECCAK256 DUP1 SLOAD PUSH1 0x1 DUP2 DUP2 ADD DUP4 SSTORE SWAP2 DUP6 MSTORE SWAP4 DUP4 SWAP1 KECCAK256 DUP6 MLOAD PUSH1 0xD SWAP1 SWAP6 MUL ADD SWAP4 DUP5 SSTORE SWAP2 DUP5 ADD MLOAD SWAP2 DUP4 ADD SWAP2 SWAP1 SWAP2 SSTORE DUP3 ADD MLOAD DUP3 SWAP2 SWAP1 PUSH1 0x2 DUP3 ADD SWAP1 PUSH2 0x267E SWAP1 DUP3 PUSH2 0x3EBE JUMP JUMPDEST POP PUSH1 0x60 DUP3 ADD MLOAD PUSH1 0x3 DUP3 ADD SWAP1 PUSH2 0x2693 SWAP1 DUP3 PUSH2 0x3EBE JUMP JUMPDEST POP PUSH1 0x80 DUP3 ADD MLOAD PUSH1 0x4 DUP3 ADD SWAP1 PUSH2 0x26A8 SWAP1 DUP3 PUSH2 0x3EBE JUMP JUMPDEST POP PUSH1 0xA0 DUP3 ADD MLOAD PUSH1 0x5 DUP3 ADD DUP1 SLOAD PUSH1 0x1 PUSH1 0x1 PUSH1 0xA0 SHL SUB SWAP3 DUP4 AND PUSH1 0x1 PUSH1 0x1 PUSH1 0xA0 SHL SUB NOT SWAP2 DUP3 AND OR SWAP1 SWAP2 SSTORE PUSH1 0xC0 DUP5 ADD MLOAD PUSH1 0x6 DUP5 ADD DUP1 SLOAD SWAP2 SWAP1 SWAP4 AND SWAP2 AND OR SWAP1 SSTORE PUSH1 0xE0 DUP3 ADD MLOAD PUSH1 0x7 DUP3 ADD SSTORE PUSH2 0x100 DUP3 ADD MLOAD PUSH1 0x8 DUP3 ADD SSTORE PUSH2 0x120 DUP3 ADD MLOAD PUSH1 0x9 DUP3 ADD SSTORE PUSH2 0x140 DUP3 ADD MLOAD PUSH1 0xA DUP3 ADD SWAP1 PUSH2 0x2718 SWAP1 DUP3 PUSH2 0x3EBE JUMP JUMPDEST POP PUSH2 0x160 DUP3 ADD MLOAD PUSH1 0xB DUP3 ADD SWAP1 PUSH2 0x272E SWAP1 DUP3 PUSH2 0x3EBE JUMP JUMPDEST POP PUSH2 0x180 DUP3 ADD MLOAD PUSH1 0xC DUP3 ADD DUP1 SLOAD PUSH1 0xFF NOT AND PUSH1 0x1 DUP4 PUSH1 0x3 DUP2 GT ISZERO PUSH2 0x2753 JUMPI PUSH2 0x2753 PUSH2 0x3769 JUMP JUMPDEST MUL OR SWAP1 SSTORE POP POP DUP2 MLOAD PUSH1 0x0 SWAP1 DUP2 MSTORE PUSH1 0xE PUSH1 0x20 SWAP1 DUP2 MSTORE PUSH1 0x40 DUP1 DUP4 KECCAK256 DUP3 DUP7 ADD DUP1 MLOAD DUP6 MSTORE SWAP3 MSTORE SWAP2 DUP3 SWAP1 KECCAK256 DUP1 SLOAD PUSH1 0xFF NOT AND PUSH1 0x1 OR SWAP1 SSTORE PUSH1 0xC0 DUP5 ADD MLOAD PUSH1 0xA0 DUP6 ADD MLOAD SWAP2 MLOAD PUSH2 0x100 DUP7 ADD MLOAD SWAP4 MLOAD PUSH1 0x1 PUSH1 0x1 PUSH1 0xA0 SHL SUB SWAP3 DUP4 AND SWAP6 POP SWAP3 SWAP1 SWAP2 AND SWAP3 PUSH32 0xF3DEBAF22196A6DDF52A60FA71058CD7EDF5E25BB98F4E96C994A5D4A9B0DD3E SWAP3 PUSH2 0x27EA SWAP3 SWAP2 SWAP1 TIMESTAMP SWAP1 SWAP3 DUP4 MSTORE PUSH1 0x20 DUP4 ADD SWAP2 SWAP1 SWAP2 MSTORE PUSH1 0x40 DUP3 ADD MSTORE PUSH1 0x60 ADD SWAP1 JUMP JUMPDEST PUSH1 0x40 MLOAD DUP1 SWAP2 SUB SWAP1 LOG3 POP JUMPDEST DUP1 PUSH2 0x27FE DUP2 PUSH2 0x3E1B JUMP JUMPDEST SWAP2 POP POP PUSH2 0x212C JUMP JUMPDEST POP PUSH1 0x1 SWAP6 SWAP5 POP POP POP POP POP JUMP JUMPDEST PUSH1 0x0 DUP3 DUP2 MSTORE PUSH1 0xE PUSH1 0x20 SWAP1 DUP2 MSTORE PUSH1 0x40 DUP1 DUP4 KECCAK256 DUP5 DUP5 MSTORE SWAP1 SWAP2 MSTORE DUP2 KECCAK256 SLOAD PUSH1 0xFF AND PUSH2 0x284B JUMPI PUSH1 0x40 MLOAD PUSH3 0x461BCD PUSH1 0xE5 SHL DUP2 MSTORE PUSH1 0x4 ADD PUSH2 0x89D SWAP1 PUSH2 0x3E34 JUMP JUMPDEST PUSH1 0x0 DUP4 DUP2 MSTORE PUSH1 0xA PUSH1 0x20 MSTORE PUSH1 0x40 DUP2 KECCAK256 DUP1 SLOAD DUP5 SWAP1 DUP2 LT PUSH2 0x286B JUMPI PUSH2 0x286B PUSH2 0x3DB5 JUMP JUMPDEST SWAP1 PUSH1 0x0 MSTORE PUSH1 0x20 PUSH1 0x0 KECCAK256 SWAP1 PUSH1 0xD MUL ADD PUSH1 0x40 MLOAD DUP1 PUSH2 0x1A0 ADD PUSH1 0x40 MSTORE SWAP1 DUP2 PUSH1 0x0 DUP3 ADD SLOAD DUP2 MSTORE PUSH1 0x20 ADD PUSH1 0x1 DUP3 ADD SLOAD DUP2 MSTORE PUSH1 0x20 ADD PUSH1 0x2 DUP3 ADD DUP1 SLOAD PUSH2 0x28A9 SWAP1 PUSH2 0x3DCB JUMP JUMPDEST DUP1 PUSH1 0x1F ADD PUSH1 0x20 DUP1 SWAP2 DIV MUL PUSH1 0x20 ADD PUSH1 0x40 MLOAD SWAP1 DUP2 ADD PUSH1 0x40 MSTORE DUP1 SWAP3 SWAP2 SWAP1 DUP2 DUP2 MSTORE PUSH1 0x20 ADD DUP3 DUP1 SLOAD PUSH2 0x28D5 SWAP1 PUSH2 0x3DCB JUMP JUMPDEST DUP1 ISZERO PUSH2 0x2922 JUMPI DUP1 PUSH1 0x1F LT PUSH2 0x28F7 JUMPI PUSH2 0x100 DUP1 DUP4 SLOAD DIV MUL DUP4 MSTORE SWAP2 PUSH1 0x20 ADD SWAP2 PUSH2 0x2922 JUMP JUMPDEST DUP3 ADD SWAP2 SWAP1 PUSH1 0x0 MSTORE PUSH1 0x20 PUSH1 0x0 KECCAK256 SWAP1 JUMPDEST DUP2 SLOAD DUP2 MSTORE SWAP1 PUSH1 0x1 ADD SWAP1 PUSH1 0x20 ADD DUP1 DUP4 GT PUSH2 0x2905 JUMPI DUP3 SWAP1 SUB PUSH1 0x1F AND DUP3 ADD SWAP2 JUMPDEST POP POP POP POP POP DUP2 MSTORE PUSH1 0x20 ADD PUSH1 0x3 DUP3 ADD DUP1 SLOAD PUSH2 0x293B SWAP1 PUSH2 0x3DCB JUMP JUMPDEST DUP1 PUSH1 0x1F ADD PUSH1 0x20 DUP1 SWAP2 DIV MUL PUSH1 0x20 ADD PUSH1 0x40 MLOAD SWAP1 DUP2 ADD PUSH1 0x40 MSTORE DUP1 SWAP3 SWAP2 SWAP1 DUP2 DUP2 MSTORE PUSH1 0x20 ADD DUP3 DUP1 SLOAD PUSH2 0x2967 SWAP1 PUSH2 0x3DCB JUMP JUMPDEST DUP1 ISZERO PUSH2 0x29B4 JUMPI DUP1 PUSH1 0x1F LT PUSH2 0x2989 JUMPI PUSH2 0x100 DUP1 DUP4 SLOAD DIV MUL DUP4 MSTORE SWAP2 PUSH1 0x20 ADD SWAP2 PUSH2 0x29B4 JUMP JUMPDEST DUP3 ADD SWAP2 SWAP1 PUSH1 0x0 MSTORE PUSH1 0x20 PUSH1 0x0 KECCAK256 SWAP1 JUMPDEST DUP2 SLOAD DUP2 MSTORE SWAP1 PUSH1 0x1 ADD SWAP1 PUSH1 0x20 ADD DUP1 DUP4 GT PUSH2 0x2997 JUMPI DUP3 SWAP1 SUB PUSH1 0x1F AND DUP3 ADD SWAP2 JUMPDEST POP POP POP POP POP DUP2 MSTORE PUSH1 0x20 ADD PUSH1 0x4 DUP3 ADD DUP1 SLOAD PUSH2 0x29CD SWAP1 PUSH2 0x3DCB JUMP JUMPDEST DUP1 PUSH1 0x1F ADD PUSH1 0x20 DUP1 SWAP2 DIV MUL PUSH1 0x20 ADD PUSH1 0x40 MLOAD SWAP1 DUP2 ADD PUSH1 0x40 MSTORE DUP1 SWAP3 SWAP2 SWAP1 DUP2 DUP2 MSTORE PUSH1 0x20 ADD DUP3 DUP1 SLOAD PUSH2 0x29F9 SWAP1 PUSH2 0x3DCB JUMP JUMPDEST DUP1 ISZERO PUSH2 0x2A46 JUMPI DUP1 PUSH1 0x1F LT PUSH2 0x2A1B JUMPI PUSH2 0x100 DUP1 DUP4 SLOAD DIV MUL DUP4 MSTORE SWAP2 PUSH1 0x20 ADD SWAP2 PUSH2 0x2A46 JUMP JUMPDEST DUP3 ADD SWAP2 SWAP1 PUSH1 0x0 MSTORE PUSH1 0x20 PUSH1 0x0 KECCAK256 SWAP1 JUMPDEST DUP2 SLOAD DUP2 MSTORE SWAP1 PUSH1 0x1 ADD SWAP1 PUSH1 0x20 ADD DUP1 DUP4 GT PUSH2 0x2A29 JUMPI DUP3 SWAP1 SUB PUSH1 0x1F AND DUP3 ADD SWAP2 JUMPDEST POP POP POP SWAP2 DUP4 MSTORE POP POP PUSH1 0x5 DUP3 ADD SLOAD PUSH1 0x1 PUSH1 0x1 PUSH1 0xA0 SHL SUB SWAP1 DUP2 AND PUSH1 0x20 DUP4 ADD MSTORE PUSH1 0x6 DUP4 ADD SLOAD AND PUSH1 0x40 DUP3 ADD MSTORE PUSH1 0x7 DUP3 ADD SLOAD PUSH1 0x60 DUP3 ADD MSTORE PUSH1 0x8 DUP3 ADD SLOAD PUSH1 0x80 DUP3 ADD MSTORE PUSH1 0x9 DUP3 ADD SLOAD PUSH1 0xA0 DUP3 ADD MSTORE PUSH1 0xA DUP3 ADD DUP1 SLOAD PUSH1 0xC0 SWAP1 SWAP3 ADD SWAP2 PUSH2 0x2AA1 SWAP1 PUSH2 0x3DCB JUMP JUMPDEST DUP1 PUSH1 0x1F ADD PUSH1 0x20 DUP1 SWAP2 DIV MUL PUSH1 0x20 ADD PUSH1 0x40 MLOAD SWAP1 DUP2 ADD PUSH1 0x40 MSTORE DUP1 SWAP3 SWAP2 SWAP1 DUP2 DUP2 MSTORE PUSH1 0x20 ADD DUP3 DUP1 SLOAD PUSH2 0x2ACD SWAP1 PUSH2 0x3DCB JUMP JUMPDEST DUP1 ISZERO PUSH2 0x2B1A JUMPI DUP1 PUSH1 0x1F LT PUSH2 0x2AEF JUMPI PUSH2 0x100 DUP1 DUP4 SLOAD DIV MUL DUP4 MSTORE SWAP2 PUSH1 0x20 ADD SWAP2 PUSH2 0x2B1A JUMP JUMPDEST DUP3 ADD SWAP2 SWAP1 PUSH1 0x0 MSTORE PUSH1 0x20 PUSH1 0x0 KECCAK256 SWAP1 JUMPDEST DUP2 SLOAD DUP2 MSTORE SWAP1 PUSH1 0x1 ADD SWAP1 PUSH1 0x20 ADD DUP1 DUP4 GT PUSH2 0x2AFD JUMPI DUP3 SWAP1 SUB PUSH1 0x1F AND DUP3 ADD SWAP2 JUMPDEST POP POP POP POP POP DUP2 MSTORE PUSH1 0x20 ADD PUSH1 0xB DUP3 ADD DUP1 SLOAD PUSH2 0x2B33 SWAP1 PUSH2 0x3DCB JUMP JUMPDEST DUP1 PUSH1 0x1F ADD PUSH1 0x20 DUP1 SWAP2 DIV MUL PUSH1 0x20 ADD PUSH1 0x40 MLOAD SWAP1 DUP2 ADD PUSH1 0x40 MSTORE DUP1 SWAP3 SWAP2 SWAP1 DUP2 DUP2 MSTORE PUSH1 0x20 ADD DUP3 DUP1 SLOAD PUSH2 0x2B5F SWAP1 PUSH2 0x3DCB JUMP JUMPDEST DUP1 ISZERO PUSH2 0x2BAC JUMPI DUP1 PUSH1 0x1F LT PUSH2 0x2B81 JUMPI PUSH2 0x100 DUP1 DUP4 SLOAD DIV MUL DUP4 MSTORE SWAP2 PUSH1 0x20 ADD SWAP2 PUSH2 0x2BAC JUMP JUMPDEST DUP3 ADD SWAP2 SWAP1 PUSH1 0x0 MSTORE PUSH1 0x20 PUSH1 0x0 KECCAK256 SWAP1 JUMPDEST DUP2 SLOAD DUP2 MSTORE SWAP1 PUSH1 0x1 ADD SWAP1 PUSH1 0x20 ADD DUP1 DUP4 GT PUSH2 0x2B8F JUMPI DUP3 SWAP1 SUB PUSH1 0x1F AND DUP3 ADD SWAP2 JUMPDEST POP POP POP SWAP2 DUP4 MSTORE POP POP PUSH1 0xC DUP3 ADD SLOAD PUSH1 0x20 SWAP1 SWAP2 ADD SWAP1 PUSH1 0xFF AND PUSH1 0x3 DUP2 GT ISZERO PUSH2 0x2BD3 JUMPI PUSH2 0x2BD3 PUSH2 0x3769 JUMP JUMPDEST PUSH1 0x3 DUP2 GT ISZERO PUSH2 0x2BE4 JUMPI PUSH2 0x2BE4 PUSH2 0x3769 JUMP JUMPDEST SWAP1 MSTORE POP PUSH1 0xC0 DUP2 ADD MLOAD SWAP1 SWAP2 POP PUSH1 0x1 PUSH1 0x1 PUSH1 0xA0 SHL SUB AND CALLER EQ PUSH2 0x2C3C JUMPI PUSH1 0x40 MLOAD PUSH3 0x461BCD PUSH1 0xE5 SHL DUP2 MSTORE PUSH1 0x20 PUSH1 0x4 DUP3 ADD MSTORE PUSH1 0x13 PUSH1 0x24 DUP3 ADD MSTORE PUSH19 0x556E617574686F72697A656420456E74697479 PUSH1 0x68 SHL PUSH1 0x44 DUP3 ADD MSTORE PUSH1 0x64 ADD PUSH2 0x89D JUMP JUMPDEST PUSH1 0x1 DUP2 PUSH2 0x180 ADD MLOAD PUSH1 0x3 DUP2 GT ISZERO PUSH2 0x2C55 JUMPI PUSH2 0x2C55 PUSH2 0x3769 JUMP JUMPDEST SUB PUSH2 0x2CA2 JUMPI PUSH1 0x40 MLOAD PUSH3 0x461BCD PUSH1 0xE5 SHL DUP2 MSTORE PUSH1 0x20 PUSH1 0x4 DUP3 ADD MSTORE PUSH1 0x18 PUSH1 0x24 DUP3 ADD MSTORE PUSH32 0x4F7264657220616C72656164792064656C696576657265640000000000000000 PUSH1 0x44 DUP3 ADD MSTORE PUSH1 0x64 ADD PUSH2 0x89D JUMP JUMPDEST PUSH1 0x1 PUSH2 0x180 DUP3 ADD MSTORE PUSH1 0x0 DUP5 DUP2 MSTORE PUSH1 0xA PUSH1 0x20 MSTORE PUSH1 0x40 SWAP1 KECCAK256 DUP1 SLOAD DUP3 SWAP2 SWAP1 DUP6 SWAP1 DUP2 LT PUSH2 0x2CCD JUMPI PUSH2 0x2CCD PUSH2 0x3DB5 JUMP JUMPDEST SWAP1 PUSH1 0x0 MSTORE PUSH1 0x20 PUSH1 0x0 KECCAK256 SWAP1 PUSH1 0xD MUL ADD PUSH1 0x0 DUP3 ADD MLOAD DUP2 PUSH1 0x0 ADD SSTORE PUSH1 0x20 DUP3 ADD MLOAD DUP2 PUSH1 0x1 ADD SSTORE PUSH1 0x40 DUP3 ADD MLOAD DUP2 PUSH1 0x2 ADD SWAP1 DUP2 PUSH2 0x2D04 SWAP2 SWAP1 PUSH2 0x3EBE JUMP JUMPDEST POP PUSH1 0x60 DUP3 ADD MLOAD PUSH1 0x3 DUP3 ADD SWAP1 PUSH2 0x2D19 SWAP1 DUP3 PUSH2 0x3EBE JUMP JUMPDEST POP PUSH1 0x80 DUP3 ADD MLOAD PUSH1 0x4 DUP3 ADD SWAP1 PUSH2 0x2D2E SWAP1 DUP3 PUSH2 0x3EBE JUMP JUMPDEST POP PUSH1 0xA0 DUP3 ADD MLOAD PUSH1 0x5 DUP3 ADD DUP1 SLOAD PUSH1 0x1 PUSH1 0x1 PUSH1 0xA0 SHL SUB SWAP3 DUP4 AND PUSH1 0x1 PUSH1 0x1 PUSH1 0xA0 SHL SUB NOT SWAP2 DUP3 AND OR SWAP1 SWAP2 SSTORE PUSH1 0xC0 DUP5 ADD MLOAD PUSH1 0x6 DUP5 ADD DUP1 SLOAD SWAP2 SWAP1 SWAP4 AND SWAP2 AND OR SWAP1 SSTORE PUSH1 0xE0 DUP3 ADD MLOAD PUSH1 0x7 DUP3 ADD SSTORE PUSH2 0x100 DUP3 ADD MLOAD PUSH1 0x8 DUP3 ADD SSTORE PUSH2 0x120 DUP3 ADD MLOAD PUSH1 0x9 DUP3 ADD SSTORE PUSH2 0x140 DUP3 ADD MLOAD PUSH1 0xA DUP3 ADD SWAP1 PUSH2 0x2D9E SWAP1 DUP3 PUSH2 0x3EBE JUMP JUMPDEST POP PUSH2 0x160 DUP3 ADD MLOAD PUSH1 0xB DUP3 ADD SWAP1 PUSH2 0x2DB4 SWAP1 DUP3 PUSH2 0x3EBE JUMP JUMPDEST POP PUSH2 0x180 DUP3 ADD MLOAD PUSH1 0xC DUP3 ADD DUP1 SLOAD PUSH1 0xFF NOT AND PUSH1 0x1 DUP4 PUSH1 0x3 DUP2 GT ISZERO PUSH2 0x2DD9 JUMPI PUSH2 0x2DD9 PUSH2 0x3769 JUMP JUMPDEST MUL OR SWAP1 SSTORE POP POP POP PUSH2 0x100 DUP2 ADD MLOAD PUSH1 0x6 DUP1 SLOAD PUSH1 0x0 SWAP1 PUSH2 0x2DF8 SWAP1 DUP5 SWAP1 PUSH2 0x3F7E JUMP JUMPDEST SWAP1 SWAP2 SSTORE POP POP PUSH2 0x100 DUP2 ADD MLOAD PUSH1 0xC0 DUP3 ADD MLOAD PUSH1 0x1 PUSH1 0x1 PUSH1 0xA0 SHL SUB AND PUSH1 0x0 SWAP1 DUP2 MSTORE PUSH1 0xB PUSH1 0x20 MSTORE PUSH1 0x40 DUP2 KECCAK256 PUSH1 0x4 ADD DUP1 SLOAD SWAP1 SWAP2 SWAP1 PUSH2 0x2E32 SWAP1 DUP5 SWAP1 PUSH2 0x3E5D JUMP JUMPDEST SWAP1 SWAP2 SSTORE POP POP PUSH1 0xC0 DUP2 ADD MLOAD PUSH1 0x1 PUSH1 0x1 PUSH1 0xA0 SHL SUB AND PUSH1 0x0 SWAP1 DUP2 MSTORE PUSH1 0xB PUSH1 0x20 MSTORE PUSH1 0x40 DUP2 KECCAK256 PUSH1 0x3 ADD DUP1 SLOAD SWAP2 PUSH2 0x2E62 DUP4 PUSH2 0x3E1B JUMP JUMPDEST SWAP1 SWAP2 SSTORE POP POP PUSH1 0x4 DUP1 SLOAD SWAP1 PUSH1 0x0 PUSH2 0x2E77 DUP4 PUSH2 0x3E1B JUMP JUMPDEST SWAP2 SWAP1 POP SSTORE POP PUSH2 0x2E8F DUP2 PUSH1 0xC0 ADD MLOAD DUP3 PUSH2 0x100 ADD MLOAD PUSH2 0x2FE6 JUMP JUMPDEST PUSH1 0x0 SWAP3 DUP4 MSTORE PUSH1 0xC PUSH1 0x20 SWAP1 DUP2 MSTORE PUSH1 0x40 DUP1 DUP6 KECCAK256 DUP2 MLOAD PUSH1 0x80 DUP2 ADD DUP4 MSTORE PUSH1 0xA0 DUP6 ADD MLOAD PUSH1 0x1 PUSH1 0x1 PUSH1 0xA0 SHL SUB SWAP1 DUP2 AND DUP3 MSTORE PUSH2 0x100 DUP7 ADD MLOAD DUP3 DUP7 ADD SWAP1 DUP2 MSTORE PUSH1 0xE0 SWAP1 SWAP7 ADD MLOAD SWAP4 DUP3 ADD SWAP4 DUP5 MSTORE TIMESTAMP PUSH1 0x60 DUP4 ADD SWAP1 DUP2 MSTORE DUP4 SLOAD PUSH1 0x1 DUP1 DUP3 ADD DUP7 SSTORE SWAP5 DUP11 MSTORE SWAP6 SWAP1 SWAP9 KECCAK256 SWAP2 MLOAD PUSH1 0x4 SWAP1 SWAP6 MUL SWAP1 SWAP2 ADD DUP1 SLOAD PUSH1 0x1 PUSH1 0x1 PUSH1 0xA0 SHL SUB NOT AND SWAP5 SWAP1 SWAP2 AND SWAP4 SWAP1 SWAP4 OR DUP4 SSTORE SWAP3 MLOAD DUP3 DUP5 ADD SSTORE MLOAD PUSH1 0x2 DUP3 ADD SSTORE SWAP3 MLOAD PUSH1 0x3 SWAP1 SWAP4 ADD SWAP3 SWAP1 SWAP3 SSTORE POP SWAP2 SWAP1 POP JUMP JUMPDEST PUSH1 0x0 CALLER PUSH1 0x1 PUSH1 0x1 PUSH1 0xA0 SHL SUB AND PUSH1 0x8 DUP4 DUP2 SLOAD DUP2 LT PUSH2 0x2F46 JUMPI PUSH2 0x2F46 PUSH2 0x3DB5 JUMP JUMPDEST PUSH1 0x0 SWAP2 DUP3 MSTORE PUSH1 0x20 SWAP1 SWAP2 KECCAK256 PUSH1 0x2 PUSH1 0xA SWAP1 SWAP3 MUL ADD ADD SLOAD PUSH1 0x1 PUSH1 0x1 PUSH1 0xA0 SHL SUB AND EQ PUSH2 0x2FA7 JUMPI PUSH1 0x40 MLOAD PUSH3 0x461BCD PUSH1 0xE5 SHL DUP2 MSTORE PUSH1 0x20 PUSH1 0x4 DUP3 ADD MSTORE PUSH1 0x14 PUSH1 0x24 DUP3 ADD MSTORE PUSH20 0x155B985D5D1A1BDC9A5E994814195C9CDBDB995B PUSH1 0x62 SHL PUSH1 0x44 DUP3 ADD MSTORE PUSH1 0x64 ADD PUSH2 0x89D JUMP JUMPDEST PUSH1 0x1 PUSH1 0x8 DUP4 DUP2 SLOAD DUP2 LT PUSH2 0x2FBC JUMPI PUSH2 0x2FBC PUSH2 0x3DB5 JUMP JUMPDEST PUSH1 0x0 SWAP2 DUP3 MSTORE PUSH1 0x20 SWAP1 SWAP2 KECCAK256 PUSH1 0xA SWAP1 SWAP2 MUL ADD PUSH1 0x8 ADD DUP1 SLOAD PUSH1 0xFF NOT AND SWAP2 ISZERO ISZERO SWAP2 SWAP1 SWAP2 OR SWAP1 SSTORE POP PUSH1 0x1 SWAP2 SWAP1 POP JUMP JUMPDEST PUSH1 0x0 DUP3 PUSH1 0x1 PUSH1 0x1 PUSH1 0xA0 SHL SUB AND DUP3 PUSH1 0x40 MLOAD PUSH1 0x0 PUSH1 0x40 MLOAD DUP1 DUP4 SUB DUP2 DUP6 DUP8 GAS CALL SWAP3 POP POP POP RETURNDATASIZE DUP1 PUSH1 0x0 DUP2 EQ PUSH2 0x3033 JUMPI PUSH1 0x40 MLOAD SWAP2 POP PUSH1 0x1F NOT PUSH1 0x3F RETURNDATASIZE ADD AND DUP3 ADD PUSH1 0x40 MSTORE RETURNDATASIZE DUP3 MSTORE RETURNDATASIZE PUSH1 0x0 PUSH1 0x20 DUP5 ADD RETURNDATACOPY PUSH2 0x3038 JUMP JUMPDEST PUSH1 0x60 SWAP2 POP JUMPDEST POP POP SWAP1 POP DUP1 PUSH2 0x3046 JUMPI PUSH1 0x0 DUP1 REVERT JUMPDEST POP POP POP JUMP JUMPDEST PUSH1 0x0 JUMPDEST DUP2 MLOAD PUSH1 0x0 SWAP1 DUP2 MSTORE PUSH1 0xA PUSH1 0x20 MSTORE PUSH1 0x40 SWAP1 KECCAK256 SLOAD DUP2 LT ISZERO PUSH2 0x3567 JUMPI DUP2 MLOAD PUSH1 0x0 SWAP1 DUP2 MSTORE PUSH1 0xA PUSH1 0x20 MSTORE PUSH1 0x40 DUP2 KECCAK256 DUP1 SLOAD DUP4 SWAP1 DUP2 LT PUSH2 0x3088 JUMPI PUSH2 0x3088 PUSH2 0x3DB5 JUMP JUMPDEST SWAP1 PUSH1 0x0 MSTORE PUSH1 0x20 PUSH1 0x0 KECCAK256 SWAP1 PUSH1 0xD MUL ADD PUSH1 0x40 MLOAD DUP1 PUSH2 0x1A0 ADD PUSH1 0x40 MSTORE SWAP1 DUP2 PUSH1 0x0 DUP3 ADD SLOAD DUP2 MSTORE PUSH1 0x20 ADD PUSH1 0x1 DUP3 ADD SLOAD DUP2 MSTORE PUSH1 0x20 ADD PUSH1 0x2 DUP3 ADD DUP1 SLOAD PUSH2 0x30C6 SWAP1 PUSH2 0x3DCB JUMP JUMPDEST DUP1 PUSH1 0x1F ADD PUSH1 0x20 DUP1 SWAP2 DIV MUL PUSH1 0x20 ADD PUSH1 0x40 MLOAD SWAP1 DUP2 ADD PUSH1 0x40 MSTORE DUP1 SWAP3 SWAP2 SWAP1 DUP2 DUP2 MSTORE PUSH1 0x20 ADD DUP3 DUP1 SLOAD PUSH2 0x30F2 SWAP1 PUSH2 0x3DCB JUMP JUMPDEST DUP1 ISZERO PUSH2 0x313F JUMPI DUP1 PUSH1 0x1F LT PUSH2 0x3114 JUMPI PUSH2 0x100 DUP1 DUP4 SLOAD DIV MUL DUP4 MSTORE SWAP2 PUSH1 0x20 ADD SWAP2 PUSH2 0x313F JUMP JUMPDEST DUP3 ADD SWAP2 SWAP1 PUSH1 0x0 MSTORE PUSH1 0x20 PUSH1 0x0 KECCAK256 SWAP1 JUMPDEST DUP2 SLOAD DUP2 MSTORE SWAP1 PUSH1 0x1 ADD SWAP1 PUSH1 0x20 ADD DUP1 DUP4 GT PUSH2 0x3122 JUMPI DUP3 SWAP1 SUB PUSH1 0x1F AND DUP3 ADD SWAP2 JUMPDEST POP POP POP POP POP DUP2 MSTORE PUSH1 0x20 ADD PUSH1 0x3 DUP3 ADD DUP1 SLOAD PUSH2 0x3158 SWAP1 PUSH2 0x3DCB JUMP JUMPDEST DUP1 PUSH1 0x1F ADD PUSH1 0x20 DUP1 SWAP2 DIV MUL PUSH1 0x20 ADD PUSH1 0x40 MLOAD SWAP1 DUP2 ADD PUSH1 0x40 MSTORE DUP1 SWAP3 SWAP2 SWAP1 DUP2 DUP2 MSTORE PUSH1 0x20 ADD DUP3 DUP1 SLOAD PUSH2 0x3184 SWAP1 PUSH2 0x3DCB JUMP JUMPDEST DUP1 ISZERO PUSH2 0x31D1 JUMPI DUP1 PUSH1 0x1F LT PUSH2 0x31A6 JUMPI PUSH2 0x100 DUP1 DUP4 SLOAD DIV MUL DUP4 MSTORE SWAP2 PUSH1 0x20 ADD SWAP2 PUSH2 0x31D1 JUMP JUMPDEST DUP3 ADD SWAP2 SWAP1 PUSH1 0x0 MSTORE PUSH1 0x20 PUSH1 0x0 KECCAK256 SWAP1 JUMPDEST DUP2 SLOAD DUP2 MSTORE SWAP1 PUSH1 0x1 ADD SWAP1 PUSH1 0x20 ADD DUP1 DUP4 GT PUSH2 0x31B4 JUMPI DUP3 SWAP1 SUB PUSH1 0x1F AND DUP3 ADD SWAP2 JUMPDEST POP POP POP POP POP DUP2 MSTORE PUSH1 0x20 ADD PUSH1 0x4 DUP3 ADD DUP1 SLOAD PUSH2 0x31EA SWAP1 PUSH2 0x3DCB JUMP JUMPDEST DUP1 PUSH1 0x1F ADD PUSH1 0x20 DUP1 SWAP2 DIV MUL PUSH1 0x20 ADD PUSH1 0x40 MLOAD SWAP1 DUP2 ADD PUSH1 0x40 MSTORE DUP1 SWAP3 SWAP2 SWAP1 DUP2 DUP2 MSTORE PUSH1 0x20 ADD DUP3 DUP1 SLOAD PUSH2 0x3216 SWAP1 PUSH2 0x3DCB JUMP JUMPDEST DUP1 ISZERO PUSH2 0x3263 JUMPI DUP1 PUSH1 0x1F LT PUSH2 0x3238 JUMPI PUSH2 0x100 DUP1 DUP4 SLOAD DIV MUL DUP4 MSTORE SWAP2 PUSH1 0x20 ADD SWAP2 PUSH2 0x3263 JUMP JUMPDEST DUP3 ADD SWAP2 SWAP1 PUSH1 0x0 MSTORE PUSH1 0x20 PUSH1 0x0 KECCAK256 SWAP1 JUMPDEST DUP2 SLOAD DUP2 MSTORE SWAP1 PUSH1 0x1 ADD SWAP1 PUSH1 0x20 ADD DUP1 DUP4 GT PUSH2 0x3246 JUMPI DUP3 SWAP1 SUB PUSH1 0x1F AND DUP3 ADD SWAP2 JUMPDEST POP POP POP SWAP2 DUP4 MSTORE POP POP PUSH1 0x5 DUP3 ADD SLOAD PUSH1 0x1 PUSH1 0x1 PUSH1 0xA0 SHL SUB SWAP1 DUP2 AND PUSH1 0x20 DUP4 ADD MSTORE PUSH1 0x6 DUP4 ADD SLOAD AND PUSH1 0x40 DUP3 ADD MSTORE PUSH1 0x7 DUP3 ADD SLOAD PUSH1 0x60 DUP3 ADD MSTORE PUSH1 0x8 DUP3 ADD SLOAD PUSH1 0x80 DUP3 ADD MSTORE PUSH1 0x9 DUP3 ADD SLOAD PUSH1 0xA0 DUP3 ADD MSTORE PUSH1 0xA DUP3 ADD DUP1 SLOAD PUSH1 0xC0 SWAP1 SWAP3 ADD SWAP2 PUSH2 0x32BE SWAP1 PUSH2 0x3DCB JUMP JUMPDEST DUP1 PUSH1 0x1F ADD PUSH1 0x20 DUP1 SWAP2 DIV MUL PUSH1 0x20 ADD PUSH1 0x40 MLOAD SWAP1 DUP2 ADD PUSH1 0x40 MSTORE DUP1 SWAP3 SWAP2 SWAP1 DUP2 DUP2 MSTORE PUSH1 0x20 ADD DUP3 DUP1 SLOAD PUSH2 0x32EA SWAP1 PUSH2 0x3DCB JUMP JUMPDEST DUP1 ISZERO PUSH2 0x3337 JUMPI DUP1 PUSH1 0x1F LT PUSH2 0x330C JUMPI PUSH2 0x100 DUP1 DUP4 SLOAD DIV MUL DUP4 MSTORE SWAP2 PUSH1 0x20 ADD SWAP2 PUSH2 0x3337 JUMP JUMPDEST DUP3 ADD SWAP2 SWAP1 PUSH1 0x0 MSTORE PUSH1 0x20 PUSH1 0x0 KECCAK256 SWAP1 JUMPDEST DUP2 SLOAD DUP2 MSTORE SWAP1 PUSH1 0x1 ADD SWAP1 PUSH1 0x20 ADD DUP1 DUP4 GT PUSH2 0x331A JUMPI DUP3 SWAP1 SUB PUSH1 0x1F AND DUP3 ADD SWAP2 JUMPDEST POP POP POP POP POP DUP2 MSTORE PUSH1 0x20 ADD PUSH1 0xB DUP3 ADD DUP1 SLOAD PUSH2 0x3350 SWAP1 PUSH2 0x3DCB JUMP JUMPDEST DUP1 PUSH1 0x1F ADD PUSH1 0x20 DUP1 SWAP2 DIV MUL PUSH1 0x20 ADD PUSH1 0x40 MLOAD SWAP1 DUP2 ADD PUSH1 0x40 MSTORE DUP1 SWAP3 SWAP2 SWAP1 DUP2 DUP2 MSTORE PUSH1 0x20 ADD DUP3 DUP1 SLOAD PUSH2 0x337C SWAP1 PUSH2 0x3DCB JUMP JUMPDEST DUP1 ISZERO PUSH2 0x33C9 JUMPI DUP1 PUSH1 0x1F LT PUSH2 0x339E JUMPI PUSH2 0x100 DUP1 DUP4 SLOAD DIV MUL DUP4 MSTORE SWAP2 PUSH1 0x20 ADD SWAP2 PUSH2 0x33C9 JUMP JUMPDEST DUP3 ADD SWAP2 SWAP1 PUSH1 0x0 MSTORE PUSH1 0x20 PUSH1 0x0 KECCAK256 SWAP1 JUMPDEST DUP2 SLOAD DUP2 MSTORE SWAP1 PUSH1 0x1 ADD SWAP1 PUSH1 0x20 ADD DUP1 DUP4 GT PUSH2 0x33AC JUMPI DUP3 SWAP1 SUB PUSH1 0x1F AND DUP3 ADD SWAP2 JUMPDEST POP POP POP SWAP2 DUP4 MSTORE POP POP PUSH1 0xC DUP3 ADD SLOAD PUSH1 0x20 SWAP1 SWAP2 ADD SWAP1 PUSH1 0xFF AND PUSH1 0x3 DUP2 GT ISZERO PUSH2 0x33F0 JUMPI PUSH2 0x33F0 PUSH2 0x3769 JUMP JUMPDEST PUSH1 0x3 DUP2 GT ISZERO PUSH2 0x3401 JUMPI PUSH2 0x3401 PUSH2 0x3769 JUMP JUMPDEST SWAP1 MSTORE POP PUSH1 0x60 DUP1 DUP6 ADD MLOAD SWAP1 DUP3 ADD MSTORE PUSH1 0x80 DUP1 DUP6 ADD MLOAD SWAP1 DUP3 ADD MSTORE DUP4 MLOAD PUSH1 0x0 SWAP1 DUP2 MSTORE PUSH1 0xA PUSH1 0x20 MSTORE PUSH1 0x40 SWAP1 KECCAK256 DUP1 SLOAD SWAP2 SWAP3 POP DUP3 SWAP2 DUP5 SWAP1 DUP2 LT PUSH2 0x343F JUMPI PUSH2 0x343F PUSH2 0x3DB5 JUMP JUMPDEST SWAP1 PUSH1 0x0 MSTORE PUSH1 0x20 PUSH1 0x0 KECCAK256 SWAP1 PUSH1 0xD MUL ADD PUSH1 0x0 DUP3 ADD MLOAD DUP2 PUSH1 0x0 ADD SSTORE PUSH1 0x20 DUP3 ADD MLOAD DUP2 PUSH1 0x1 ADD SSTORE PUSH1 0x40 DUP3 ADD MLOAD DUP2 PUSH1 0x2 ADD SWAP1 DUP2 PUSH2 0x3476 SWAP2 SWAP1 PUSH2 0x3EBE JUMP JUMPDEST POP PUSH1 0x60 DUP3 ADD MLOAD PUSH1 0x3 DUP3 ADD SWAP1 PUSH2 0x348B SWAP1 DUP3 PUSH2 0x3EBE JUMP JUMPDEST POP PUSH1 0x80 DUP3 ADD MLOAD PUSH1 0x4 DUP3 ADD SWAP1 PUSH2 0x34A0 SWAP1 DUP3 PUSH2 0x3EBE JUMP JUMPDEST POP PUSH1 0xA0 DUP3 ADD MLOAD PUSH1 0x5 DUP3 ADD DUP1 SLOAD PUSH1 0x1 PUSH1 0x1 PUSH1 0xA0 SHL SUB SWAP3 DUP4 AND PUSH1 0x1 PUSH1 0x1 PUSH1 0xA0 SHL SUB NOT SWAP2 DUP3 AND OR SWAP1 SWAP2 SSTORE PUSH1 0xC0 DUP5 ADD MLOAD PUSH1 0x6 DUP5 ADD DUP1 SLOAD SWAP2 SWAP1 SWAP4 AND SWAP2 AND OR SWAP1 SSTORE PUSH1 0xE0 DUP3 ADD MLOAD PUSH1 0x7 DUP3 ADD SSTORE PUSH2 0x100 DUP3 ADD MLOAD PUSH1 0x8 DUP3 ADD SSTORE PUSH2 0x120 DUP3 ADD MLOAD PUSH1 0x9 DUP3 ADD SSTORE PUSH2 0x140 DUP3 ADD MLOAD PUSH1 0xA DUP3 ADD SWAP1 PUSH2 0x3510 SWAP1 DUP3 PUSH2 0x3EBE JUMP JUMPDEST POP PUSH2 0x160 DUP3 ADD MLOAD PUSH1 0xB DUP3 ADD SWAP1 PUSH2 0x3526 SWAP1 DUP3 PUSH2 0x3EBE JUMP JUMPDEST POP PUSH2 0x180 DUP3 ADD MLOAD PUSH1 0xC DUP3 ADD DUP1 SLOAD PUSH1 0xFF NOT AND PUSH1 0x1 DUP4 PUSH1 0x3 DUP2 GT ISZERO PUSH2 0x354B JUMPI PUSH2 0x354B PUSH2 0x3769 JUMP JUMPDEST MUL OR SWAP1 SSTORE POP SWAP1 POP POP POP DUP1 DUP1 PUSH2 0x355F SWAP1 PUSH2 0x3E1B JUMP JUMPDEST SWAP2 POP POP PUSH2 0x304E JUMP JUMPDEST POP POP JUMP JUMPDEST PUSH1 0x0 DUP1 PUSH1 0x0 JUMPDEST DUP5 MLOAD DUP2 LT ISZERO PUSH2 0x35E1 JUMPI DUP4 DUP2 DUP2 MLOAD DUP2 LT PUSH2 0x358C JUMPI PUSH2 0x358C PUSH2 0x3DB5 JUMP JUMPDEST PUSH1 0x20 MUL PUSH1 0x20 ADD ADD MLOAD PUSH1 0x8 DUP3 DUP2 SLOAD DUP2 LT PUSH2 0x35A7 JUMPI PUSH2 0x35A7 PUSH2 0x3DB5 JUMP JUMPDEST SWAP1 PUSH1 0x0 MSTORE PUSH1 0x20 PUSH1 0x0 KECCAK256 SWAP1 PUSH1 0xA MUL ADD PUSH1 0x6 ADD SLOAD PUSH2 0x35C3 SWAP2 SWAP1 PUSH2 0x3F91 JUMP JUMPDEST PUSH2 0x35CD SWAP1 DUP4 PUSH2 0x3E5D JUMP JUMPDEST SWAP2 POP DUP1 PUSH2 0x35D9 DUP2 PUSH2 0x3E1B JUMP JUMPDEST SWAP2 POP POP PUSH2 0x3571 JUMP JUMPDEST POP SWAP4 SWAP3 POP POP POP JUMP JUMPDEST PUSH1 0x40 MLOAD DUP1 PUSH2 0x1A0 ADD PUSH1 0x40 MSTORE DUP1 PUSH1 0x0 DUP2 MSTORE PUSH1 0x20 ADD PUSH1 0x0 DUP2 MSTORE PUSH1 0x20 ADD PUSH1 0x60 DUP2 MSTORE PUSH1 0x20 ADD PUSH1 0x60 DUP2 MSTORE PUSH1 0x20 ADD PUSH1 0x60 DUP2 MSTORE PUSH1 0x20 ADD PUSH1 0x0 PUSH1 0x1 PUSH1 0x1 PUSH1 0xA0 SHL SUB AND DUP2 MSTORE PUSH1 0x20 ADD PUSH1 0x0 PUSH1 0x1 PUSH1 0x1 PUSH1 0xA0 SHL SUB AND DUP2 MSTORE PUSH1 0x20 ADD PUSH1 0x0 DUP2 MSTORE PUSH1 0x20 ADD PUSH1 0x0 DUP2 MSTORE PUSH1 0x20 ADD PUSH1 0x0 DUP2 MSTORE PUSH1 0x20 ADD PUSH1 0x60 DUP2 MSTORE PUSH1 0x20 ADD PUSH1 0x60 DUP2 MSTORE PUSH1 0x20 ADD PUSH1 0x0 PUSH1 0x3 DUP2 GT ISZERO PUSH2 0x366E JUMPI PUSH2 0x366E PUSH2 0x3769 JUMP JUMPDEST SWAP1 MSTORE SWAP1 JUMP JUMPDEST PUSH1 0x40 MLOAD DUP1 PUSH2 0x140 ADD PUSH1 0x40 MSTORE DUP1 PUSH1 0x0 DUP2 MSTORE PUSH1 0x20 ADD PUSH1 0x60 DUP2 MSTORE PUSH1 0x20 ADD PUSH1 0x0 PUSH1 0x1 PUSH1 0x1 PUSH1 0xA0 SHL SUB AND DUP2 MSTORE PUSH1 0x20 ADD PUSH1 0x60 DUP2 MSTORE PUSH1 0x20 ADD PUSH1 0x60 DUP2 MSTORE PUSH1 0x20 ADD PUSH1 0x60 DUP2 MSTORE PUSH1 0x20 ADD PUSH1 0x0 DUP2 MSTORE PUSH1 0x20 ADD PUSH1 0x0 DUP2 MSTORE PUSH1 0x20 ADD PUSH1 0x0 ISZERO ISZERO DUP2 MSTORE PUSH1 0x20 ADD PUSH1 0x0 DUP2 MSTORE POP SWAP1 JUMP JUMPDEST PUSH1 0x0 PUSH1 0x20 DUP3 DUP5 SUB SLT ISZERO PUSH2 0x36E3 JUMPI PUSH1 0x0 DUP1 REVERT JUMPDEST DUP2 CALLDATALOAD PUSH1 0x1 PUSH1 0x1 PUSH1 0xA0 SHL SUB DUP2 AND DUP2 EQ PUSH2 0x36FA JUMPI PUSH1 0x0 DUP1 REVERT JUMPDEST SWAP4 SWAP3 POP POP POP JUMP JUMPDEST PUSH1 0x0 DUP1 PUSH1 0x40 DUP4 DUP6 SUB SLT ISZERO PUSH2 0x3714 JUMPI PUSH1 0x0 DUP1 REVERT JUMPDEST POP POP DUP1 CALLDATALOAD SWAP3 PUSH1 0x20 SWAP1 SWAP2 ADD CALLDATALOAD SWAP2 POP JUMP JUMPDEST PUSH1 0x0 DUP2 MLOAD DUP1 DUP5 MSTORE PUSH1 0x0 JUMPDEST DUP2 DUP2 LT ISZERO PUSH2 0x3749 JUMPI PUSH1 0x20 DUP2 DUP6 ADD DUP2 ADD MLOAD DUP7 DUP4 ADD DUP3 ADD MSTORE ADD PUSH2 0x372D JUMP JUMPDEST POP PUSH1 0x0 PUSH1 0x20 DUP3 DUP7 ADD ADD MSTORE PUSH1 0x20 PUSH1 0x1F NOT PUSH1 0x1F DUP4 ADD AND DUP6 ADD ADD SWAP2 POP POP SWAP3 SWAP2 POP POP JUMP JUMPDEST PUSH4 0x4E487B71 PUSH1 0xE0 SHL PUSH1 0x0 MSTORE PUSH1 0x21 PUSH1 0x4 MSTORE PUSH1 0x24 PUSH1 0x0 REVERT JUMPDEST PUSH1 0x4 DUP2 LT PUSH2 0x379D JUMPI PUSH4 0x4E487B71 PUSH1 0xE0 SHL PUSH1 0x0 MSTORE PUSH1 0x21 PUSH1 0x4 MSTORE PUSH1 0x24 PUSH1 0x0 REVERT JUMPDEST SWAP1 MSTORE JUMP JUMPDEST PUSH1 0x0 PUSH2 0x1A0 DUP3 MLOAD DUP5 MSTORE PUSH1 0x20 DUP4 ADD MLOAD PUSH1 0x20 DUP6 ADD MSTORE PUSH1 0x40 DUP4 ADD MLOAD DUP2 PUSH1 0x40 DUP7 ADD MSTORE PUSH2 0x37CB DUP3 DUP7 ADD DUP3 PUSH2 0x3723 JUMP JUMPDEST SWAP2 POP POP PUSH1 0x60 DUP4 ADD MLOAD DUP5 DUP3 SUB PUSH1 0x60 DUP7 ADD MSTORE PUSH2 0x37E5 DUP3 DUP3 PUSH2 0x3723 JUMP JUMPDEST SWAP2 POP POP PUSH1 0x80 DUP4 ADD MLOAD DUP5 DUP3 SUB PUSH1 0x80 DUP7 ADD MSTORE PUSH2 0x37FF DUP3 DUP3 PUSH2 0x3723 JUMP JUMPDEST SWAP2 POP POP PUSH1 0xA0 DUP4 ADD MLOAD PUSH2 0x381C PUSH1 0xA0 DUP7 ADD DUP3 PUSH1 0x1 PUSH1 0x1 PUSH1 0xA0 SHL SUB AND SWAP1 MSTORE JUMP JUMPDEST POP PUSH1 0xC0 DUP4 ADD MLOAD PUSH2 0x3837 PUSH1 0xC0 DUP7 ADD DUP3 PUSH1 0x1 PUSH1 0x1 PUSH1 0xA0 SHL SUB AND SWAP1 MSTORE JUMP JUMPDEST POP PUSH1 0xE0 DUP4 DUP2 ADD MLOAD SWAP1 DUP6 ADD MSTORE PUSH2 0x100 DUP1 DUP5 ADD MLOAD SWAP1 DUP6 ADD MSTORE PUSH2 0x120 DUP1 DUP5 ADD MLOAD SWAP1 DUP6 ADD MSTORE PUSH2 0x140 DUP1 DUP5 ADD MLOAD DUP6 DUP4 SUB DUP3 DUP8 ADD MSTORE PUSH2 0x3870 DUP4 DUP3 PUSH2 0x3723 JUMP JUMPDEST SWAP3 POP POP POP PUSH2 0x160 DUP1 DUP5 ADD MLOAD DUP6 DUP4 SUB DUP3 DUP8 ADD MSTORE PUSH2 0x388C DUP4 DUP3 PUSH2 0x3723 JUMP JUMPDEST SWAP3 POP POP POP PUSH2 0x180 DUP1 DUP5 ADD MLOAD PUSH2 0x38A3 DUP3 DUP8 ADD DUP3 PUSH2 0x377F JUMP JUMPDEST POP SWAP1 SWAP5 SWAP4 POP POP POP POP JUMP JUMPDEST PUSH1 0x0 PUSH1 0x20 DUP1 DUP4 ADD DUP2 DUP5 MSTORE DUP1 DUP6 MLOAD DUP1 DUP4 MSTORE PUSH1 0x40 DUP7 ADD SWAP2 POP PUSH1 0x40 DUP2 PUSH1 0x5 SHL DUP8 ADD ADD SWAP3 POP DUP4 DUP8 ADD PUSH1 0x0 JUMPDEST DUP3 DUP2 LT ISZERO PUSH2 0x3902 JUMPI PUSH1 0x3F NOT DUP9 DUP7 SUB ADD DUP5 MSTORE PUSH2 0x38F0 DUP6 DUP4 MLOAD PUSH2 0x37A1 JUMP JUMPDEST SWAP5 POP SWAP3 DUP6 ADD SWAP3 SWAP1 DUP6 ADD SWAP1 PUSH1 0x1 ADD PUSH2 0x38D4 JUMP JUMPDEST POP SWAP3 SWAP8 SWAP7 POP POP POP POP POP POP POP JUMP JUMPDEST PUSH1 0x20 DUP2 MSTORE PUSH1 0x0 PUSH2 0x36FA PUSH1 0x20 DUP4 ADD DUP5 PUSH2 0x37A1 JUMP JUMPDEST PUSH1 0x0 PUSH1 0x20 DUP3 DUP5 SUB SLT ISZERO PUSH2 0x3934 JUMPI PUSH1 0x0 DUP1 REVERT JUMPDEST POP CALLDATALOAD SWAP2 SWAP1 POP JUMP JUMPDEST PUSH1 0x20 DUP1 DUP3 MSTORE DUP3 MLOAD DUP3 DUP3 ADD DUP2 SWAP1 MSTORE PUSH1 0x0 SWAP2 SWAP1 PUSH1 0x40 SWAP1 DUP2 DUP6 ADD SWAP1 DUP7 DUP5 ADD DUP6 JUMPDEST DUP3 DUP2 LT ISZERO PUSH2 0x399B JUMPI DUP2 MLOAD DUP1 MLOAD PUSH1 0x1 PUSH1 0x1 PUSH1 0xA0 SHL SUB AND DUP6 MSTORE DUP7 DUP2 ADD MLOAD DUP8 DUP7 ADD MSTORE DUP6 DUP2 ADD MLOAD DUP7 DUP7 ADD MSTORE PUSH1 0x60 SWAP1 DUP2 ADD MLOAD SWAP1 DUP6 ADD MSTORE PUSH1 0x80 SWAP1 SWAP4 ADD SWAP3 SWAP1 DUP6 ADD SWAP1 PUSH1 0x1 ADD PUSH2 0x3958 JUMP JUMPDEST POP SWAP2 SWAP8 SWAP7 POP POP POP POP POP POP POP JUMP JUMPDEST PUSH1 0x0 PUSH2 0x140 DUP3 MLOAD DUP5 MSTORE PUSH1 0x20 DUP4 ADD MLOAD DUP2 PUSH1 0x20 DUP7 ADD MSTORE PUSH2 0x39C8 DUP3 DUP7 ADD DUP3 PUSH2 0x3723 JUMP JUMPDEST SWAP2 POP POP PUSH1 0x40 DUP4 ADD MLOAD PUSH2 0x39E5 PUSH1 0x40 DUP7 ADD DUP3 PUSH1 0x1 PUSH1 0x1 PUSH1 0xA0 SHL SUB AND SWAP1 MSTORE JUMP JUMPDEST POP PUSH1 0x60 DUP4 ADD MLOAD DUP5 DUP3 SUB PUSH1 0x60 DUP7 ADD MSTORE PUSH2 0x39FD DUP3 DUP3 PUSH2 0x3723 JUMP JUMPDEST SWAP2 POP POP PUSH1 0x80 DUP4 ADD MLOAD DUP5 DUP3 SUB PUSH1 0x80 DUP7 ADD MSTORE PUSH2 0x3A17 DUP3 DUP3 PUSH2 0x3723 JUMP JUMPDEST SWAP2 POP POP PUSH1 0xA0 DUP4 ADD MLOAD DUP5 DUP3 SUB PUSH1 0xA0 DUP7 ADD MSTORE PUSH2 0x3A31 DUP3 DUP3 PUSH2 0x3723 JUMP JUMPDEST SWAP2 POP POP PUSH1 0xC0 DUP4 ADD MLOAD PUSH1 0xC0 DUP6 ADD MSTORE PUSH1 0xE0 DUP4 ADD MLOAD PUSH1 0xE0 DUP6 ADD MSTORE PUSH2 0x100 DUP1 DUP5 ADD MLOAD PUSH2 0x3A5C DUP3 DUP8 ADD DUP3 ISZERO ISZERO SWAP1 MSTORE JUMP JUMPDEST POP POP PUSH2 0x120 SWAP3 DUP4 ADD MLOAD SWAP4 SWAP1 SWAP3 ADD SWAP3 SWAP1 SWAP3 MSTORE SWAP2 SWAP1 POP JUMP JUMPDEST PUSH1 0x20 DUP2 MSTORE PUSH1 0x0 PUSH2 0x36FA PUSH1 0x20 DUP4 ADD DUP5 PUSH2 0x39A8 JUMP JUMPDEST PUSH4 0x4E487B71 PUSH1 0xE0 SHL PUSH1 0x0 MSTORE PUSH1 0x41 PUSH1 0x4 MSTORE PUSH1 0x24 PUSH1 0x0 REVERT JUMPDEST PUSH1 0x40 MLOAD PUSH1 0x1F DUP3 ADD PUSH1 0x1F NOT AND DUP2 ADD PUSH8 0xFFFFFFFFFFFFFFFF DUP2 GT DUP3 DUP3 LT OR ISZERO PUSH2 0x3AC4 JUMPI PUSH2 0x3AC4 PUSH2 0x3A85 JUMP JUMPDEST PUSH1 0x40 MSTORE SWAP2 SWAP1 POP JUMP JUMPDEST PUSH1 0x0 DUP3 PUSH1 0x1F DUP4 ADD SLT PUSH2 0x3ADD JUMPI PUSH1 0x0 DUP1 REVERT JUMPDEST DUP2 CALLDATALOAD PUSH8 0xFFFFFFFFFFFFFFFF DUP2 GT ISZERO PUSH2 0x3AF7 JUMPI PUSH2 0x3AF7 PUSH2 0x3A85 JUMP JUMPDEST PUSH2 0x3B0A PUSH1 0x1F DUP3 ADD PUSH1 0x1F NOT AND PUSH1 0x20 ADD PUSH2 0x3A9B JUMP JUMPDEST DUP2 DUP2 MSTORE DUP5 PUSH1 0x20 DUP4 DUP7 ADD ADD GT ISZERO PUSH2 0x3B1F JUMPI PUSH1 0x0 DUP1 REVERT JUMPDEST DUP2 PUSH1 0x20 DUP6 ADD PUSH1 0x20 DUP4 ADD CALLDATACOPY PUSH1 0x0 SWAP2 DUP2 ADD PUSH1 0x20 ADD SWAP2 SWAP1 SWAP2 MSTORE SWAP4 SWAP3 POP POP POP JUMP JUMPDEST PUSH1 0x0 DUP1 PUSH1 0x0 DUP1 PUSH1 0x0 DUP1 PUSH1 0xC0 DUP8 DUP10 SUB SLT ISZERO PUSH2 0x3B55 JUMPI PUSH1 0x0 DUP1 REVERT JUMPDEST DUP7 CALLDATALOAD SWAP6 POP PUSH1 0x20 DUP8 ADD CALLDATALOAD PUSH8 0xFFFFFFFFFFFFFFFF DUP1 DUP3 GT ISZERO PUSH2 0x3B74 JUMPI PUSH1 0x0 DUP1 REVERT JUMPDEST PUSH2 0x3B80 DUP11 DUP4 DUP12 ADD PUSH2 0x3ACC JUMP JUMPDEST SWAP7 POP PUSH1 0x40 DUP10 ADD CALLDATALOAD SWAP2 POP DUP1 DUP3 GT ISZERO PUSH2 0x3B96 JUMPI PUSH1 0x0 DUP1 REVERT JUMPDEST PUSH2 0x3BA2 DUP11 DUP4 DUP12 ADD PUSH2 0x3ACC JUMP JUMPDEST SWAP6 POP PUSH1 0x60 DUP10 ADD CALLDATALOAD SWAP2 POP DUP1 DUP3 GT ISZERO PUSH2 0x3BB8 JUMPI PUSH1 0x0 DUP1 REVERT JUMPDEST POP PUSH2 0x3BC5 DUP10 DUP3 DUP11 ADD PUSH2 0x3ACC JUMP JUMPDEST SWAP4 POP POP PUSH1 0x80 DUP8 ADD CALLDATALOAD SWAP2 POP PUSH1 0xA0 DUP8 ADD CALLDATALOAD SWAP1 POP SWAP3 SWAP6 POP SWAP3 SWAP6 POP SWAP3 SWAP6 JUMP JUMPDEST PUSH1 0x0 PUSH1 0x20 DUP1 DUP4 ADD DUP2 DUP5 MSTORE DUP1 DUP6 MLOAD DUP1 DUP4 MSTORE PUSH1 0x40 DUP7 ADD SWAP2 POP PUSH1 0x40 DUP2 PUSH1 0x5 SHL DUP8 ADD ADD SWAP3 POP DUP4 DUP8 ADD PUSH1 0x0 JUMPDEST DUP3 DUP2 LT ISZERO PUSH2 0x3902 JUMPI PUSH1 0x3F NOT DUP9 DUP7 SUB ADD DUP5 MSTORE PUSH2 0x3C23 DUP6 DUP4 MLOAD PUSH2 0x39A8 JUMP JUMPDEST SWAP5 POP SWAP3 DUP6 ADD SWAP3 SWAP1 DUP6 ADD SWAP1 PUSH1 0x1 ADD PUSH2 0x3C07 JUMP JUMPDEST PUSH1 0x0 DUP1 PUSH1 0x0 DUP1 PUSH1 0x0 DUP1 PUSH1 0xC0 DUP8 DUP10 SUB SLT ISZERO PUSH2 0x3C4E JUMPI PUSH1 0x0 DUP1 REVERT JUMPDEST DUP7 CALLDATALOAD PUSH8 0xFFFFFFFFFFFFFFFF DUP1 DUP3 GT ISZERO PUSH2 0x3C66 JUMPI PUSH1 0x0 DUP1 REVERT JUMPDEST PUSH2 0x3C72 DUP11 DUP4 DUP12 ADD PUSH2 0x3ACC JUMP JUMPDEST SWAP8 POP PUSH1 0x20 DUP10 ADD CALLDATALOAD SWAP2 POP DUP1 DUP3 GT ISZERO PUSH2 0x3B74 JUMPI PUSH1 0x0 DUP1 REVERT JUMPDEST PUSH1 0x0 DUP3 PUSH1 0x1F DUP4 ADD SLT PUSH2 0x3C99 JUMPI PUSH1 0x0 DUP1 REVERT JUMPDEST DUP2 CALLDATALOAD PUSH1 0x20 PUSH8 0xFFFFFFFFFFFFFFFF DUP3 GT ISZERO PUSH2 0x3CB5 JUMPI PUSH2 0x3CB5 PUSH2 0x3A85 JUMP JUMPDEST DUP2 PUSH1 0x5 SHL PUSH2 0x3CC4 DUP3 DUP3 ADD PUSH2 0x3A9B JUMP JUMPDEST SWAP3 DUP4 MSTORE DUP5 DUP2 ADD DUP3 ADD SWAP3 DUP3 DUP2 ADD SWAP1 DUP8 DUP6 GT ISZERO PUSH2 0x3CDE JUMPI PUSH1 0x0 DUP1 REVERT JUMPDEST DUP4 DUP8 ADD SWAP3 POP JUMPDEST DUP5 DUP4 LT ISZERO PUSH2 0x3CFD JUMPI DUP3 CALLDATALOAD DUP3 MSTORE SWAP2 DUP4 ADD SWAP2 SWAP1 DUP4 ADD SWAP1 PUSH2 0x3CE4 JUMP JUMPDEST SWAP8 SWAP7 POP POP POP POP POP POP POP JUMP JUMPDEST PUSH1 0x0 DUP1 PUSH1 0x0 DUP1 PUSH1 0x80 DUP6 DUP8 SUB SLT ISZERO PUSH2 0x3D1E JUMPI PUSH1 0x0 DUP1 REVERT JUMPDEST DUP5 CALLDATALOAD PUSH8 0xFFFFFFFFFFFFFFFF DUP1 DUP3 GT ISZERO PUSH2 0x3D36 JUMPI PUSH1 0x0 DUP1 REVERT JUMPDEST PUSH2 0x3D42 DUP9 DUP4 DUP10 ADD PUSH2 0x3C88 JUMP JUMPDEST SWAP6 POP PUSH1 0x20 DUP8 ADD CALLDATALOAD SWAP2 POP DUP1 DUP3 GT ISZERO PUSH2 0x3D58 JUMPI PUSH1 0x0 DUP1 REVERT JUMPDEST PUSH2 0x3D64 DUP9 DUP4 DUP10 ADD PUSH2 0x3C88 JUMP JUMPDEST SWAP5 POP PUSH1 0x40 DUP8 ADD CALLDATALOAD SWAP2 POP DUP1 DUP3 GT ISZERO PUSH2 0x3D7A JUMPI PUSH1 0x0 DUP1 REVERT JUMPDEST PUSH2 0x3D86 DUP9 DUP4 DUP10 ADD PUSH2 0x3ACC JUMP JUMPDEST SWAP4 POP PUSH1 0x60 DUP8 ADD CALLDATALOAD SWAP2 POP DUP1 DUP3 GT ISZERO PUSH2 0x3D9C JUMPI PUSH1 0x0 DUP1 REVERT JUMPDEST POP PUSH2 0x3DA9 DUP8 DUP3 DUP9 ADD PUSH2 0x3ACC JUMP JUMPDEST SWAP2 POP POP SWAP3 SWAP6 SWAP2 SWAP5 POP SWAP3 POP JUMP JUMPDEST PUSH4 0x4E487B71 PUSH1 0xE0 SHL PUSH1 0x0 MSTORE PUSH1 0x32 PUSH1 0x4 MSTORE PUSH1 0x24 PUSH1 0x0 REVERT JUMPDEST PUSH1 0x1 DUP2 DUP2 SHR SWAP1 DUP3 AND DUP1 PUSH2 0x3DDF JUMPI PUSH1 0x7F DUP3 AND SWAP2 POP JUMPDEST PUSH1 0x20 DUP3 LT DUP2 SUB PUSH2 0x3DFF JUMPI PUSH4 0x4E487B71 PUSH1 0xE0 SHL PUSH1 0x0 MSTORE PUSH1 0x22 PUSH1 0x4 MSTORE PUSH1 0x24 PUSH1 0x0 REVERT JUMPDEST POP SWAP2 SWAP1 POP JUMP JUMPDEST PUSH4 0x4E487B71 PUSH1 0xE0 SHL PUSH1 0x0 MSTORE PUSH1 0x11 PUSH1 0x4 MSTORE PUSH1 0x24 PUSH1 0x0 REVERT JUMPDEST PUSH1 0x0 PUSH1 0x1 DUP3 ADD PUSH2 0x3E2D JUMPI PUSH2 0x3E2D PUSH2 0x3E05 JUMP JUMPDEST POP PUSH1 0x1 ADD SWAP1 JUMP JUMPDEST PUSH1 0x20 DUP1 DUP3 MSTORE PUSH1 0xF SWAP1 DUP3 ADD MSTORE PUSH15 0x13DC99195C881B9BDD08199BDD5B99 PUSH1 0x8A SHL PUSH1 0x40 DUP3 ADD MSTORE PUSH1 0x60 ADD SWAP1 JUMP JUMPDEST DUP1 DUP3 ADD DUP1 DUP3 GT ISZERO PUSH2 0xC45 JUMPI PUSH2 0xC45 PUSH2 0x3E05 JUMP JUMPDEST PUSH1 0x1F DUP3 GT ISZERO PUSH2 0x3046 JUMPI PUSH1 0x0 DUP2 DUP2 MSTORE PUSH1 0x20 DUP2 KECCAK256 PUSH1 0x1F DUP6 ADD PUSH1 0x5 SHR DUP2 ADD PUSH1 0x20 DUP7 LT ISZERO PUSH2 0x3E97 JUMPI POP DUP1 JUMPDEST PUSH1 0x1F DUP6 ADD PUSH1 0x5 SHR DUP3 ADD SWAP2 POP JUMPDEST DUP2 DUP2 LT ISZERO PUSH2 0x3EB6 JUMPI DUP3 DUP2 SSTORE PUSH1 0x1 ADD PUSH2 0x3EA3 JUMP JUMPDEST POP POP POP POP POP POP JUMP JUMPDEST DUP2 MLOAD PUSH8 0xFFFFFFFFFFFFFFFF DUP2 GT ISZERO PUSH2 0x3ED8 JUMPI PUSH2 0x3ED8 PUSH2 0x3A85 JUMP JUMPDEST PUSH2 0x3EEC DUP2 PUSH2 0x3EE6 DUP5 SLOAD PUSH2 0x3DCB JUMP JUMPDEST DUP5 PUSH2 0x3E70 JUMP JUMPDEST PUSH1 0x20 DUP1 PUSH1 0x1F DUP4 GT PUSH1 0x1 DUP2 EQ PUSH2 0x3F21 JUMPI PUSH1 0x0 DUP5 ISZERO PUSH2 0x3F09 JUMPI POP DUP6 DUP4 ADD MLOAD JUMPDEST PUSH1 0x0 NOT PUSH1 0x3 DUP7 SWAP1 SHL SHR NOT AND PUSH1 0x1 DUP6 SWAP1 SHL OR DUP6 SSTORE PUSH2 0x3EB6 JUMP JUMPDEST PUSH1 0x0 DUP6 DUP2 MSTORE PUSH1 0x20 DUP2 KECCAK256 PUSH1 0x1F NOT DUP7 AND SWAP2 JUMPDEST DUP3 DUP2 LT ISZERO PUSH2 0x3F50 JUMPI DUP9 DUP7 ADD MLOAD DUP3 SSTORE SWAP5 DUP5 ADD SWAP5 PUSH1 0x1 SWAP1 SWAP2 ADD SWAP1 DUP5 ADD PUSH2 0x3F31 JUMP JUMPDEST POP DUP6 DUP3 LT ISZERO PUSH2 0x3F6E JUMPI DUP8 DUP6 ADD MLOAD PUSH1 0x0 NOT PUSH1 0x3 DUP9 SWAP1 SHL PUSH1 0xF8 AND SHR NOT AND DUP2 SSTORE JUMPDEST POP POP POP POP POP PUSH1 0x1 SWAP1 DUP2 SHL ADD SWAP1 SSTORE POP JUMP JUMPDEST DUP2 DUP2 SUB DUP2 DUP2 GT ISZERO PUSH2 0xC45 JUMPI PUSH2 0xC45 PUSH2 0x3E05 JUMP JUMPDEST DUP1 DUP3 MUL DUP2 ISZERO DUP3 DUP3 DIV DUP5 EQ OR PUSH2 0xC45 JUMPI PUSH2 0xC45 PUSH2 0x3E05 JUMP INVALID LOG2 PUSH5 0x6970667358 0x22 SLT KECCAK256 0x24 SWAP7 CALLDATASIZE 0xA7 SLT SWAP3 0xF 0xD PUSH23 0x3A96A5B41F9DF2562DD15671CF35E5AB199C7A2C24657F PUSH5 0x736F6C6343 STOP ADDMOD GT STOP CALLER "},"methodIdentifiers":{"cancelOrder(uint256,uint256)":"b6ed0632","createOrder(uint256[],uint256[],string,string)":"e0e83bb3","createProduct(string,string,string,string,uint256,uint256)":"c39e0b2b","deleteProduct(uint256)":"ed90c7b7","deliverOrder(uint256,uint256)":"e6e110ce","fee()":"ddca3f43","getBuyers(uint256)":"7feafd20","getOrder(uint256,uint256)":"5e1a3573","getOrders()":"2e2dc43e","getProduct(uint256)":"b9db15b4","getProducts()":"c29b2f20","orderExist(uint256,uint256)":"1f2337a1","owner()":"8da5cb5b","productExist(uint256)":"e77a67ea","stats()":"d80528ae","statsOf(address)":"15cfc405","updateProduct(uint256,string,string,string,uint256,uint256)":"bab8d872"}}}}}