{
  "_format": "hh-sol-artifact-1",
  "contractName": "Shop",
  "sourceName": "src/contracts/Shop.sol",
  "abi": [
    {
      "inputs": [
        {
          "internalType": "uint256",
          "name": "_fee",
          "type": "uint256"
        }
      ],
      "stateMutability": "nonpayable",
      "type": "constructor"
    },
    {
      "anonymous": false,
      "inputs": [
        {
          "indexed": false,
          "internalType": "uint256",
          "name": "id",
          "type": "uint256"
        },
        {
          "indexed": true,
          "internalType": "address",
          "name": "buyer",
          "type": "address"
        },
        {
          "indexed": true,
          "internalType": "address",
          "name": "seller",
          "type": "address"
        },
        {
          "indexed": false,
          "internalType": "uint256",
          "name": "price",
          "type": "uint256"
        },
        {
          "indexed": false,
          "internalType": "uint256",
          "name": "timestamp",
          "type": "uint256"
        }
      ],
      "name": "Sale",
      "type": "event"
    },
    {
      "inputs": [
        {
          "internalType": "uint256",
          "name": "pid",
          "type": "uint256"
        },
        {
          "internalType": "uint256",
          "name": "id",
          "type": "uint256"
        }
      ],
      "name": "cancelOrder",
      "outputs": [
        {
          "internalType": "bool",
          "name": "",
          "type": "bool"
        }
      ],
      "stateMutability": "nonpayable",
      "type": "function"
    },
    {
      "inputs": [
        {
          "internalType": "uint256[]",
          "name": "ids",
          "type": "uint256[]"
        },
        {
          "internalType": "uint256[]",
          "name": "qtys",
          "type": "uint256[]"
        },
        {
          "internalType": "string",
          "name": "destination",
          "type": "string"
        },
        {
          "internalType": "string",
          "name": "phone",
          "type": "string"
        }
      ],
      "name": "createOrder",
      "outputs": [
        {
          "internalType": "bool",
          "name": "",
          "type": "bool"
        }
      ],
      "stateMutability": "payable",
      "type": "function"
    },
    {
      "inputs": [
        {
          "internalType": "string",
          "name": "sku",
          "type": "string"
        },
        {
          "internalType": "string",
          "name": "name",
          "type": "string"
        },
        {
          "internalType": "string",
          "name": "description",
          "type": "string"
        },
        {
          "internalType": "string",
          "name": "imageURL",
          "type": "string"
        },
        {
          "internalType": "uint256",
          "name": "price",
          "type": "uint256"
        },
        {
          "internalType": "uint256",
          "name": "stock",
          "type": "uint256"
        }
      ],
      "name": "createProduct",
      "outputs": [
        {
          "internalType": "bool",
          "name": "",
          "type": "bool"
        }
      ],
      "stateMutability": "payable",
      "type": "function"
    },
    {
      "inputs": [
        {
          "internalType": "uint256",
          "name": "id",
          "type": "uint256"
        }
      ],
      "name": "deleteProduct",
      "outputs": [
        {
          "internalType": "bool",
          "name": "",
          "type": "bool"
        }
      ],
      "stateMutability": "nonpayable",
      "type": "function"
    },
    {
      "inputs": [
        {
          "internalType": "uint256",
          "name": "pid",
          "type": "uint256"
        },
        {
          "internalType": "uint256",
          "name": "id",
          "type": "uint256"
        }
      ],
      "name": "deliverOrder",
      "outputs": [
        {
          "internalType": "bool",
          "name": "",
          "type": "bool"
        }
      ],
      "stateMutability": "nonpayable",
      "type": "function"
    },
    {
      "inputs": [],
      "name": "fee",
      "outputs": [
        {
          "internalType": "uint256",
          "name": "",
          "type": "uint256"
        }
      ],
      "stateMutability": "view",
      "type": "function"
    },
    {
      "inputs": [
        {
          "internalType": "uint256",
          "name": "pid",
          "type": "uint256"
        }
      ],
      "name": "getBuyers",
      "outputs": [
        {
          "components": [
            {
              "internalType": "address",
              "name": "buyer",
              "type": "address"
            },
            {
              "internalType": "uint256",
              "name": "price",
              "type": "uint256"
            },
            {
              "internalType": "uint256",
              "name": "qty",
              "type": "uint256"
            },
            {
              "internalType": "uint256",
              "name": "timestamp",
              "type": "uint256"
            }
          ],
          "internalType": "struct Shop.BuyerStruct[]",
          "name": "buyers",
          "type": "tuple[]"
        }
      ],
      "stateMutability": "view",
      "type": "function"
    },
    {
      "inputs": [
        {
          "internalType": "uint256",
          "name": "pid",
          "type": "uint256"
        },
        {
          "internalType": "uint256",
          "name": "id",
          "type": "uint256"
        }
      ],
      "name": "getOrder",
      "outputs": [
        {
          "components": [
            {
              "internalType": "uint256",
              "name": "pid",
              "type": "uint256"
            },
            {
              "internalType": "uint256",
              "name": "id",
              "type": "uint256"
            },
            {
              "internalType": "string",
              "name": "sku",
              "type": "string"
            },
            {
              "internalType": "string",
              "name": "name",
              "type": "string"
            },
            {
              "internalType": "string",
              "name": "imageURL",
              "type": "string"
            },
            {
              "internalType": "address",
              "name": "buyer",
              "type": "address"
            },
            {
              "internalType": "address",
              "name": "seller",
              "type": "address"
            },
            {
              "internalType": "uint256",
              "name": "qty",
              "type": "uint256"
            },
            {
              "internalType": "uint256",
              "name": "total",
              "type": "uint256"
            },
            {
              "internalType": "uint256",
              "name": "timestamp",
              "type": "uint256"
            },
            {
              "internalType": "string",
              "name": "destination",
              "type": "string"
            },
            {
              "internalType": "string",
              "name": "phone",
              "type": "string"
            },
            {
              "internalType": "enum Shop.OrderEnum",
              "name": "status",
              "type": "uint8"
            }
          ],
          "internalType": "struct Shop.OrderStruct",
          "name": "",
          "type": "tuple"
        }
      ],
      "stateMutability": "view",
      "type": "function"
    },
    {
      "inputs": [],
      "name": "getOrders",
      "outputs": [
        {
          "components": [
            {
              "internalType": "uint256",
              "name": "pid",
              "type": "uint256"
            },
            {
              "internalType": "uint256",
              "name": "id",
              "type": "uint256"
            },
            {
              "internalType": "string",
              "name": "sku",
              "type": "string"
            },
            {
              "internalType": "string",
              "name": "name",
              "type": "string"
            },
            {
              "internalType": "string",
              "name": "imageURL",
              "type": "string"
            },
            {
              "internalType": "address",
              "name": "buyer",
              "type": "address"
            },
            {
              "internalType": "address",
              "name": "seller",
              "type": "address"
            },
            {
              "internalType": "uint256",
              "name": "qty",
              "type": "uint256"
            },
            {
              "internalType": "uint256",
              "name": "total",
              "type": "uint256"
            },
            {
              "internalType": "uint256",
              "name": "timestamp",
              "type": "uint256"
            },
            {
              "internalType": "string",
              "name": "destination",
              "type": "string"
            },
            {
              "internalType": "string",
              "name": "phone",
              "type": "string"
            },
            {
              "internalType": "enum Shop.OrderEnum",
              "name": "status",
              "type": "uint8"
            }
          ],
          "internalType": "struct Shop.OrderStruct[]",
          "name": "props",
          "type": "tuple[]"
        }
      ],
      "stateMutability": "view",
      "type": "function"
    },
    {
      "inputs": [
        {
          "internalType": "uint256",
          "name": "id",
          "type": "uint256"
        }
      ],
      "name": "getProduct",
      "outputs": [
        {
          "components": [
            {
              "internalType": "uint256",
              "name": "id",
              "type": "uint256"
            },
            {
              "internalType": "string",
              "name": "sku",
              "type": "string"
            },
            {
              "internalType": "address",
              "name": "seller",
              "type": "address"
            },
            {
              "internalType": "string",
              "name": "name",
              "type": "string"
            },
            {
              "internalType": "string",
              "name": "imageURL",
              "type": "string"
            },
            {
              "internalType": "string",
              "name": "description",
              "type": "string"
            },
            {
              "internalType": "uint256",
              "name": "price",
              "type": "uint256"
            },
            {
              "internalType": "uint256",
              "name": "timestamp",
              "type": "uint256"
            },
            {
              "internalType": "bool",
              "name": "deleted",
              "type": "bool"
            },
            {
              "internalType": "uint256",
              "name": "stock",
              "type": "uint256"
            }
          ],
          "internalType": "struct Shop.ProductStruct",
          "name": "",
          "type": "tuple"
        }
      ],
      "stateMutability": "view",
      "type": "function"
    },
    {
      "inputs": [],
      "name": "getProducts",
      "outputs": [
        {
          "components": [
            {
              "internalType": "uint256",
              "name": "id",
              "type": "uint256"
            },
            {
              "internalType": "string",
              "name": "sku",
              "type": "string"
            },
            {
              "internalType": "address",
              "name": "seller",
              "type": "address"
            },
            {
              "internalType": "string",
              "name": "name",
              "type": "string"
            },
            {
              "internalType": "string",
              "name": "imageURL",
              "type": "string"
            },
            {
              "internalType": "string",
              "name": "description",
              "type": "string"
            },
            {
              "internalType": "uint256",
              "name": "price",
              "type": "uint256"
            },
            {
              "internalType": "uint256",
              "name": "timestamp",
              "type": "uint256"
            },
            {
              "internalType": "bool",
              "name": "deleted",
              "type": "bool"
            },
            {
              "internalType": "uint256",
              "name": "stock",
              "type": "uint256"
            }
          ],
          "internalType": "struct Shop.ProductStruct[]",
          "name": "",
          "type": "tuple[]"
        }
      ],
      "stateMutability": "view",
      "type": "function"
    },
    {
      "inputs": [
        {
          "internalType": "uint256",
          "name": "",
          "type": "uint256"
        },
        {
          "internalType": "uint256",
          "name": "",
          "type": "uint256"
        }
      ],
      "name": "orderExist",
      "outputs": [
        {
          "internalType": "bool",
          "name": "",
          "type": "bool"
        }
      ],
      "stateMutability": "view",
      "type": "function"
    },
    {
      "inputs": [],
      "name": "owner",
      "outputs": [
        {
          "internalType": "address",
          "name": "",
          "type": "address"
        }
      ],
      "stateMutability": "view",
      "type": "function"
    },
    {
      "inputs": [
        {
          "internalType": "uint256",
          "name": "",
          "type": "uint256"
        }
      ],
      "name": "productExist",
      "outputs": [
        {
          "internalType": "bool",
          "name": "",
          "type": "bool"
        }
      ],
      "stateMutability": "view",
      "type": "function"
    },
    {
      "inputs": [],
      "name": "stats",
      "outputs": [
        {
          "internalType": "uint256",
          "name": "products",
          "type": "uint256"
        },
        {
          "internalType": "uint256",
          "name": "orders",
          "type": "uint256"
        },
        {
          "internalType": "uint256",
          "name": "sellers",
          "type": "uint256"
        },
        {
          "internalType": "uint256",
          "name": "sales",
          "type": "uint256"
        },
        {
          "internalType": "uint256",
          "name": "paid",
          "type": "uint256"
        },
        {
          "internalType": "uint256",
          "name": "balance",
          "type": "uint256"
        }
      ],
      "stateMutability": "view",
      "type": "function"
    },
    {
      "inputs": [
        {
          "internalType": "address",
          "name": "",
          "type": "address"
        }
      ],
      "name": "statsOf",
      "outputs": [
        {
          "internalType": "uint256",
          "name": "products",
          "type": "uint256"
        },
        {
          "internalType": "uint256",
          "name": "orders",
          "type": "uint256"
        },
        {
          "internalType": "uint256",
          "name": "sellers",
          "type": "uint256"
        },
        {
          "internalType": "uint256",
          "name": "sales",
          "type": "uint256"
        },
        {
          "internalType": "uint256",
          "name": "paid",
          "type": "uint256"
        },
        {
          "internalType": "uint256",
          "name": "balance",
          "type": "uint256"
        }
      ],
      "stateMutability": "view",
      "type": "function"
    },
    {
      "inputs": [
        {
          "internalType": "uint256",
          "name": "id",
          "type": "uint256"
        },
        {
          "internalType": "string",
          "name": "name",
          "type": "string"
        },
        {
          "internalType": "string",
          "name": "description",
          "type": "string"
        },
        {
          "internalType": "string",
          "name": "imageURL",
          "type": "string"
        },
        {
          "internalType": "uint256",
          "name": "price",
          "type": "uint256"
        },
        {
          "internalType": "uint256",
          "name": "stock",
          "type": "uint256"
        }
      ],
      "name": "updateProduct",
      "outputs": [
        {
          "internalType": "bool",
          "name": "",
          "type": "bool"
        }
      ],
      "stateMutability": "nonpayable",
      "type": "function"
    }
  ],
  "bytecode": "0x60806040523480156200001157600080fd5b50604051620040573803806200405783398101604081905262000034916200004f565b600080546001600160a01b0319163317905560075562000069565b6000602082840312156200006257600080fd5b5051919050565b613fde80620000796000396000f3fe6080604052600436106100fe5760003560e01c8063bab8d87211610095578063ddca3f4311610064578063ddca3f4314610351578063e0e83bb314610375578063e6e110ce14610388578063e77a67ea146103a8578063ed90c7b7146103d857600080fd5b8063bab8d872146102d1578063c29b2f20146102f1578063c39e0b2b14610313578063d80528ae1461032657600080fd5b80637feafd20116100d15780637feafd201461021f5780638da5cb5b1461024c578063b6ed063214610284578063b9db15b4146102a457600080fd5b806315cfc405146101035780631f2337a1146101855780632e2dc43e146101d05780635e1a3573146101f2575b600080fd5b34801561010f57600080fd5b5061015361011e3660046136d1565b600b60205260009081526040902080546001820154600283015460038401546004850154600590950154939492939192909186565b604080519687526020870195909552938501929092526060840152608083015260a082015260c0015b60405180910390f35b34801561019157600080fd5b506101c06101a0366004613701565b600e60209081526000928352604080842090915290825290205460ff1681565b604051901515815260200161017c565b3480156101dc57600080fd5b506101e56103f8565b60405161017c91906138ad565b3480156101fe57600080fd5b5061021261020d366004613701565b61085c565b60405161017c919061390f565b34801561022b57600080fd5b5061023f61023a366004613922565b610c4b565b60405161017c919061393b565b34801561025857600080fd5b5060005461026c906001600160a01b031681565b6040516001600160a01b03909116815260200161017c565b34801561029057600080fd5b506101c061029f366004613701565b610d36565b3480156102b057600080fd5b506102c46102bf366004613922565b61135c565b60405161017c9190613a72565b3480156102dd57600080fd5b506101c06102ec366004613b3c565b611680565b3480156102fd57600080fd5b50610306611957565b60405161017c9190613be0565b6101c0610321366004613c35565b611c53565b34801561033257600080fd5b5060015460025460035460045460055460065461015395949392919086565b34801561035d57600080fd5b5061036760075481565b60405190815260200161017c565b6101c0610383366004613d08565b61201c565b34801561039457600080fd5b506101c06103a3366004613701565b612812565b3480156103b457600080fd5b506101c06103c3366004613922565b600d6020526000908152604090205460ff1681565b3480156103e457600080fd5b506101c06103f3366004613922565b612f27565b60025460609067ffffffffffffffff81111561041657610416613a85565b60405190808252806020026020018201604052801561044f57816020015b61043c6135e9565b8152602001906001900390816104345790505b50905060005b6002548110156108585760005b6000828152600a6020526040902054811015610845576000828152600a6020526040902080548290811061049857610498613db5565b90600052602060002090600d0201604051806101a001604052908160008201548152602001600182015481526020016002820180546104d690613dcb565b80601f016020809104026020016040519081016040528092919081815260200182805461050290613dcb565b801561054f5780601f106105245761010080835404028352916020019161054f565b820191906000526020600020905b81548152906001019060200180831161053257829003601f168201915b5050505050815260200160038201805461056890613dcb565b80601f016020809104026020016040519081016040528092919081815260200182805461059490613dcb565b80156105e15780601f106105b6576101008083540402835291602001916105e1565b820191906000526020600020905b8154815290600101906020018083116105c457829003601f168201915b505050505081526020016004820180546105fa90613dcb565b80601f016020809104026020016040519081016040528092919081815260200182805461062690613dcb565b80156106735780601f1061064857610100808354040283529160200191610673565b820191906000526020600020905b81548152906001019060200180831161065657829003601f168201915b505050918352505060058201546001600160a01b03908116602083015260068301541660408201526007820154606082015260088201546080820152600982015460a0820152600a8201805460c0909201916106ce90613dcb565b80601f01602080910402602001604051908101604052809291908181526020018280546106fa90613dcb565b80156107475780601f1061071c57610100808354040283529160200191610747565b820191906000526020600020905b81548152906001019060200180831161072a57829003601f168201915b50505050508152602001600b8201805461076090613dcb565b80601f016020809104026020016040519081016040528092919081815260200182805461078c90613dcb565b80156107d95780601f106107ae576101008083540402835291602001916107d9565b820191906000526020600020905b8154815290600101906020018083116107bc57829003601f168201915b5050509183525050600c82015460209091019060ff16600381111561080057610800613769565b600381111561081157610811613769565b8152505083838151811061082757610827613db5565b6020026020010181905250808061083d90613e1b565b915050610462565b508061085081613e1b565b915050610455565b5090565b6108646135e9565b6000838152600e6020908152604080832085845290915290205460ff166108a65760405162461bcd60e51b815260040161089d90613e34565b60405180910390fd5b6000838152600a602052604090208054839081106108c6576108c6613db5565b90600052602060002090600d0201604051806101a0016040529081600082015481526020016001820154815260200160028201805461090490613dcb565b80601f016020809104026020016040519081016040528092919081815260200182805461093090613dcb565b801561097d5780601f106109525761010080835404028352916020019161097d565b820191906000526020600020905b81548152906001019060200180831161096057829003601f168201915b5050505050815260200160038201805461099690613dcb565b80601f01602080910402602001604051908101604052809291908181526020018280546109c290613dcb565b8015610a0f5780601f106109e457610100808354040283529160200191610a0f565b820191906000526020600020905b8154815290600101906020018083116109f257829003601f168201915b50505050508152602001600482018054610a2890613dcb565b80601f0160208091040260200160405190810160405280929190818152602001828054610a5490613dcb565b8015610aa15780601f10610a7657610100808354040283529160200191610aa1565b820191906000526020600020905b815481529060010190602001808311610a8457829003601f168201915b505050918352505060058201546001600160a01b03908116602083015260068301541660408201526007820154606082015260088201546080820152600982015460a0820152600a8201805460c090920191610afc90613dcb565b80601f0160208091040260200160405190810160405280929190818152602001828054610b2890613dcb565b8015610b755780601f10610b4a57610100808354040283529160200191610b75565b820191906000526020600020905b815481529060010190602001808311610b5857829003601f168201915b50505050508152602001600b82018054610b8e90613dcb565b80601f0160208091040260200160405190810160405280929190818152602001828054610bba90613dcb565b8015610c075780601f10610bdc57610100808354040283529160200191610c07565b820191906000526020600020905b815481529060010190602001808311610bea57829003601f168201915b5050509183525050600c82015460209091019060ff166003811115610c2e57610c2e613769565b6003811115610c3f57610c3f613769565b90525090505b92915050565b6000818152600d602052604090205460609060ff16610ca55760405162461bcd60e51b8152602060048201526016602482015275141c9bd91d58dd08191bd95cc81b9bdd08195e1a5cdd60521b604482015260640161089d565b6000828152600c6020908152604080832080548251818502810185019093528083529193909284015b82821015610d2b576000848152602090819020604080516080810182526004860290920180546001600160a01b03168352600180820154848601526002820154928401929092526003015460608301529083529092019101610cce565b505050509050919050565b6000828152600e6020908152604080832084845290915281205460ff16610d6f5760405162461bcd60e51b815260040161089d90613e34565b6000838152600a60205260408120805484908110610d8f57610d8f613db5565b90600052602060002090600d0201604051806101a00160405290816000820154815260200160018201548152602001600282018054610dcd90613dcb565b80601f0160208091040260200160405190810160405280929190818152602001828054610df990613dcb565b8015610e465780601f10610e1b57610100808354040283529160200191610e46565b820191906000526020600020905b815481529060010190602001808311610e2957829003601f168201915b50505050508152602001600382018054610e5f90613dcb565b80601f0160208091040260200160405190810160405280929190818152602001828054610e8b90613dcb565b8015610ed85780601f10610ead57610100808354040283529160200191610ed8565b820191906000526020600020905b815481529060010190602001808311610ebb57829003601f168201915b50505050508152602001600482018054610ef190613dcb565b80601f0160208091040260200160405190810160405280929190818152602001828054610f1d90613dcb565b8015610f6a5780601f10610f3f57610100808354040283529160200191610f6a565b820191906000526020600020905b815481529060010190602001808311610f4d57829003601f168201915b505050918352505060058201546001600160a01b03908116602083015260068301541660408201526007820154606082015260088201546080820152600982015460a0820152600a8201805460c090920191610fc590613dcb565b80601f0160208091040260200160405190810160405280929190818152602001828054610ff190613dcb565b801561103e5780601f106110135761010080835404028352916020019161103e565b820191906000526020600020905b81548152906001019060200180831161102157829003601f168201915b50505050508152602001600b8201805461105790613dcb565b80601f016020809104026020016040519081016040528092919081815260200182805461108390613dcb565b80156110d05780601f106110a5576101008083540402835291602001916110d0565b820191906000526020600020905b8154815290600101906020018083116110b357829003601f168201915b5050509183525050600c82015460209091019060ff1660038111156110f7576110f7613769565b600381111561110857611108613769565b90525060a08101519091506001600160a01b031633146111605760405162461bcd60e51b8152602060048201526013602482015272556e617574686f72697a656420456e7469747960681b604482015260640161089d565b6002816101800151600381111561117957611179613769565b036111bf5760405162461bcd60e51b815260206004820152601660248201527513dc99195c88185b1c9958591e4818d85b98d95b195960521b604482015260640161089d565b600261018082015260e081015181516008805490919081106111e3576111e3613db5565b90600052602060002090600a020160090160008282546112039190613e5d565b90915550506000848152600a6020526040902080548291908590811061122b5761122b613db5565b90600052602060002090600d0201600082015181600001556020820151816001015560408201518160020190816112629190613ebe565b50606082015160038201906112779082613ebe565b506080820151600482019061128c9082613ebe565b5060a08201516005820180546001600160a01b039283166001600160a01b03199182161790915560c084015160068401805491909316911617905560e0820151600782015561010082015160088201556101208201516009820155610140820151600a8201906112fc9082613ebe565b50610160820151600b8201906113129082613ebe565b50610180820151600c8201805460ff1916600183600381111561133757611337613769565b02179055509050506113528160a00151826101000151612fe6565b5060019392505050565b611364613673565b6000828152600d602052604090205460ff166113b65760405162461bcd60e51b8152602060048201526011602482015270141c9bd91d58dd081b9bdd08199bdd5b99607a1b604482015260640161089d565b600882815481106113c9576113c9613db5565b90600052602060002090600a020160405180610140016040529081600082015481526020016001820180546113fd90613dcb565b80601f016020809104026020016040519081016040528092919081815260200182805461142990613dcb565b80156114765780601f1061144b57610100808354040283529160200191611476565b820191906000526020600020905b81548152906001019060200180831161145957829003601f168201915b505050918352505060028201546001600160a01b031660208201526003820180546040909201916114a690613dcb565b80601f01602080910402602001604051908101604052809291908181526020018280546114d290613dcb565b801561151f5780601f106114f45761010080835404028352916020019161151f565b820191906000526020600020905b81548152906001019060200180831161150257829003601f168201915b5050505050815260200160048201805461153890613dcb565b80601f016020809104026020016040519081016040528092919081815260200182805461156490613dcb565b80156115b15780601f10611586576101008083540402835291602001916115b1565b820191906000526020600020905b81548152906001019060200180831161159457829003601f168201915b505050505081526020016005820180546115ca90613dcb565b80601f01602080910402602001604051908101604052809291908181526020018280546115f690613dcb565b80156116435780601f1061161857610100808354040283529160200191611643565b820191906000526020600020905b81548152906001019060200180831161162657829003601f168201915b50505091835250506006820154602082015260078201546040820152600882015460ff161515606082015260099091015460809091015292915050565b6000336001600160a01b03166008888154811061169f5761169f613db5565b600091825260209091206002600a9092020101546001600160a01b0316146117005760405162461bcd60e51b8152602060048201526014602482015273155b985d5d1a1bdc9a5e994814195c9cdbdb995b60621b604482015260640161089d565b60008651116117485760405162461bcd60e51b81526020600482015260146024820152736e616d652063616e6e6f7420626520656d70747960601b604482015260640161089d565b60008551116117995760405162461bcd60e51b815260206004820152601b60248201527f6465736372697074696f6e2063616e6e6f7420626520656d7074790000000000604482015260640161089d565b600083116117e05760405162461bcd60e51b815260206004820152601460248201527370726963652063616e6e6f74206265207a65726f60601b604482015260640161089d565b600082116118275760405162461bcd60e51b815260206004820152601460248201527373746f636b2063616e6e6f74206265207a65726f60601b604482015260640161089d565b61182f613673565b878152336040820152606081018790526080810185905260a0810186905260c081018490526101208101839052600880548291908a90811061187357611873613db5565b90600052602060002090600a02016000820151816000015560208201518160010190816118a09190613ebe565b5060408201516002820180546001600160a01b0319166001600160a01b03909216919091179055606082015160038201906118db9082613ebe565b50608082015160048201906118f09082613ebe565b5060a082015160058201906119059082613ebe565b5060c0820151600682015560e0820151600782015561010082015160088201805460ff1916911515919091179055610120909101516009909101556119498161304b565b506001979650505050505050565b60606008805480602002602001604051908101604052809291908181526020016000905b82821015611c4a57838290600052602060002090600a020160405180610140016040529081600082015481526020016001820180546119b990613dcb565b80601f01602080910402602001604051908101604052809291908181526020018280546119e590613dcb565b8015611a325780601f10611a0757610100808354040283529160200191611a32565b820191906000526020600020905b815481529060010190602001808311611a1557829003601f168201915b505050918352505060028201546001600160a01b03166020820152600382018054604090920191611a6290613dcb565b80601f0160208091040260200160405190810160405280929190818152602001828054611a8e90613dcb565b8015611adb5780601f10611ab057610100808354040283529160200191611adb565b820191906000526020600020905b815481529060010190602001808311611abe57829003601f168201915b50505050508152602001600482018054611af490613dcb565b80601f0160208091040260200160405190810160405280929190818152602001828054611b2090613dcb565b8015611b6d5780601f10611b4257610100808354040283529160200191611b6d565b820191906000526020600020905b815481529060010190602001808311611b5057829003601f168201915b50505050508152602001600582018054611b8690613dcb565b80601f0160208091040260200160405190810160405280929190818152602001828054611bb290613dcb565b8015611bff5780601f10611bd457610100808354040283529160200191611bff565b820191906000526020600020905b815481529060010190602001808311611be257829003601f168201915b5050509183525050600682015460208083019190915260078301546040830152600883015460ff1615156060830152600990920154608090910152908252600192909201910161197b565b50505050905090565b6000600754341015611c9b5760405162461bcd60e51b8152602060048201526011602482015270125b9cdd59999a58da595b9d08199d5b99607a1b604482015260640161089d565b6000875111611ce25760405162461bcd60e51b8152602060048201526013602482015272736b752063616e6e6f7420626520656d70747960681b604482015260640161089d565b6000865111611d2a5760405162461bcd60e51b81526020600482015260146024820152736e616d652063616e6e6f7420626520656d70747960601b604482015260640161089d565b6000855111611d7b5760405162461bcd60e51b815260206004820152601b60248201527f6465736372697074696f6e2063616e6e6f7420626520656d7074790000000000604482015260640161089d565b6000845111611dcc5760405162461bcd60e51b815260206004820152601960248201527f696d6167652055524c2063616e6e6f7420626520656d70747900000000000000604482015260640161089d565b60008311611e135760405162461bcd60e51b815260206004820152601460248201527370726963652063616e6e6f74206265207a65726f60601b604482015260640161089d565b60008211611e5a5760405162461bcd60e51b815260206004820152601460248201527373746f636b2063616e6e6f74206265207a65726f60601b604482015260640161089d565b600180546000908152600d60209081526040808320805460ff1916909417909355338252600b9052908120805491611e9183613e1b565b909155505060038054906000611ea683613e1b565b9190505550611eb3613673565b60018054906000611ec383613e1b565b90915550815260208101888152336040830152606082018890526080820186905260a0820187905260c0820185905261012082018490524260e0830152600880546001810182556000919091528251600a9091027ff3f7a9fe364faab93b216da50a3214154f22a0a2b415b23a84c8169e8b636ee38101918255915183927ff3f7a9fe364faab93b216da50a3214154f22a0a2b415b23a84c8169e8b636ee40190611f6e9082613ebe565b5060408201516002820180546001600160a01b0319166001600160a01b0390921691909117905560608201516003820190611fa99082613ebe565b5060808201516004820190611fbe9082613ebe565b5060a08201516005820190611fd39082613ebe565b5060c0820151600682015560e0820151600782015561010082015160088201805460ff191691151591909117905561012090910151600990910155506001979650505050505050565b6000612028858561356b565b34101561206d5760405162461bcd60e51b8152602060048201526013602482015272125b9cdd59999a58da595b9d08185b5bdd5b9d606a1b604482015260640161089d565b60008351116120be5760405162461bcd60e51b815260206004820152601b60248201527f64657374696e6174696f6e2063616e6e6f7420626520656d7074790000000000604482015260640161089d565b60008251116121075760405162461bcd60e51b815260206004820152601560248201527470686f6e652063616e6e6f7420626520656d70747960581b604482015260640161089d565b612111858561356b565b60068054600090612123908490613e5d565b90915550600090505b855181101561280657600d600087838151811061214b5761214b613db5565b60209081029190910181015182528101919091526040016000205460ff1680156121cb575084818151811061218257612182613db5565b6020026020010151600887838151811061219e5761219e613db5565b6020026020010151815481106121b6576121b6613db5565b90600052602060002090600a02016009015410155b156127f4578481815181106121e2576121e2613db5565b602002602001015160088783815181106121fe576121fe613db5565b60200260200101518154811061221657612216613db5565b90600052602060002090600a020160090160008282546122369190613f7e565b9091555050336000908152600b6020526040812060010180549161225983613e1b565b90915550506002805490600061226e83613e1b565b919050555061227b6135e9565b600887838151811061228f5761228f613db5565b6020026020010151815481106122a7576122a7613db5565b60009182526020808320600a928302015480855283529081526040909120549082015286516008908890849081106122e1576122e1613db5565b6020026020010151815481106122f9576122f9613db5565b90600052602060002090600a0201600101805461231590613dcb565b80601f016020809104026020016040519081016040528092919081815260200182805461234190613dcb565b801561238e5780601f106123635761010080835404028352916020019161238e565b820191906000526020600020905b81548152906001019060200180831161237157829003601f168201915b505050505060408201523360a082015286516008908890849081106123b5576123b5613db5565b6020026020010151815481106123cd576123cd613db5565b600091825260209091206002600a9092020101546001600160a01b031660c0820152865160089088908490811061240657612406613db5565b60200260200101518154811061241e5761241e613db5565b90600052602060002090600a0201600301805461243a90613dcb565b80601f016020809104026020016040519081016040528092919081815260200182805461246690613dcb565b80156124b35780601f10612488576101008083540402835291602001916124b3565b820191906000526020600020905b81548152906001019060200180831161249657829003601f168201915b5050505050816060018190525060088783815181106124d4576124d4613db5565b6020026020010151815481106124ec576124ec613db5565b90600052602060002090600a0201600401805461250890613dcb565b80601f016020809104026020016040519081016040528092919081815260200182805461253490613dcb565b80156125815780601f1061255657610100808354040283529160200191612581565b820191906000526020600020905b81548152906001019060200180831161256457829003601f168201915b505050505081608001819052508582815181106125a0576125a0613db5565b60200260200101518160e001818152505060088783815181106125c5576125c5613db5565b6020026020010151815481106125dd576125dd613db5565b90600052602060002090600a02016006015486838151811061260157612601613db5565b60200260200101516126139190613f91565b610100820152426101208201526101408101859052610160810184905280516000908152600a60209081526040808320805460018181018355918552938390208551600d909502019384559184015191830191909155820151829190600282019061267e9082613ebe565b50606082015160038201906126939082613ebe565b50608082015160048201906126a89082613ebe565b5060a08201516005820180546001600160a01b039283166001600160a01b03199182161790915560c084015160068401805491909316911617905560e0820151600782015561010082015160088201556101208201516009820155610140820151600a8201906127189082613ebe565b50610160820151600b82019061272e9082613ebe565b50610180820151600c8201805460ff1916600183600381111561275357612753613769565b02179055505081516000908152600e6020908152604080832082860180518552925291829020805460ff1916600117905560c084015160a0850151915161010086015193516001600160a01b03928316955092909116927ff3debaf22196a6ddf52a60fa71058cd7edf5e25bb98f4e96c994a5d4a9b0dd3e926127ea92919042909283526020830191909152604082015260600190565b60405180910390a3505b806127fe81613e1b565b91505061212c565b50600195945050505050565b6000828152600e6020908152604080832084845290915281205460ff1661284b5760405162461bcd60e51b815260040161089d90613e34565b6000838152600a6020526040812080548490811061286b5761286b613db5565b90600052602060002090600d0201604051806101a001604052908160008201548152602001600182015481526020016002820180546128a990613dcb565b80601f01602080910402602001604051908101604052809291908181526020018280546128d590613dcb565b80156129225780601f106128f757610100808354040283529160200191612922565b820191906000526020600020905b81548152906001019060200180831161290557829003601f168201915b5050505050815260200160038201805461293b90613dcb565b80601f016020809104026020016040519081016040528092919081815260200182805461296790613dcb565b80156129b45780601f10612989576101008083540402835291602001916129b4565b820191906000526020600020905b81548152906001019060200180831161299757829003601f168201915b505050505081526020016004820180546129cd90613dcb565b80601f01602080910402602001604051908101604052809291908181526020018280546129f990613dcb565b8015612a465780601f10612a1b57610100808354040283529160200191612a46565b820191906000526020600020905b815481529060010190602001808311612a2957829003601f168201915b505050918352505060058201546001600160a01b03908116602083015260068301541660408201526007820154606082015260088201546080820152600982015460a0820152600a8201805460c090920191612aa190613dcb565b80601f0160208091040260200160405190810160405280929190818152602001828054612acd90613dcb565b8015612b1a5780601f10612aef57610100808354040283529160200191612b1a565b820191906000526020600020905b815481529060010190602001808311612afd57829003601f168201915b50505050508152602001600b82018054612b3390613dcb565b80601f0160208091040260200160405190810160405280929190818152602001828054612b5f90613dcb565b8015612bac5780601f10612b8157610100808354040283529160200191612bac565b820191906000526020600020905b815481529060010190602001808311612b8f57829003601f168201915b5050509183525050600c82015460209091019060ff166003811115612bd357612bd3613769565b6003811115612be457612be4613769565b90525060c08101519091506001600160a01b03163314612c3c5760405162461bcd60e51b8152602060048201526013602482015272556e617574686f72697a656420456e7469747960681b604482015260640161089d565b60018161018001516003811115612c5557612c55613769565b03612ca25760405162461bcd60e51b815260206004820152601860248201527f4f7264657220616c72656164792064656c696576657265640000000000000000604482015260640161089d565b60016101808201526000848152600a60205260409020805482919085908110612ccd57612ccd613db5565b90600052602060002090600d020160008201518160000155602082015181600101556040820151816002019081612d049190613ebe565b5060608201516003820190612d199082613ebe565b5060808201516004820190612d2e9082613ebe565b5060a08201516005820180546001600160a01b039283166001600160a01b03199182161790915560c084015160068401805491909316911617905560e0820151600782015561010082015160088201556101208201516009820155610140820151600a820190612d9e9082613ebe565b50610160820151600b820190612db49082613ebe565b50610180820151600c8201805460ff19166001836003811115612dd957612dd9613769565b0217905550505061010081015160068054600090612df8908490613f7e565b909155505061010081015160c08201516001600160a01b03166000908152600b602052604081206004018054909190612e32908490613e5d565b909155505060c08101516001600160a01b03166000908152600b60205260408120600301805491612e6283613e1b565b909155505060048054906000612e7783613e1b565b9190505550612e8f8160c00151826101000151612fe6565b6000928352600c60209081526040808520815160808101835260a08501516001600160a01b03908116825261010086015182860190815260e0909601519382019384524260608301908152835460018082018655948a52959098209151600490950290910180546001600160a01b03191694909116939093178355925182840155516002820155925160039093019290925550919050565b6000336001600160a01b031660088381548110612f4657612f46613db5565b600091825260209091206002600a9092020101546001600160a01b031614612fa75760405162461bcd60e51b8152602060048201526014602482015273155b985d5d1a1bdc9a5e994814195c9cdbdb995b60621b604482015260640161089d565b600160088381548110612fbc57612fbc613db5565b60009182526020909120600a90910201600801805460ff1916911515919091179055506001919050565b6000826001600160a01b03168260405160006040518083038185875af1925050503d8060008114613033576040519150601f19603f3d011682016040523d82523d6000602084013e613038565b606091505b505090508061304657600080fd5b505050565b60005b81516000908152600a60205260409020548110156135675781516000908152600a6020526040812080548390811061308857613088613db5565b90600052602060002090600d0201604051806101a001604052908160008201548152602001600182015481526020016002820180546130c690613dcb565b80601f01602080910402602001604051908101604052809291908181526020018280546130f290613dcb565b801561313f5780601f106131145761010080835404028352916020019161313f565b820191906000526020600020905b81548152906001019060200180831161312257829003601f168201915b5050505050815260200160038201805461315890613dcb565b80601f016020809104026020016040519081016040528092919081815260200182805461318490613dcb565b80156131d15780601f106131a6576101008083540402835291602001916131d1565b820191906000526020600020905b8154815290600101906020018083116131b457829003601f168201915b505050505081526020016004820180546131ea90613dcb565b80601f016020809104026020016040519081016040528092919081815260200182805461321690613dcb565b80156132635780601f1061323857610100808354040283529160200191613263565b820191906000526020600020905b81548152906001019060200180831161324657829003601f168201915b505050918352505060058201546001600160a01b03908116602083015260068301541660408201526007820154606082015260088201546080820152600982015460a0820152600a8201805460c0909201916132be90613dcb565b80601f01602080910402602001604051908101604052809291908181526020018280546132ea90613dcb565b80156133375780601f1061330c57610100808354040283529160200191613337565b820191906000526020600020905b81548152906001019060200180831161331a57829003601f168201915b50505050508152602001600b8201805461335090613dcb565b80601f016020809104026020016040519081016040528092919081815260200182805461337c90613dcb565b80156133c95780601f1061339e576101008083540402835291602001916133c9565b820191906000526020600020905b8154815290600101906020018083116133ac57829003601f168201915b5050509183525050600c82015460209091019060ff1660038111156133f0576133f0613769565b600381111561340157613401613769565b905250606080850151908201526080808501519082015283516000908152600a60205260409020805491925082918490811061343f5761343f613db5565b90600052602060002090600d0201600082015181600001556020820151816001015560408201518160020190816134769190613ebe565b506060820151600382019061348b9082613ebe565b50608082015160048201906134a09082613ebe565b5060a08201516005820180546001600160a01b039283166001600160a01b03199182161790915560c084015160068401805491909316911617905560e0820151600782015561010082015160088201556101208201516009820155610140820151600a8201906135109082613ebe565b50610160820151600b8201906135269082613ebe565b50610180820151600c8201805460ff1916600183600381111561354b5761354b613769565b021790555090505050808061355f90613e1b565b91505061304e565b5050565b60008060005b84518110156135e15783818151811061358c5761358c613db5565b6020026020010151600882815481106135a7576135a7613db5565b90600052602060002090600a0201600601546135c39190613f91565b6135cd9083613e5d565b9150806135d981613e1b565b915050613571565b509392505050565b604051806101a00160405280600081526020016000815260200160608152602001606081526020016060815260200160006001600160a01b0316815260200160006001600160a01b0316815260200160008152602001600081526020016000815260200160608152602001606081526020016000600381111561366e5761366e613769565b905290565b604051806101400160405280600081526020016060815260200160006001600160a01b031681526020016060815260200160608152602001606081526020016000815260200160008152602001600015158152602001600081525090565b6000602082840312156136e357600080fd5b81356001600160a01b03811681146136fa57600080fd5b9392505050565b6000806040838503121561371457600080fd5b50508035926020909101359150565b6000815180845260005b818110156137495760208185018101518683018201520161372d565b506000602082860101526020601f19601f83011685010191505092915050565b634e487b7160e01b600052602160045260246000fd5b6004811061379d57634e487b7160e01b600052602160045260246000fd5b9052565b60006101a0825184526020830151602085015260408301518160408601526137cb82860182613723565b915050606083015184820360608601526137e58282613723565b915050608083015184820360808601526137ff8282613723565b91505060a083015161381c60a08601826001600160a01b03169052565b5060c083015161383760c08601826001600160a01b03169052565b5060e083810151908501526101008084015190850152610120808401519085015261014080840151858303828701526138708382613723565b92505050610160808401518583038287015261388c8382613723565b92505050610180808401516138a38287018261377f565b5090949350505050565b6000602080830181845280855180835260408601915060408160051b870101925083870160005b8281101561390257603f198886030184526138f08583516137a1565b945092850192908501906001016138d4565b5092979650505050505050565b6020815260006136fa60208301846137a1565b60006020828403121561393457600080fd5b5035919050565b602080825282518282018190526000919060409081850190868401855b8281101561399b57815180516001600160a01b03168552868101518786015285810151868601526060908101519085015260809093019290850190600101613958565b5091979650505050505050565b60006101408251845260208301518160208601526139c882860182613723565b91505060408301516139e560408601826001600160a01b03169052565b50606083015184820360608601526139fd8282613723565b91505060808301518482036080860152613a178282613723565b91505060a083015184820360a0860152613a318282613723565b91505060c083015160c085015260e083015160e085015261010080840151613a5c8287018215159052565b5050610120928301519390920192909252919050565b6020815260006136fa60208301846139a8565b634e487b7160e01b600052604160045260246000fd5b604051601f8201601f1916810167ffffffffffffffff81118282101715613ac457613ac4613a85565b604052919050565b600082601f830112613add57600080fd5b813567ffffffffffffffff811115613af757613af7613a85565b613b0a601f8201601f1916602001613a9b565b818152846020838601011115613b1f57600080fd5b816020850160208301376000918101602001919091529392505050565b60008060008060008060c08789031215613b5557600080fd5b86359550602087013567ffffffffffffffff80821115613b7457600080fd5b613b808a838b01613acc565b96506040890135915080821115613b9657600080fd5b613ba28a838b01613acc565b95506060890135915080821115613bb857600080fd5b50613bc589828a01613acc565b9350506080870135915060a087013590509295509295509295565b6000602080830181845280855180835260408601915060408160051b870101925083870160005b8281101561390257603f19888603018452613c238583516139a8565b94509285019290850190600101613c07565b60008060008060008060c08789031215613c4e57600080fd5b863567ffffffffffffffff80821115613c6657600080fd5b613c728a838b01613acc565b97506020890135915080821115613b7457600080fd5b600082601f830112613c9957600080fd5b8135602067ffffffffffffffff821115613cb557613cb5613a85565b8160051b613cc4828201613a9b565b9283528481018201928281019087851115613cde57600080fd5b83870192505b84831015613cfd57823582529183019190830190613ce4565b979650505050505050565b60008060008060808587031215613d1e57600080fd5b843567ffffffffffffffff80821115613d3657600080fd5b613d4288838901613c88565b95506020870135915080821115613d5857600080fd5b613d6488838901613c88565b94506040870135915080821115613d7a57600080fd5b613d8688838901613acc565b93506060870135915080821115613d9c57600080fd5b50613da987828801613acc565b91505092959194509250565b634e487b7160e01b600052603260045260246000fd5b600181811c90821680613ddf57607f821691505b602082108103613dff57634e487b7160e01b600052602260045260246000fd5b50919050565b634e487b7160e01b600052601160045260246000fd5b600060018201613e2d57613e2d613e05565b5060010190565b6020808252600f908201526e13dc99195c881b9bdd08199bdd5b99608a1b604082015260600190565b80820180821115610c4557610c45613e05565b601f82111561304657600081815260208120601f850160051c81016020861015613e975750805b601f850160051c820191505b81811015613eb657828155600101613ea3565b505050505050565b815167ffffffffffffffff811115613ed857613ed8613a85565b613eec81613ee68454613dcb565b84613e70565b602080601f831160018114613f215760008415613f095750858301515b600019600386901b1c1916600185901b178555613eb6565b600085815260208120601f198616915b82811015613f5057888601518255948401946001909101908401613f31565b5085821015613f6e5787850151600019600388901b60f8161c191681555b5050505050600190811b01905550565b81810381811115610c4557610c45613e05565b8082028115828204841417610c4557610c45613e0556fea2646970667358221220249636a712920f0d763a96a5b41f9df2562dd15671cf35e5ab199c7a2c24657f64736f6c63430008110033",
  "linkReferences": {},
  "deployedLinkReferences": {}
}